{
  "_format": "hh-sol-artifact-1",
  "contractName": "UniswapV2Router02",
  "sourceName": "contracts/UniswapV2Router.sol",
  "abi": [
    {
      "inputs": [
        {
          "internalType": "address",
          "name": "_factory",
          "type": "address"
        },
        {
          "internalType": "address",
          "name": "_WETH",
          "type": "address"
        }
      ],
      "stateMutability": "nonpayable",
      "type": "constructor"
    },
    {
      "inputs": [],
      "name": "WETH",
      "outputs": [
        {
          "internalType": "address",
          "name": "",
          "type": "address"
        }
      ],
      "stateMutability": "view",
      "type": "function"
    },
    {
      "inputs": [
        {
          "internalType": "address",
          "name": "tokenA",
          "type": "address"
        },
        {
          "internalType": "address",
          "name": "tokenB",
          "type": "address"
        },
        {
          "internalType": "uint256",
          "name": "amountADesired",
          "type": "uint256"
        },
        {
          "internalType": "uint256",
          "name": "amountBDesired",
          "type": "uint256"
        },
        {
          "internalType": "uint256",
          "name": "amountAMin",
          "type": "uint256"
        },
        {
          "internalType": "uint256",
          "name": "amountBMin",
          "type": "uint256"
        },
        {
          "internalType": "address",
          "name": "to",
          "type": "address"
        },
        {
          "internalType": "uint256",
          "name": "deadline",
          "type": "uint256"
        }
      ],
      "name": "addLiquidity",
      "outputs": [
        {
          "internalType": "uint256",
          "name": "amountA",
          "type": "uint256"
        },
        {
          "internalType": "uint256",
          "name": "amountB",
          "type": "uint256"
        },
        {
          "internalType": "uint256",
          "name": "liquidity",
          "type": "uint256"
        }
      ],
      "stateMutability": "nonpayable",
      "type": "function"
    },
    {
      "inputs": [
        {
          "internalType": "address",
          "name": "token",
          "type": "address"
        },
        {
          "internalType": "uint256",
          "name": "amountTokenDesired",
          "type": "uint256"
        },
        {
          "internalType": "uint256",
          "name": "amountTokenMin",
          "type": "uint256"
        },
        {
          "internalType": "uint256",
          "name": "amountETHMin",
          "type": "uint256"
        },
        {
          "internalType": "address",
          "name": "to",
          "type": "address"
        },
        {
          "internalType": "uint256",
          "name": "deadline",
          "type": "uint256"
        }
      ],
      "name": "addLiquidityETH",
      "outputs": [
        {
          "internalType": "uint256",
          "name": "amountToken",
          "type": "uint256"
        },
        {
          "internalType": "uint256",
          "name": "amountETH",
          "type": "uint256"
        },
        {
          "internalType": "uint256",
          "name": "liquidity",
          "type": "uint256"
        }
      ],
      "stateMutability": "payable",
      "type": "function"
    },
    {
      "inputs": [],
      "name": "factory",
      "outputs": [
        {
          "internalType": "address",
          "name": "",
          "type": "address"
        }
      ],
      "stateMutability": "view",
      "type": "function"
    },
    {
      "inputs": [
        {
          "internalType": "uint256",
          "name": "amountOut",
          "type": "uint256"
        },
        {
          "internalType": "uint256",
          "name": "reserveIn",
          "type": "uint256"
        },
        {
          "internalType": "uint256",
          "name": "reserveOut",
          "type": "uint256"
        },
        {
          "internalType": "address",
          "name": "pair",
          "type": "address"
        }
      ],
      "name": "getAmountIn",
      "outputs": [
        {
          "internalType": "uint256",
          "name": "amountIn",
          "type": "uint256"
        }
      ],
      "stateMutability": "view",
      "type": "function"
    },
    {
      "inputs": [
        {
          "internalType": "uint256",
          "name": "amountIn",
          "type": "uint256"
        },
        {
          "internalType": "uint256",
          "name": "reserveIn",
          "type": "uint256"
        },
        {
          "internalType": "uint256",
          "name": "reserveOut",
          "type": "uint256"
        },
        {
          "internalType": "address",
          "name": "pair",
          "type": "address"
        }
      ],
      "name": "getAmountOut",
      "outputs": [
        {
          "internalType": "uint256",
          "name": "amountOut",
          "type": "uint256"
        }
      ],
      "stateMutability": "view",
      "type": "function"
    },
    {
      "inputs": [
        {
          "internalType": "uint256",
          "name": "amountOut",
          "type": "uint256"
        },
        {
          "internalType": "address[]",
          "name": "path",
          "type": "address[]"
        }
      ],
      "name": "getAmountsIn",
      "outputs": [
        {
          "internalType": "uint256[]",
          "name": "amounts",
          "type": "uint256[]"
        }
      ],
      "stateMutability": "view",
      "type": "function"
    },
    {
      "inputs": [
        {
          "internalType": "uint256",
          "name": "amountIn",
          "type": "uint256"
        },
        {
          "internalType": "address[]",
          "name": "path",
          "type": "address[]"
        }
      ],
      "name": "getAmountsOut",
      "outputs": [
        {
          "internalType": "uint256[]",
          "name": "amounts",
          "type": "uint256[]"
        }
      ],
      "stateMutability": "view",
      "type": "function"
    },
    {
      "inputs": [
        {
          "internalType": "uint256",
          "name": "amountA",
          "type": "uint256"
        },
        {
          "internalType": "uint256",
          "name": "reserveA",
          "type": "uint256"
        },
        {
          "internalType": "uint256",
          "name": "reserveB",
          "type": "uint256"
        }
      ],
      "name": "quote",
      "outputs": [
        {
          "internalType": "uint256",
          "name": "amountB",
          "type": "uint256"
        }
      ],
      "stateMutability": "pure",
      "type": "function"
    },
    {
      "inputs": [
        {
          "internalType": "address",
          "name": "tokenA",
          "type": "address"
        },
        {
          "internalType": "address",
          "name": "tokenB",
          "type": "address"
        },
        {
          "internalType": "uint256",
          "name": "liquidity",
          "type": "uint256"
        },
        {
          "internalType": "uint256",
          "name": "amountAMin",
          "type": "uint256"
        },
        {
          "internalType": "uint256",
          "name": "amountBMin",
          "type": "uint256"
        },
        {
          "internalType": "address",
          "name": "to",
          "type": "address"
        },
        {
          "internalType": "uint256",
          "name": "deadline",
          "type": "uint256"
        }
      ],
      "name": "removeLiquidity",
      "outputs": [
        {
          "internalType": "uint256",
          "name": "amountA",
          "type": "uint256"
        },
        {
          "internalType": "uint256",
          "name": "amountB",
          "type": "uint256"
        }
      ],
      "stateMutability": "nonpayable",
      "type": "function"
    },
    {
      "inputs": [
        {
          "internalType": "address",
          "name": "token",
          "type": "address"
        },
        {
          "internalType": "uint256",
          "name": "liquidity",
          "type": "uint256"
        },
        {
          "internalType": "uint256",
          "name": "amountTokenMin",
          "type": "uint256"
        },
        {
          "internalType": "uint256",
          "name": "amountETHMin",
          "type": "uint256"
        },
        {
          "internalType": "address",
          "name": "to",
          "type": "address"
        },
        {
          "internalType": "uint256",
          "name": "deadline",
          "type": "uint256"
        }
      ],
      "name": "removeLiquidityETH",
      "outputs": [
        {
          "internalType": "uint256",
          "name": "amountToken",
          "type": "uint256"
        },
        {
          "internalType": "uint256",
          "name": "amountETH",
          "type": "uint256"
        }
      ],
      "stateMutability": "nonpayable",
      "type": "function"
    },
    {
      "inputs": [
        {
          "internalType": "address",
          "name": "token",
          "type": "address"
        },
        {
          "internalType": "uint256",
          "name": "liquidity",
          "type": "uint256"
        },
        {
          "internalType": "uint256",
          "name": "amountTokenMin",
          "type": "uint256"
        },
        {
          "internalType": "uint256",
          "name": "amountETHMin",
          "type": "uint256"
        },
        {
          "internalType": "address",
          "name": "to",
          "type": "address"
        },
        {
          "internalType": "uint256",
          "name": "deadline",
          "type": "uint256"
        }
      ],
      "name": "removeLiquidityETHSupportingFeeOnTransferTokens",
      "outputs": [
        {
          "internalType": "uint256",
          "name": "amountETH",
          "type": "uint256"
        }
      ],
      "stateMutability": "nonpayable",
      "type": "function"
    },
    {
      "inputs": [
        {
          "internalType": "address",
          "name": "token",
          "type": "address"
        },
        {
          "internalType": "uint256",
          "name": "liquidity",
          "type": "uint256"
        },
        {
          "internalType": "uint256",
          "name": "amountTokenMin",
          "type": "uint256"
        },
        {
          "internalType": "uint256",
          "name": "amountETHMin",
          "type": "uint256"
        },
        {
          "internalType": "address",
          "name": "to",
          "type": "address"
        },
        {
          "internalType": "uint256",
          "name": "deadline",
          "type": "uint256"
        },
        {
          "internalType": "bool",
          "name": "approveMax",
          "type": "bool"
        },
        {
          "internalType": "uint8",
          "name": "v",
          "type": "uint8"
        },
        {
          "internalType": "bytes32",
          "name": "r",
          "type": "bytes32"
        },
        {
          "internalType": "bytes32",
          "name": "s",
          "type": "bytes32"
        }
      ],
      "name": "removeLiquidityETHWithPermit",
      "outputs": [
        {
          "internalType": "uint256",
          "name": "amountToken",
          "type": "uint256"
        },
        {
          "internalType": "uint256",
          "name": "amountETH",
          "type": "uint256"
        }
      ],
      "stateMutability": "nonpayable",
      "type": "function"
    },
    {
      "inputs": [
        {
          "internalType": "address",
          "name": "token",
          "type": "address"
        },
        {
          "internalType": "uint256",
          "name": "liquidity",
          "type": "uint256"
        },
        {
          "internalType": "uint256",
          "name": "amountTokenMin",
          "type": "uint256"
        },
        {
          "internalType": "uint256",
          "name": "amountETHMin",
          "type": "uint256"
        },
        {
          "internalType": "address",
          "name": "to",
          "type": "address"
        },
        {
          "internalType": "uint256",
          "name": "deadline",
          "type": "uint256"
        },
        {
          "internalType": "bool",
          "name": "approveMax",
          "type": "bool"
        },
        {
          "internalType": "uint8",
          "name": "v",
          "type": "uint8"
        },
        {
          "internalType": "bytes32",
          "name": "r",
          "type": "bytes32"
        },
        {
          "internalType": "bytes32",
          "name": "s",
          "type": "bytes32"
        }
      ],
      "name": "removeLiquidityETHWithPermitSupportingFeeOnTransferTokens",
      "outputs": [
        {
          "internalType": "uint256",
          "name": "amountETH",
          "type": "uint256"
        }
      ],
      "stateMutability": "nonpayable",
      "type": "function"
    },
    {
      "inputs": [
        {
          "internalType": "address",
          "name": "tokenA",
          "type": "address"
        },
        {
          "internalType": "address",
          "name": "tokenB",
          "type": "address"
        },
        {
          "internalType": "uint256",
          "name": "liquidity",
          "type": "uint256"
        },
        {
          "internalType": "uint256",
          "name": "amountAMin",
          "type": "uint256"
        },
        {
          "internalType": "uint256",
          "name": "amountBMin",
          "type": "uint256"
        },
        {
          "internalType": "address",
          "name": "to",
          "type": "address"
        },
        {
          "internalType": "uint256",
          "name": "deadline",
          "type": "uint256"
        },
        {
          "internalType": "bool",
          "name": "approveMax",
          "type": "bool"
        },
        {
          "internalType": "uint8",
          "name": "v",
          "type": "uint8"
        },
        {
          "internalType": "bytes32",
          "name": "r",
          "type": "bytes32"
        },
        {
          "internalType": "bytes32",
          "name": "s",
          "type": "bytes32"
        }
      ],
      "name": "removeLiquidityWithPermit",
      "outputs": [
        {
          "internalType": "uint256",
          "name": "amountA",
          "type": "uint256"
        },
        {
          "internalType": "uint256",
          "name": "amountB",
          "type": "uint256"
        }
      ],
      "stateMutability": "nonpayable",
      "type": "function"
    },
    {
      "inputs": [
        {
          "internalType": "uint256",
          "name": "amountOut",
          "type": "uint256"
        },
        {
          "internalType": "address[]",
          "name": "path",
          "type": "address[]"
        },
        {
          "internalType": "address",
          "name": "to",
          "type": "address"
        },
        {
          "internalType": "uint256",
          "name": "deadline",
          "type": "uint256"
        }
      ],
      "name": "swapETHForExactTokens",
      "outputs": [
        {
          "internalType": "uint256[]",
          "name": "amounts",
          "type": "uint256[]"
        }
      ],
      "stateMutability": "payable",
      "type": "function"
    },
    {
      "inputs": [
        {
          "internalType": "uint256",
          "name": "amountOutMin",
          "type": "uint256"
        },
        {
          "internalType": "address[]",
          "name": "path",
          "type": "address[]"
        },
        {
          "internalType": "address",
          "name": "to",
          "type": "address"
        },
        {
          "internalType": "uint256",
          "name": "deadline",
          "type": "uint256"
        }
      ],
      "name": "swapExactETHForTokens",
      "outputs": [
        {
          "internalType": "uint256[]",
          "name": "amounts",
          "type": "uint256[]"
        }
      ],
      "stateMutability": "payable",
      "type": "function"
    },
    {
      "inputs": [
        {
          "internalType": "uint256",
          "name": "amountOutMin",
          "type": "uint256"
        },
        {
          "internalType": "address[]",
          "name": "path",
          "type": "address[]"
        },
        {
          "internalType": "address",
          "name": "to",
          "type": "address"
        },
        {
          "internalType": "uint256",
          "name": "deadline",
          "type": "uint256"
        }
      ],
      "name": "swapExactETHForTokensSupportingFeeOnTransferTokens",
      "outputs": [],
      "stateMutability": "payable",
      "type": "function"
    },
    {
      "inputs": [
        {
          "internalType": "uint256",
          "name": "amountIn",
          "type": "uint256"
        },
        {
          "internalType": "uint256",
          "name": "amountOutMin",
          "type": "uint256"
        },
        {
          "internalType": "address[]",
          "name": "path",
          "type": "address[]"
        },
        {
          "internalType": "address",
          "name": "to",
          "type": "address"
        },
        {
          "internalType": "uint256",
          "name": "deadline",
          "type": "uint256"
        }
      ],
      "name": "swapExactTokensForETH",
      "outputs": [
        {
          "internalType": "uint256[]",
          "name": "amounts",
          "type": "uint256[]"
        }
      ],
      "stateMutability": "nonpayable",
      "type": "function"
    },
    {
      "inputs": [
        {
          "internalType": "uint256",
          "name": "amountIn",
          "type": "uint256"
        },
        {
          "internalType": "uint256",
          "name": "amountOutMin",
          "type": "uint256"
        },
        {
          "internalType": "address[]",
          "name": "path",
          "type": "address[]"
        },
        {
          "internalType": "address",
          "name": "to",
          "type": "address"
        },
        {
          "internalType": "uint256",
          "name": "deadline",
          "type": "uint256"
        }
      ],
      "name": "swapExactTokensForETHSupportingFeeOnTransferTokens",
      "outputs": [],
      "stateMutability": "nonpayable",
      "type": "function"
    },
    {
      "inputs": [
        {
          "internalType": "uint256",
          "name": "amountIn",
          "type": "uint256"
        },
        {
          "internalType": "uint256",
          "name": "amountOutMin",
          "type": "uint256"
        },
        {
          "internalType": "address[]",
          "name": "path",
          "type": "address[]"
        },
        {
          "internalType": "address",
          "name": "to",
          "type": "address"
        },
        {
          "internalType": "uint256",
          "name": "deadline",
          "type": "uint256"
        }
      ],
      "name": "swapExactTokensForTokens",
      "outputs": [
        {
          "internalType": "uint256[]",
          "name": "amounts",
          "type": "uint256[]"
        }
      ],
      "stateMutability": "nonpayable",
      "type": "function"
    },
    {
      "inputs": [
        {
          "internalType": "uint256",
          "name": "amountIn",
          "type": "uint256"
        },
        {
          "internalType": "uint256",
          "name": "amountOutMin",
          "type": "uint256"
        },
        {
          "internalType": "address[]",
          "name": "path",
          "type": "address[]"
        },
        {
          "internalType": "address",
          "name": "to",
          "type": "address"
        },
        {
          "internalType": "uint256",
          "name": "deadline",
          "type": "uint256"
        }
      ],
      "name": "swapExactTokensForTokensSupportingFeeOnTransferTokens",
      "outputs": [],
      "stateMutability": "nonpayable",
      "type": "function"
    },
    {
      "inputs": [
        {
          "internalType": "uint256",
          "name": "amountOut",
          "type": "uint256"
        },
        {
          "internalType": "uint256",
          "name": "amountInMax",
          "type": "uint256"
        },
        {
          "internalType": "address[]",
          "name": "path",
          "type": "address[]"
        },
        {
          "internalType": "address",
          "name": "to",
          "type": "address"
        },
        {
          "internalType": "uint256",
          "name": "deadline",
          "type": "uint256"
        }
      ],
      "name": "swapTokensForExactETH",
      "outputs": [
        {
          "internalType": "uint256[]",
          "name": "amounts",
          "type": "uint256[]"
        }
      ],
      "stateMutability": "nonpayable",
      "type": "function"
    },
    {
      "inputs": [
        {
          "internalType": "uint256",
          "name": "amountOut",
          "type": "uint256"
        },
        {
          "internalType": "uint256",
          "name": "amountInMax",
          "type": "uint256"
        },
        {
          "internalType": "address[]",
          "name": "path",
          "type": "address[]"
        },
        {
          "internalType": "address",
          "name": "to",
          "type": "address"
        },
        {
          "internalType": "uint256",
          "name": "deadline",
          "type": "uint256"
        }
      ],
      "name": "swapTokensForExactTokens",
      "outputs": [
        {
          "internalType": "uint256[]",
          "name": "amounts",
          "type": "uint256[]"
        }
      ],
      "stateMutability": "nonpayable",
      "type": "function"
    },
    {
      "stateMutability": "payable",
      "type": "receive"
    }
  ],
  "bytecode": "0x60c060405234801561001057600080fd5b5060405162004979380380620049798339818101604052604081101561003557600080fd5b5080516020909101516001600160601b0319606092831b8116608052911b1660a05260805160601c60a05160601c6147e5620001946000398061015f5280610d025280610d3d5280610e1f528061103d52806113c7528061152d52806118f452806119ee5280611aa45280611b725280611cb85280611d405280611fb0528061203352806120e252806121ae528061224352806122b752806127e45280612a575280612aad5280612ae15280612b555280612cf55280612e385280612ec0525080610ead5280610f845280611103528061113c52806112775280611455528061150b528061167b5280611c055280611d725280611ec85280611f7d52806122e95280612542528061273a5280612763528061279252806127c2528061292f5280612a8b5280612d885280612ef252806136a852806136eb52806139e35280613b125280613b8452806141ba528061426852806142e852506147e56000f3fe60806040526004361061014f5760003560e01c8063ad5c4648116100b6578063caced41b1161006f578063caced41b146109fe578063d06ca61f14610a43578063ded9382a14610af8578063e8e3370014610b6b578063f305d71914610beb578063fb3bdb4114610c3157610188565b8063ad5c46481461084e578063ad615dec1461087f578063af2979eb146108b5578063b6f9de9514610908578063baa2abde1461098c578063c45a0155146109e957610188565b80635b0d5984116101085780635b0d59841461053e5780635c11d795146105c3578063791ac947146106595780637ff36ab5146106ef5780638803dbee146107735780639470dbea1461080957610188565b806302751cec1461018d57806318cbafe5146101f95780631f00ca74146102df5780632195995c1461039457806338ed1739146104125780634a25d94a146104a857610188565b3661018857336001600160a01b037f0000000000000000000000000000000000000000000000000000000000000000161461018657fe5b005b600080fd5b34801561019957600080fd5b506101e0600480360360c08110156101b057600080fd5b506001600160a01b0381358116916020810135916040820135916060810135916080820135169060a00135610cb5565b6040805192835260208301919091528051918290030190f35b34801561020557600080fd5b5061028f600480360360a081101561021c57600080fd5b813591602081013591810190606081016040820135600160201b81111561024257600080fd5b82018360208201111561025457600080fd5b803590602001918460208302840111600160201b8311171561027557600080fd5b91935091506001600160a01b038135169060200135610dcf565b60408051602080825283518183015283519192839290830191858101910280838360005b838110156102cb5781810151838201526020016102b3565b505050509050019250505060405180910390f35b3480156102eb57600080fd5b5061028f6004803603604081101561030257600080fd5b81359190810190604081016020820135600160201b81111561032357600080fd5b82018360208201111561033557600080fd5b803590602001918460208302840111600160201b8311171561035657600080fd5b9190808060200260200160405190810160405280939291908181526020018383602002808284376000920191909152509295506110fc945050505050565b3480156103a057600080fd5b506101e060048036036101608110156103b857600080fd5b506001600160a01b038135811691602081013582169160408201359160608101359160808201359160a08101359091169060c08101359060e081013515159060ff6101008201351690610120810135906101400135611132565b34801561041e57600080fd5b5061028f600480360360a081101561043557600080fd5b813591602081013591810190606081016040820135600160201b81111561045b57600080fd5b82018360208201111561046d57600080fd5b803590602001918460208302840111600160201b8311171561048e57600080fd5b91935091506001600160a01b03813516906020013561122c565b3480156104b457600080fd5b5061028f600480360360a08110156104cb57600080fd5b813591602081013591810190606081016040820135600160201b8111156104f157600080fd5b82018360208201111561050357600080fd5b803590602001918460208302840111600160201b8311171561052457600080fd5b91935091506001600160a01b038135169060200135611377565b34801561054a57600080fd5b506105b1600480360361014081101561056257600080fd5b506001600160a01b0381358116916020810135916040820135916060810135916080820135169060a08101359060c081013515159060ff60e08201351690610100810135906101200135611503565b60408051918252519081900360200190f35b3480156105cf57600080fd5b50610186600480360360a08110156105e657600080fd5b813591602081013591810190606081016040820135600160201b81111561060c57600080fd5b82018360208201111561061e57600080fd5b803590602001918460208302840111600160201b8311171561063f57600080fd5b91935091506001600160a01b038135169060200135611611565b34801561066557600080fd5b50610186600480360360a081101561067c57600080fd5b813591602081013591810190606081016040820135600160201b8111156106a257600080fd5b8201836020820111156106b457600080fd5b803590602001918460208302840111600160201b831117156106d557600080fd5b91935091506001600160a01b0381351690602001356118a6565b61028f6004803603608081101561070557600080fd5b81359190810190604081016020820135600160201b81111561072657600080fd5b82018360208201111561073857600080fd5b803590602001918460208302840111600160201b8311171561075957600080fd5b91935091506001600160a01b038135169060200135611b2a565b34801561077f57600080fd5b5061028f600480360360a081101561079657600080fd5b813591602081013591810190606081016040820135600160201b8111156107bc57600080fd5b8201836020820111156107ce57600080fd5b803590602001918460208302840111600160201b831117156107ef57600080fd5b91935091506001600160a01b038135169060200135611e7d565b34801561081557600080fd5b506105b16004803603608081101561082c57600080fd5b50803590602081013590604081013590606001356001600160a01b0316611f76565b34801561085a57600080fd5b50610863611fae565b604080516001600160a01b039092168252519081900360200190f35b34801561088b57600080fd5b506105b1600480360360608110156108a257600080fd5b5080359060208101359060400135611fd2565b3480156108c157600080fd5b506105b1600480360360c08110156108d857600080fd5b506001600160a01b0381358116916020810135916040820135916060810135916080820135169060a00135611fe7565b6101866004803603608081101561091e57600080fd5b81359190810190604081016020820135600160201b81111561093f57600080fd5b82018360208201111561095157600080fd5b803590602001918460208302840111600160201b8311171561097257600080fd5b91935091506001600160a01b038135169060200135612168565b34801561099857600080fd5b506101e0600480360360e08110156109af57600080fd5b506001600160a01b038135811691602081013582169160408201359160608101359160808201359160a08101359091169060c001356124f4565b3480156109f557600080fd5b50610863612738565b348015610a0a57600080fd5b506105b160048036036080811015610a2157600080fd5b50803590602081013590604081013590606001356001600160a01b031661275c565b348015610a4f57600080fd5b5061028f60048036036040811015610a6657600080fd5b81359190810190604081016020820135600160201b811115610a8757600080fd5b820183602082011115610a9957600080fd5b803590602001918460208302840111600160201b83111715610aba57600080fd5b91908080602002602001604051908101604052809392919081815260200183836020028082843760009201919091525092955061278b945050505050565b348015610b0457600080fd5b506101e06004803603610140811015610b1c57600080fd5b506001600160a01b0381358116916020810135916040820135916060810135916080820135169060a08101359060c081013515159060ff60e082013516906101008101359061012001356127b8565b348015610b7757600080fd5b50610bcd6004803603610100811015610b8f57600080fd5b506001600160a01b038135811691602081013582169160408201359160608101359160808201359160a08101359160c0820135169060e001356128cc565b60408051938452602084019290925282820152519081900360600190f35b610bcd600480360360c0811015610c0157600080fd5b506001600160a01b0381358116916020810135916040820135916060810135916080820135169060a00135612a08565b61028f60048036036080811015610c4757600080fd5b81359190810190604081016020820135600160201b811115610c6857600080fd5b820183602082011115610c7a57600080fd5b803590602001918460208302840111600160201b83111715610c9b57600080fd5b91935091506001600160a01b038135169060200135612cad565b6000808242811015610cfc576040805162461bcd60e51b81526020600482015260186024820152600080516020614790833981519152604482015290519081900360640190fd5b610d2b897f00000000000000000000000000000000000000000000000000000000000000008a8a8a308a6124f4565b9093509150610d3b89868561302f565b7f00000000000000000000000000000000000000000000000000000000000000006001600160a01b0316632e1a7d4d836040518263ffffffff1660e01b815260040180828152602001915050600060405180830381600087803b158015610da157600080fd5b505af1158015610db5573d6000803e3d6000fd5b50505050610dc38583613183565b50965096945050505050565b60608142811015610e15576040805162461bcd60e51b81526020600482015260186024820152600080516020614790833981519152604482015290519081900360640190fd5b6001600160a01b037f00000000000000000000000000000000000000000000000000000000000000001686866000198101818110610e4f57fe5b905060200201356001600160a01b03166001600160a01b031614610ea8576040805162461bcd60e51b815260206004820152601d60248201526000805160206146c7833981519152604482015290519081900360640190fd5b610f067f00000000000000000000000000000000000000000000000000000000000000008988888080602002602001604051908101604052809392919081815260200183836020028082843760009201919091525061327b92505050565b91508682600184510381518110610f1957fe5b60200260200101511015610f5e5760405162461bcd60e51b815260040180806020018281038252602b81526020018061470d602b913960400191505060405180910390fd5b610ffc86866000818110610f6e57fe5b905060200201356001600160a01b031633610fe27f00000000000000000000000000000000000000000000000000000000000000008a8a6000818110610fb057fe5b905060200201356001600160a01b03168b8b6001818110610fcd57fe5b905060200201356001600160a01b03166133dc565b85600081518110610fef57fe5b602002602001015161349c565b61103b828787808060200260200160405190810160405280939291908181526020018383602002808284376000920191909152503092506135f9915050565b7f00000000000000000000000000000000000000000000000000000000000000006001600160a01b0316632e1a7d4d8360018551038151811061107a57fe5b60200260200101516040518263ffffffff1660e01b815260040180828152602001915050600060405180830381600087803b1580156110b857600080fd5b505af11580156110cc573d6000803e3d6000fd5b505050506110f184836001855103815181106110e457fe5b6020026020010151613183565b509695505050505050565b60606111297f0000000000000000000000000000000000000000000000000000000000000000848461383f565b90505b92915050565b60008060006111627f00000000000000000000000000000000000000000000000000000000000000008f8f6133dc565b9050600087611171578c611175565b6000195b6040805163d505accf60e01b815233600482015230602482015260448101839052606481018c905260ff8a16608482015260a4810189905260c4810188905290519192506001600160a01b0384169163d505accf9160e48082019260009290919082900301818387803b1580156111eb57600080fd5b505af11580156111ff573d6000803e3d6000fd5b505050506112128f8f8f8f8f8f8f6124f4565b809450819550505050509b509b9950505050505050505050565b60608142811015611272576040805162461bcd60e51b81526020600482015260186024820152600080516020614790833981519152604482015290519081900360640190fd5b6112d07f00000000000000000000000000000000000000000000000000000000000000008988888080602002602001604051908101604052809392919081815260200183836020028082843760009201919091525061327b92505050565b915086826001845103815181106112e357fe5b602002602001015110156113285760405162461bcd60e51b815260040180806020018281038252602b81526020018061470d602b913960400191505060405180910390fd5b61133886866000818110610f6e57fe5b6110f1828787808060200260200160405190810160405280939291908181526020018383602002808284376000920191909152508992506135f9915050565b606081428110156113bd576040805162461bcd60e51b81526020600482015260186024820152600080516020614790833981519152604482015290519081900360640190fd5b6001600160a01b037f000000000000000000000000000000000000000000000000000000000000000016868660001981018181106113f757fe5b905060200201356001600160a01b03166001600160a01b031614611450576040805162461bcd60e51b815260206004820152601d60248201526000805160206146c7833981519152604482015290519081900360640190fd5b6114ae7f00000000000000000000000000000000000000000000000000000000000000008988888080602002602001604051908101604052809392919081815260200183836020028082843760009201919091525061383f92505050565b915086826000815181106114be57fe5b60200260200101511115610f5e5760405162461bcd60e51b81526004018080602001828103825260278152602001806146a06027913960400191505060405180910390fd5b6000806115517f00000000000000000000000000000000000000000000000000000000000000008d7f00000000000000000000000000000000000000000000000000000000000000006133dc565b9050600086611560578b611564565b6000195b6040805163d505accf60e01b815233600482015230602482015260448101839052606481018b905260ff8916608482015260a4810188905260c4810187905290519192506001600160a01b0384169163d505accf9160e48082019260009290919082900301818387803b1580156115da57600080fd5b505af11580156115ee573d6000803e3d6000fd5b505050506116008d8d8d8d8d8d611fe7565b9d9c50505050505050505050505050565b8042811015611655576040805162461bcd60e51b81526020600482015260186024820152600080516020614790833981519152604482015290519081900360640190fd5b6116ca8585600081811061166557fe5b905060200201356001600160a01b0316336116c47f0000000000000000000000000000000000000000000000000000000000000000898960008181106116a757fe5b905060200201356001600160a01b03168a8a6001818110610fcd57fe5b8a61349c565b6000858560001981018181106116dc57fe5b905060200201356001600160a01b03166001600160a01b03166370a08231856040518263ffffffff1660e01b815260040180826001600160a01b03166001600160a01b0316815260200191505060206040518083038186803b15801561174157600080fd5b505afa158015611755573d6000803e3d6000fd5b505050506040513d602081101561176b57600080fd5b505160408051602088810282810182019093528882529293506117ad92909189918991829185019084908082843760009201919091525088925061398c915050565b8661185f82888860001981018181106117c257fe5b905060200201356001600160a01b03166001600160a01b03166370a08231886040518263ffffffff1660e01b815260040180826001600160a01b03166001600160a01b0316815260200191505060206040518083038186803b15801561182757600080fd5b505afa15801561183b573d6000803e3d6000fd5b505050506040513d602081101561185157600080fd5b50519063ffffffff613cb916565b101561189c5760405162461bcd60e51b815260040180806020018281038252602b81526020018061470d602b913960400191505060405180910390fd5b5050505050505050565b80428110156118ea576040805162461bcd60e51b81526020600482015260186024820152600080516020614790833981519152604482015290519081900360640190fd5b6001600160a01b037f0000000000000000000000000000000000000000000000000000000000000000168585600019810181811061192457fe5b905060200201356001600160a01b03166001600160a01b03161461197d576040805162461bcd60e51b815260206004820152601d60248201526000805160206146c7833981519152604482015290519081900360640190fd5b61198d8585600081811061166557fe5b6119cb85858080602002602001604051908101604052809392919081815260200183836020028082843760009201919091525030925061398c915050565b604080516370a0823160e01b815230600482015290516000916001600160a01b037f000000000000000000000000000000000000000000000000000000000000000016916370a0823191602480820192602092909190829003018186803b158015611a3557600080fd5b505afa158015611a49573d6000803e3d6000fd5b505050506040513d6020811015611a5f57600080fd5b5051905086811015611aa25760405162461bcd60e51b815260040180806020018281038252602b81526020018061470d602b913960400191505060405180910390fd5b7f00000000000000000000000000000000000000000000000000000000000000006001600160a01b0316632e1a7d4d826040518263ffffffff1660e01b815260040180828152602001915050600060405180830381600087803b158015611b0857600080fd5b505af1158015611b1c573d6000803e3d6000fd5b5050505061189c8482613183565b60608142811015611b70576040805162461bcd60e51b81526020600482015260186024820152600080516020614790833981519152604482015290519081900360640190fd5b7f00000000000000000000000000000000000000000000000000000000000000006001600160a01b031686866000818110611ba757fe5b905060200201356001600160a01b03166001600160a01b031614611c00576040805162461bcd60e51b815260206004820152601d60248201526000805160206146c7833981519152604482015290519081900360640190fd5b611c5e7f00000000000000000000000000000000000000000000000000000000000000003488888080602002602001604051908101604052809392919081815260200183836020028082843760009201919091525061327b92505050565b91508682600184510381518110611c7157fe5b60200260200101511015611cb65760405162461bcd60e51b815260040180806020018281038252602b81526020018061470d602b913960400191505060405180910390fd5b7f00000000000000000000000000000000000000000000000000000000000000006001600160a01b031663d0e30db083600081518110611cf257fe5b60200260200101516040518263ffffffff1660e01b81526004016000604051808303818588803b158015611d2557600080fd5b505af1158015611d39573d6000803e3d6000fd5b50505050507f00000000000000000000000000000000000000000000000000000000000000006001600160a01b031663a9059cbb611d9e7f0000000000000000000000000000000000000000000000000000000000000000898960008181106116a757fe5b84600081518110611dab57fe5b60200260200101516040518363ffffffff1660e01b815260040180836001600160a01b03166001600160a01b0316815260200182815260200192505050602060405180830381600087803b158015611e0257600080fd5b505af1158015611e16573d6000803e3d6000fd5b505050506040513d6020811015611e2c57600080fd5b5051611e3457fe5b611e73828787808060200260200160405190810160405280939291908181526020018383602002808284376000920191909152508992506135f9915050565b5095945050505050565b60608142811015611ec3576040805162461bcd60e51b81526020600482015260186024820152600080516020614790833981519152604482015290519081900360640190fd5b611f217f00000000000000000000000000000000000000000000000000000000000000008988888080602002602001604051908101604052809392919081815260200183836020028082843760009201919091525061383f92505050565b91508682600081518110611f3157fe5b602002602001015111156113285760405162461bcd60e51b81526004018080602001828103825260278152602001806146a06027913960400191505060405180910390fd5b6000611fa57f000000000000000000000000000000000000000000000000000000000000000086868686613d09565b95945050505050565b7f000000000000000000000000000000000000000000000000000000000000000081565b6000611fdf848484613e84565b949350505050565b6000814281101561202d576040805162461bcd60e51b81526020600482015260186024820152600080516020614790833981519152604482015290519081900360640190fd5b61205c887f000000000000000000000000000000000000000000000000000000000000000089898930896124f4565b604080516370a0823160e01b815230600482015290519194506120e092508a9187916001600160a01b038416916370a0823191602480820192602092909190829003018186803b1580156120af57600080fd5b505afa1580156120c3573d6000803e3d6000fd5b505050506040513d60208110156120d957600080fd5b505161302f565b7f00000000000000000000000000000000000000000000000000000000000000006001600160a01b0316632e1a7d4d836040518263ffffffff1660e01b815260040180828152602001915050600060405180830381600087803b15801561214657600080fd5b505af115801561215a573d6000803e3d6000fd5b505050506110f18483613183565b80428110156121ac576040805162461bcd60e51b81526020600482015260186024820152600080516020614790833981519152604482015290519081900360640190fd5b7f00000000000000000000000000000000000000000000000000000000000000006001600160a01b0316858560008181106121e357fe5b905060200201356001600160a01b03166001600160a01b03161461223c576040805162461bcd60e51b815260206004820152601d60248201526000805160206146c7833981519152604482015290519081900360640190fd5b60003490507f00000000000000000000000000000000000000000000000000000000000000006001600160a01b031663d0e30db0826040518263ffffffff1660e01b81526004016000604051808303818588803b15801561229c57600080fd5b505af11580156122b0573d6000803e3d6000fd5b50505050507f00000000000000000000000000000000000000000000000000000000000000006001600160a01b031663a9059cbb6123157f0000000000000000000000000000000000000000000000000000000000000000898960008181106116a757fe5b836040518363ffffffff1660e01b815260040180836001600160a01b03166001600160a01b0316815260200182815260200192505050602060405180830381600087803b15801561236557600080fd5b505af1158015612379573d6000803e3d6000fd5b505050506040513d602081101561238f57600080fd5b505161239757fe5b6000868660001981018181106123a957fe5b905060200201356001600160a01b03166001600160a01b03166370a08231866040518263ffffffff1660e01b815260040180826001600160a01b03166001600160a01b0316815260200191505060206040518083038186803b15801561240e57600080fd5b505afa158015612422573d6000803e3d6000fd5b505050506040513d602081101561243857600080fd5b5051604080516020898102828101820190935289825292935061247a9290918a918a91829185019084908082843760009201919091525089925061398c915050565b8761185f828989600019810181811061248f57fe5b905060200201356001600160a01b03166001600160a01b03166370a08231896040518263ffffffff1660e01b815260040180826001600160a01b03166001600160a01b0316815260200191505060206040518083038186803b15801561182757600080fd5b600080824281101561253b576040805162461bcd60e51b81526020600482015260186024820152600080516020614790833981519152604482015290519081900360640190fd5b60006125687f00000000000000000000000000000000000000000000000000000000000000008c8c6133dc565b604080516323b872dd60e01b81523360048201526001600160a01b03831660248201819052604482018d9052915192935090916323b872dd916064808201926020929091908290030181600087803b1580156125c357600080fd5b505af11580156125d7573d6000803e3d6000fd5b505050506040513d60208110156125ed57600080fd5b50506040805163226bf2d160e21b81526001600160a01b03888116600483015282516000938493928616926389afcb44926024808301939282900301818787803b15801561263a57600080fd5b505af115801561264e573d6000803e3d6000fd5b505050506040513d604081101561266457600080fd5b5080516020909101519092509050600061267e8e8e613f30565b509050806001600160a01b03168e6001600160a01b0316146126a15781836126a4565b82825b90975095508a8710156126e85760405162461bcd60e51b81526004018080602001828103825260268152602001806146e76026913960400191505060405180910390fd5b898610156127275760405162461bcd60e51b815260040180806020018281038252602681526020018061462d6026913960400191505060405180910390fd5b505050505097509795505050505050565b7f000000000000000000000000000000000000000000000000000000000000000081565b6000611fa57f00000000000000000000000000000000000000000000000000000000000000008686868661400e565b60606111297f0000000000000000000000000000000000000000000000000000000000000000848461327b565b60008060006128087f00000000000000000000000000000000000000000000000000000000000000008e7f00000000000000000000000000000000000000000000000000000000000000006133dc565b9050600087612817578c61281b565b6000195b6040805163d505accf60e01b815233600482015230602482015260448101839052606481018c905260ff8a16608482015260a4810189905260c4810188905290519192506001600160a01b0384169163d505accf9160e48082019260009290919082900301818387803b15801561289157600080fd5b505af11580156128a5573d6000803e3d6000fd5b505050506128b78e8e8e8e8e8e610cb5565b909f909e509c50505050505050505050505050565b60008060008342811015612915576040805162461bcd60e51b81526020600482015260186024820152600080516020614790833981519152604482015290519081900360640190fd5b6129238c8c8c8c8c8c614189565b909450925060006129557f00000000000000000000000000000000000000000000000000000000000000008e8e6133dc565b90506129638d33838861349c565b61296f8c33838761349c565b806001600160a01b0316636a627842886040518263ffffffff1660e01b815260040180826001600160a01b03166001600160a01b03168152602001915050602060405180830381600087803b1580156129c757600080fd5b505af11580156129db573d6000803e3d6000fd5b505050506040513d60208110156129f157600080fd5b5051949d939c50939a509198505050505050505050565b60008060008342811015612a51576040805162461bcd60e51b81526020600482015260186024820152600080516020614790833981519152604482015290519081900360640190fd5b612a7f8a7f00000000000000000000000000000000000000000000000000000000000000008b348c8c614189565b90945092506000612ad17f00000000000000000000000000000000000000000000000000000000000000008c7f00000000000000000000000000000000000000000000000000000000000000006133dc565b9050612adf8b33838861349c565b7f00000000000000000000000000000000000000000000000000000000000000006001600160a01b031663d0e30db0856040518263ffffffff1660e01b81526004016000604051808303818588803b158015612b3a57600080fd5b505af1158015612b4e573d6000803e3d6000fd5b50505050507f00000000000000000000000000000000000000000000000000000000000000006001600160a01b031663a9059cbb82866040518363ffffffff1660e01b815260040180836001600160a01b03166001600160a01b0316815260200182815260200192505050602060405180830381600087803b158015612bd357600080fd5b505af1158015612be7573d6000803e3d6000fd5b505050506040513d6020811015612bfd57600080fd5b5051612c0557fe5b806001600160a01b0316636a627842886040518263ffffffff1660e01b815260040180826001600160a01b03166001600160a01b03168152602001915050602060405180830381600087803b158015612c5d57600080fd5b505af1158015612c71573d6000803e3d6000fd5b505050506040513d6020811015612c8757600080fd5b5051925034841015612c9f57612c9f33853403613183565b505096509650969350505050565b60608142811015612cf3576040805162461bcd60e51b81526020600482015260186024820152600080516020614790833981519152604482015290519081900360640190fd5b7f00000000000000000000000000000000000000000000000000000000000000006001600160a01b031686866000818110612d2a57fe5b905060200201356001600160a01b03166001600160a01b031614612d83576040805162461bcd60e51b815260206004820152601d60248201526000805160206146c7833981519152604482015290519081900360640190fd5b612de17f00000000000000000000000000000000000000000000000000000000000000008888888080602002602001604051908101604052809392919081815260200183836020028082843760009201919091525061383f92505050565b91503482600081518110612df157fe5b60200260200101511115612e365760405162461bcd60e51b81526004018080602001828103825260278152602001806146a06027913960400191505060405180910390fd5b7f00000000000000000000000000000000000000000000000000000000000000006001600160a01b031663d0e30db083600081518110612e7257fe5b60200260200101516040518263ffffffff1660e01b81526004016000604051808303818588803b158015612ea557600080fd5b505af1158015612eb9573d6000803e3d6000fd5b50505050507f00000000000000000000000000000000000000000000000000000000000000006001600160a01b031663a9059cbb612f1e7f0000000000000000000000000000000000000000000000000000000000000000898960008181106116a757fe5b84600081518110612f2b57fe5b60200260200101516040518363ffffffff1660e01b815260040180836001600160a01b03166001600160a01b0316815260200182815260200192505050602060405180830381600087803b158015612f8257600080fd5b505af1158015612f96573d6000803e3d6000fd5b505050506040513d6020811015612fac57600080fd5b5051612fb457fe5b612ff3828787808060200260200160405190810160405280939291908181526020018383602002808284376000920191909152508992506135f9915050565b8160008151811061300057fe5b6020026020010151341115611e7357611e73338360008151811061302057fe5b60200260200101513403613183565b604080516001600160a01b038481166024830152604480830185905283518084039091018152606490920183526020820180516001600160e01b031663a9059cbb60e01b178152925182516000946060949389169392918291908083835b602083106130ac5780518252601f19909201916020918201910161308d565b6001836020036101000a0380198251168184511680821785525050505050509050019150506000604051808303816000865af19150503d806000811461310e576040519150601f19603f3d011682016040523d82523d6000602084013e613113565b606091505b5091509150818015613141575080511580613141575080806020019051602081101561313e57600080fd5b50515b61317c5760405162461bcd60e51b815260040180806020018281038252602d815260200180614738602d913960400191505060405180910390fd5b5050505050565b604080516000808252602082019092526001600160a01b0384169083906040518082805190602001908083835b602083106131cf5780518252601f1990920191602091820191016131b0565b6001836020036101000a03801982511681845116808217855250505050505090500191505060006040518083038185875af1925050503d8060008114613231576040519150601f19603f3d011682016040523d82523d6000602084013e613236565b606091505b50509050806132765760405162461bcd60e51b81526004018080602001828103825260348152602001806145d46034913960400191505060405180910390fd5b505050565b60606002825110156132d4576040805162461bcd60e51b815260206004820152601e60248201527f556e697377617056324c6962726172793a20494e56414c49445f504154480000604482015290519081900360640190fd5b815167ffffffffffffffff811180156132ec57600080fd5b50604051908082528060200260200182016040528015613316578160200160208202803683370190505b509050828160008151811061332757fe5b60200260200101818152505060005b60018351038110156133d4576000806133798786858151811061335557fe5b602002602001015187866001018151811061336c57fe5b60200260200101516143fd565b915091506133b08785858151811061338d57fe5b602002602001015184848988815181106133a357fe5b602002602001015161400e565b8484600101815181106133bf57fe5b60209081029190910101525050600101613336565b509392505050565b60008060006133eb8585613f30565b604080516bffffffffffffffffffffffff19606094851b811660208084019190915293851b81166034830152825160288184030181526048830184528051908501206001600160f81b031960688401529a90941b9093166069840152607d8301989098527f57cf36086932d62d26c562d18d87afe373f166c06011dc35be0783e29c6eb4eb609d808401919091528851808403909101815260bd909201909752805196019590952095945050505050565b604080516001600160a01b0385811660248301528481166044830152606480830185905283518084039091018152608490920183526020820180516001600160e01b03166323b872dd60e01b17815292518251600094606094938a169392918291908083835b602083106135215780518252601f199092019160209182019101613502565b6001836020036101000a0380198251168184511680821785525050505050509050019150506000604051808303816000865af19150503d8060008114613583576040519150601f19603f3d011682016040523d82523d6000602084013e613588565b606091505b50915091508180156135b65750805115806135b657508080602001905160208110156135b357600080fd5b50515b6135f15760405162461bcd60e51b81526004018080602001828103825260318152602001806145a36031913960400191505060405180910390fd5b505050505050565b60005b60018351038110156138395760008084838151811061361757fe5b602002602001015185846001018151811061362e57fe5b60200260200101519150915060006136468383613f30565b509050600087856001018151811061365a57fe5b60200260200101519050600080836001600160a01b0316866001600160a01b0316146136885782600061368c565b6000835b91509150600060028a510388106136a357886136e4565b6136e47f0000000000000000000000000000000000000000000000000000000000000000878c8b600201815181106136d757fe5b60200260200101516133dc565b90506137117f000000000000000000000000000000000000000000000000000000000000000088886133dc565b6001600160a01b031663022c0d9f84848460006040519080825280601f01601f19166020018201604052801561374e576020820181803683370190505b506040518563ffffffff1660e01b815260040180858152602001848152602001836001600160a01b03166001600160a01b0316815260200180602001828103825283818151815260200191508051906020019080838360005b838110156137bf5781810151838201526020016137a7565b50505050905090810190601f1680156137ec5780820380516001836020036101000a031916815260200191505b5095505050505050600060405180830381600087803b15801561380e57600080fd5b505af1158015613822573d6000803e3d6000fd5b5050600190990198506135fc975050505050505050565b50505050565b6060600282511015613898576040805162461bcd60e51b815260206004820152601e60248201527f556e697377617056324c6962726172793a20494e56414c49445f504154480000604482015290519081900360640190fd5b815167ffffffffffffffff811180156138b057600080fd5b506040519080825280602002602001820160405280156138da578160200160208202803683370190505b50905082816001835103815181106138ee57fe5b60209081029190910101528151600019015b80156133d4576000806139308786600186038151811061391c57fe5b602002602001015187868151811061336c57fe5b915091506139678785858151811061394457fe5b6020026020010151848489888151811061395a57fe5b6020026020010151613d09565b84600185038151811061397657fe5b6020908102919091010152505060001901613900565b60005b6001835103811015613276576000808483815181106139aa57fe5b60200260200101518584600101815181106139c157fe5b60200260200101519150915060006139d98383613f30565b5090506000613a097f000000000000000000000000000000000000000000000000000000000000000085856133dc565b9050600080600080846001600160a01b0316630902f1ac6040518163ffffffff1660e01b815260040160606040518083038186803b158015613a4a57600080fd5b505afa158015613a5e573d6000803e3d6000fd5b505050506040513d6060811015613a7457600080fd5b5080516020909101516001600160701b0391821693501690506000806001600160a01b038a811690891614613aaa578284613aad565b83835b91509150613b0b828b6001600160a01b03166370a082318a6040518263ffffffff1660e01b815260040180826001600160a01b03166001600160a01b0316815260200191505060206040518083038186803b15801561182757600080fd5b9550613b3a7f00000000000000000000000000000000000000000000000000000000000000008784848b61400e565b945050505050600080856001600160a01b0316886001600160a01b031614613b6457826000613b68565b6000835b91509150600060028c51038a10613b7f578a613bb3565b613bb37f0000000000000000000000000000000000000000000000000000000000000000898e8d600201815181106136d757fe5b604080516000808252602082019283905263022c0d9f60e01b835260248201878152604483018790526001600160a01b038086166064850152608060848501908152845160a48601819052969750908c169563022c0d9f958a958a958a9591949193919260c486019290918190849084905b83811015613c3d578181015183820152602001613c25565b50505050905090810190601f168015613c6a5780820380516001836020036101000a031916815260200191505b5095505050505050600060405180830381600087803b158015613c8c57600080fd5b505af1158015613ca0573d6000803e3d6000fd5b50506001909b019a5061398f9950505050505050505050565b8082038281111561112c576040805162461bcd60e51b815260206004820152601560248201527464732d6d6174682d7375622d756e646572666c6f7760581b604482015290519081900360640190fd5b6000808511613d495760405162461bcd60e51b815260040180806020018281038252602c815260200180614577602c913960400191505060405180910390fd5b600084118015613d595750600083115b613d945760405162461bcd60e51b81526004018080602001828103825260288152602001806146536028913960400191505060405180910390fd5b6000613db86103e8613dac878963ffffffff6144c416565b9063ffffffff6144c416565b90506000876001600160a01b031663a6ae80e2856040518263ffffffff1660e01b815260040180826001600160a01b03166001600160a01b0316815260200191505060206040518083038186803b158015613e1257600080fd5b505afa158015613e26573d6000803e3d6000fd5b505050506040513d6020811015613e3c57600080fd5b50516103e80390506000613e5a82613dac888b63ffffffff613cb916565b9050613e776001828581613e6a57fe5b049063ffffffff61452716565b9998505050505050505050565b6000808411613ec45760405162461bcd60e51b815260040180806020018281038252602581526020018061467b6025913960400191505060405180910390fd5b600083118015613ed45750600082115b613f0f5760405162461bcd60e51b81526004018080602001828103825260288152602001806146536028913960400191505060405180910390fd5b82613f20858463ffffffff6144c416565b81613f2757fe5b04949350505050565b600080826001600160a01b0316846001600160a01b03161415613f845760405162461bcd60e51b81526004018080602001828103825260258152602001806146086025913960400191505060405180910390fd5b826001600160a01b0316846001600160a01b031610613fa4578284613fa7565b83835b90925090506001600160a01b038216614007576040805162461bcd60e51b815260206004820152601e60248201527f556e697377617056324c6962726172793a205a45524f5f414444524553530000604482015290519081900360640190fd5b9250929050565b600080851161404e5760405162461bcd60e51b815260040180806020018281038252602b815260200180614765602b913960400191505060405180910390fd5b60008411801561405e5750600083115b6140995760405162461bcd60e51b81526004018080602001828103825260288152602001806146536028913960400191505060405180910390fd5b6000866001600160a01b031663a6ae80e2846040518263ffffffff1660e01b815260040180826001600160a01b03166001600160a01b0316815260200191505060206040518083038186803b1580156140f157600080fd5b505afa158015614105573d6000803e3d6000fd5b505050506040513d602081101561411b57600080fd5b50516103e80390506000614135878363ffffffff6144c416565b90506000614149828763ffffffff6144c416565b9050600061416f836141638a6103e863ffffffff6144c416565b9063ffffffff61452716565b905080828161417a57fe5b049a9950505050505050505050565b6040805163e6a4390560e01b81526001600160a01b03888116600483015287811660248301529151600092839283927f00000000000000000000000000000000000000000000000000000000000000009092169163e6a4390591604480820192602092909190829003018186803b15801561420357600080fd5b505afa158015614217573d6000803e3d6000fd5b505050506040513d602081101561422d57600080fd5b50516001600160a01b031614156142e057604080516364e329cb60e11b81526001600160a01b038a81166004830152898116602483015291517f00000000000000000000000000000000000000000000000000000000000000009092169163c9c65396916044808201926020929091908290030181600087803b1580156142b357600080fd5b505af11580156142c7573d6000803e3d6000fd5b505050506040513d60208110156142dd57600080fd5b50505b60008061430e7f00000000000000000000000000000000000000000000000000000000000000008b8b6143fd565b91509150816000148015614320575080155b15614330578793508692506143f0565b600061433d898484613e84565b905087811161439057858110156143855760405162461bcd60e51b815260040180806020018281038252602681526020018061462d6026913960400191505060405180910390fd5b8894509250826143ee565b600061439d898486613e84565b9050898111156143a957fe5b878110156143e85760405162461bcd60e51b81526004018080602001828103825260268152602001806146e76026913960400191505060405180910390fd5b94508793505b505b5050965096945050505050565b600080600061440c8585613f30565b50905060008061441d8888886133dc565b6001600160a01b0316630902f1ac6040518163ffffffff1660e01b815260040160606040518083038186803b15801561445557600080fd5b505afa158015614469573d6000803e3d6000fd5b505050506040513d606081101561447f57600080fd5b5080516020909101516001600160701b0391821693501690506001600160a01b03878116908416146144b25780826144b5565b81815b90999098509650505050505050565b60008115806144df575050808202828282816144dc57fe5b04145b61112c576040805162461bcd60e51b815260206004820152601460248201527364732d6d6174682d6d756c2d6f766572666c6f7760601b604482015290519081900360640190fd5b8082018281101561112c576040805162461bcd60e51b815260206004820152601460248201527364732d6d6174682d6164642d6f766572666c6f7760601b604482015290519081900360640190fdfe556e697377617056324c6962726172793a20494e53554646494349454e545f4f55545055545f414d4f554e545472616e7366657248656c7065723a3a7472616e7366657246726f6d3a207472616e7366657246726f6d206661696c65645472616e7366657248656c7065723a3a736166655472616e736665724554483a20455448207472616e73666572206661696c6564556e697377617056324c6962726172793a204944454e544943414c5f414444524553534553556e69737761705632526f757465723a20494e53554646494349454e545f425f414d4f554e54556e697377617056324c6962726172793a20494e53554646494349454e545f4c4951554944495459556e697377617056324c6962726172793a20494e53554646494349454e545f414d4f554e54556e69737761705632526f757465723a204558434553534956455f494e5055545f414d4f554e54556e69737761705632526f757465723a20494e56414c49445f50415448000000556e69737761705632526f757465723a20494e53554646494349454e545f415f414d4f554e54556e69737761705632526f757465723a20494e53554646494349454e545f4f55545055545f414d4f554e545472616e7366657248656c7065723a3a736166655472616e736665723a207472616e73666572206661696c6564556e697377617056324c6962726172793a20494e53554646494349454e545f494e5055545f414d4f554e54556e69737761705632526f757465723a20455850495245440000000000000000a264697066735822122056d61345d0eb3f6c2fd7cd17a573a3fa1b61ea680dc95c30f71472fe4307a42664736f6c63430006060033",
  "linkReferences": {},
  "deployedLinkReferences": {}
}