{"contracts/UniswapV2Router.sol":{"UniswapV2Router02":{"abi":[{"inputs":[{"internalType":"address","name":"_factory","type":"address"},{"internalType":"address","name":"_WETH","type":"address"}],"stateMutability":"nonpayable","type":"constructor"},{"inputs":[],"name":"WETH","outputs":[{"internalType":"address","name":"","type":"address"}],"stateMutability":"view","type":"function"},{"inputs":[{"internalType":"address","name":"tokenA","type":"address"},{"internalType":"address","name":"tokenB","type":"address"},{"internalType":"uint256","name":"amountADesired","type":"uint256"},{"internalType":"uint256","name":"amountBDesired","type":"uint256"},{"internalType":"uint256","name":"amountAMin","type":"uint256"},{"internalType":"uint256","name":"amountBMin","type":"uint256"},{"internalType":"address","name":"to","type":"address"},{"internalType":"uint256","name":"deadline","type":"uint256"}],"name":"addLiquidity","outputs":[{"internalType":"uint256","name":"amountA","type":"uint256"},{"internalType":"uint256","name":"amountB","type":"uint256"},{"internalType":"uint256","name":"liquidity","type":"uint256"}],"stateMutability":"nonpayable","type":"function"},{"inputs":[{"internalType":"address","name":"token","type":"address"},{"internalType":"uint256","name":"amountTokenDesired","type":"uint256"},{"internalType":"uint256","name":"amountTokenMin","type":"uint256"},{"internalType":"uint256","name":"amountETHMin","type":"uint256"},{"internalType":"address","name":"to","type":"address"},{"internalType":"uint256","name":"deadline","type":"uint256"}],"name":"addLiquidityETH","outputs":[{"internalType":"uint256","name":"amountToken","type":"uint256"},{"internalType":"uint256","name":"amountETH","type":"uint256"},{"internalType":"uint256","name":"liquidity","type":"uint256"}],"stateMutability":"payable","type":"function"},{"inputs":[],"name":"factory","outputs":[{"internalType":"address","name":"","type":"address"}],"stateMutability":"view","type":"function"},{"inputs":[{"internalType":"uint256","name":"amountOut","type":"uint256"},{"internalType":"uint256","name":"reserveIn","type":"uint256"},{"internalType":"uint256","name":"reserveOut","type":"uint256"},{"internalType":"address","name":"pair","type":"address"}],"name":"getAmountIn","outputs":[{"internalType":"uint256","name":"amountIn","type":"uint256"}],"stateMutability":"view","type":"function"},{"inputs":[{"internalType":"uint256","name":"amountIn","type":"uint256"},{"internalType":"uint256","name":"reserveIn","type":"uint256"},{"internalType":"uint256","name":"reserveOut","type":"uint256"},{"internalType":"address","name":"pair","type":"address"}],"name":"getAmountOut","outputs":[{"internalType":"uint256","name":"amountOut","type":"uint256"}],"stateMutability":"view","type":"function"},{"inputs":[{"internalType":"uint256","name":"amountOut","type":"uint256"},{"internalType":"address[]","name":"path","type":"address[]"}],"name":"getAmountsIn","outputs":[{"internalType":"uint256[]","name":"amounts","type":"uint256[]"}],"stateMutability":"view","type":"function"},{"inputs":[{"internalType":"uint256","name":"amountIn","type":"uint256"},{"internalType":"address[]","name":"path","type":"address[]"}],"name":"getAmountsOut","outputs":[{"internalType":"uint256[]","name":"amounts","type":"uint256[]"}],"stateMutability":"view","type":"function"},{"inputs":[{"internalType":"uint256","name":"amountA","type":"uint256"},{"internalType":"uint256","name":"reserveA","type":"uint256"},{"internalType":"uint256","name":"reserveB","type":"uint256"}],"name":"quote","outputs":[{"internalType":"uint256","name":"amountB","type":"uint256"}],"stateMutability":"pure","type":"function"},{"inputs":[{"internalType":"address","name":"tokenA","type":"address"},{"internalType":"address","name":"tokenB","type":"address"},{"internalType":"uint256","name":"liquidity","type":"uint256"},{"internalType":"uint256","name":"amountAMin","type":"uint256"},{"internalType":"uint256","name":"amountBMin","type":"uint256"},{"internalType":"address","name":"to","type":"address"},{"internalType":"uint256","name":"deadline","type":"uint256"}],"name":"removeLiquidity","outputs":[{"internalType":"uint256","name":"amountA","type":"uint256"},{"internalType":"uint256","name":"amountB","type":"uint256"}],"stateMutability":"nonpayable","type":"function"},{"inputs":[{"internalType":"address","name":"token","type":"address"},{"internalType":"uint256","name":"liquidity","type":"uint256"},{"internalType":"uint256","name":"amountTokenMin","type":"uint256"},{"internalType":"uint256","name":"amountETHMin","type":"uint256"},{"internalType":"address","name":"to","type":"address"},{"internalType":"uint256","name":"deadline","type":"uint256"}],"name":"removeLiquidityETH","outputs":[{"internalType":"uint256","name":"amountToken","type":"uint256"},{"internalType":"uint256","name":"amountETH","type":"uint256"}],"stateMutability":"nonpayable","type":"function"},{"inputs":[{"internalType":"address","name":"token","type":"address"},{"internalType":"uint256","name":"liquidity","type":"uint256"},{"internalType":"uint256","name":"amountTokenMin","type":"uint256"},{"internalType":"uint256","name":"amountETHMin","type":"uint256"},{"internalType":"address","name":"to","type":"address"},{"internalType":"uint256","name":"deadline","type":"uint256"}],"name":"removeLiquidityETHSupportingFeeOnTransferTokens","outputs":[{"internalType":"uint256","name":"amountETH","type":"uint256"}],"stateMutability":"nonpayable","type":"function"},{"inputs":[{"internalType":"address","name":"token","type":"address"},{"internalType":"uint256","name":"liquidity","type":"uint256"},{"internalType":"uint256","name":"amountTokenMin","type":"uint256"},{"internalType":"uint256","name":"amountETHMin","type":"uint256"},{"internalType":"address","name":"to","type":"address"},{"internalType":"uint256","name":"deadline","type":"uint256"},{"internalType":"bool","name":"approveMax","type":"bool"},{"internalType":"uint8","name":"v","type":"uint8"},{"internalType":"bytes32","name":"r","type":"bytes32"},{"internalType":"bytes32","name":"s","type":"bytes32"}],"name":"removeLiquidityETHWithPermit","outputs":[{"internalType":"uint256","name":"amountToken","type":"uint256"},{"internalType":"uint256","name":"amountETH","type":"uint256"}],"stateMutability":"nonpayable","type":"function"},{"inputs":[{"internalType":"address","name":"token","type":"address"},{"internalType":"uint256","name":"liquidity","type":"uint256"},{"internalType":"uint256","name":"amountTokenMin","type":"uint256"},{"internalType":"uint256","name":"amountETHMin","type":"uint256"},{"internalType":"address","name":"to","type":"address"},{"internalType":"uint256","name":"deadline","type":"uint256"},{"internalType":"bool","name":"approveMax","type":"bool"},{"internalType":"uint8","name":"v","type":"uint8"},{"internalType":"bytes32","name":"r","type":"bytes32"},{"internalType":"bytes32","name":"s","type":"bytes32"}],"name":"removeLiquidityETHWithPermitSupportingFeeOnTransferTokens","outputs":[{"internalType":"uint256","name":"amountETH","type":"uint256"}],"stateMutability":"nonpayable","type":"function"},{"inputs":[{"internalType":"address","name":"tokenA","type":"address"},{"internalType":"address","name":"tokenB","type":"address"},{"internalType":"uint256","name":"liquidity","type":"uint256"},{"internalType":"uint256","name":"amountAMin","type":"uint256"},{"internalType":"uint256","name":"amountBMin","type":"uint256"},{"internalType":"address","name":"to","type":"address"},{"internalType":"uint256","name":"deadline","type":"uint256"},{"internalType":"bool","name":"approveMax","type":"bool"},{"internalType":"uint8","name":"v","type":"uint8"},{"internalType":"bytes32","name":"r","type":"bytes32"},{"internalType":"bytes32","name":"s","type":"bytes32"}],"name":"removeLiquidityWithPermit","outputs":[{"internalType":"uint256","name":"amountA","type":"uint256"},{"internalType":"uint256","name":"amountB","type":"uint256"}],"stateMutability":"nonpayable","type":"function"},{"inputs":[{"internalType":"uint256","name":"amountOut","type":"uint256"},{"internalType":"address[]","name":"path","type":"address[]"},{"internalType":"address","name":"to","type":"address"},{"internalType":"uint256","name":"deadline","type":"uint256"}],"name":"swapETHForExactTokens","outputs":[{"internalType":"uint256[]","name":"amounts","type":"uint256[]"}],"stateMutability":"payable","type":"function"},{"inputs":[{"internalType":"uint256","name":"amountOutMin","type":"uint256"},{"internalType":"address[]","name":"path","type":"address[]"},{"internalType":"address","name":"to","type":"address"},{"internalType":"uint256","name":"deadline","type":"uint256"}],"name":"swapExactETHForTokens","outputs":[{"internalType":"uint256[]","name":"amounts","type":"uint256[]"}],"stateMutability":"payable","type":"function"},{"inputs":[{"internalType":"uint256","name":"amountOutMin","type":"uint256"},{"internalType":"address[]","name":"path","type":"address[]"},{"internalType":"address","name":"to","type":"address"},{"internalType":"uint256","name":"deadline","type":"uint256"}],"name":"swapExactETHForTokensSupportingFeeOnTransferTokens","outputs":[],"stateMutability":"payable","type":"function"},{"inputs":[{"internalType":"uint256","name":"amountIn","type":"uint256"},{"internalType":"uint256","name":"amountOutMin","type":"uint256"},{"internalType":"address[]","name":"path","type":"address[]"},{"internalType":"address","name":"to","type":"address"},{"internalType":"uint256","name":"deadline","type":"uint256"}],"name":"swapExactTokensForETH","outputs":[{"internalType":"uint256[]","name":"amounts","type":"uint256[]"}],"stateMutability":"nonpayable","type":"function"},{"inputs":[{"internalType":"uint256","name":"amountIn","type":"uint256"},{"internalType":"uint256","name":"amountOutMin","type":"uint256"},{"internalType":"address[]","name":"path","type":"address[]"},{"internalType":"address","name":"to","type":"address"},{"internalType":"uint256","name":"deadline","type":"uint256"}],"name":"swapExactTokensForETHSupportingFeeOnTransferTokens","outputs":[],"stateMutability":"nonpayable","type":"function"},{"inputs":[{"internalType":"uint256","name":"amountIn","type":"uint256"},{"internalType":"uint256","name":"amountOutMin","type":"uint256"},{"internalType":"address[]","name":"path","type":"address[]"},{"internalType":"address","name":"to","type":"address"},{"internalType":"uint256","name":"deadline","type":"uint256"}],"name":"swapExactTokensForTokens","outputs":[{"internalType":"uint256[]","name":"amounts","type":"uint256[]"}],"stateMutability":"nonpayable","type":"function"},{"inputs":[{"internalType":"uint256","name":"amountIn","type":"uint256"},{"internalType":"uint256","name":"amountOutMin","type":"uint256"},{"internalType":"address[]","name":"path","type":"address[]"},{"internalType":"address","name":"to","type":"address"},{"internalType":"uint256","name":"deadline","type":"uint256"}],"name":"swapExactTokensForTokensSupportingFeeOnTransferTokens","outputs":[],"stateMutability":"nonpayable","type":"function"},{"inputs":[{"internalType":"uint256","name":"amountOut","type":"uint256"},{"internalType":"uint256","name":"amountInMax","type":"uint256"},{"internalType":"address[]","name":"path","type":"address[]"},{"internalType":"address","name":"to","type":"address"},{"internalType":"uint256","name":"deadline","type":"uint256"}],"name":"swapTokensForExactETH","outputs":[{"internalType":"uint256[]","name":"amounts","type":"uint256[]"}],"stateMutability":"nonpayable","type":"function"},{"inputs":[{"internalType":"uint256","name":"amountOut","type":"uint256"},{"internalType":"uint256","name":"amountInMax","type":"uint256"},{"internalType":"address[]","name":"path","type":"address[]"},{"internalType":"address","name":"to","type":"address"},{"internalType":"uint256","name":"deadline","type":"uint256"}],"name":"swapTokensForExactTokens","outputs":[{"internalType":"uint256[]","name":"amounts","type":"uint256[]"}],"stateMutability":"nonpayable","type":"function"},{"stateMutability":"payable","type":"receive"}],"evm":{"bytecode":{"linkReferences":{},"object":"60c060405234801561001057600080fd5b5060405162004979380380620049798339818101604052604081101561003557600080fd5b5080516020909101516001600160601b0319606092831b8116608052911b1660a05260805160601c60a05160601c6147e5620001946000398061015f5280610d025280610d3d5280610e1f528061103d52806113c7528061152d52806118f452806119ee5280611aa45280611b725280611cb85280611d405280611fb0528061203352806120e252806121ae528061224352806122b752806127e45280612a575280612aad5280612ae15280612b555280612cf55280612e385280612ec0525080610ead5280610f845280611103528061113c52806112775280611455528061150b528061167b5280611c055280611d725280611ec85280611f7d52806122e95280612542528061273a5280612763528061279252806127c2528061292f5280612a8b5280612d885280612ef252806136a852806136eb52806139e35280613b125280613b8452806141ba528061426852806142e852506147e56000f3fe60806040526004361061014f5760003560e01c8063ad5c4648116100b6578063caced41b1161006f578063caced41b146109fe578063d06ca61f14610a43578063ded9382a14610af8578063e8e3370014610b6b578063f305d71914610beb578063fb3bdb4114610c3157610188565b8063ad5c46481461084e578063ad615dec1461087f578063af2979eb146108b5578063b6f9de9514610908578063baa2abde1461098c578063c45a0155146109e957610188565b80635b0d5984116101085780635b0d59841461053e5780635c11d795146105c3578063791ac947146106595780637ff36ab5146106ef5780638803dbee146107735780639470dbea1461080957610188565b806302751cec1461018d57806318cbafe5146101f95780631f00ca74146102df5780632195995c1461039457806338ed1739146104125780634a25d94a146104a857610188565b3661018857336001600160a01b037f0000000000000000000000000000000000000000000000000000000000000000161461018657fe5b005b600080fd5b34801561019957600080fd5b506101e0600480360360c08110156101b057600080fd5b506001600160a01b0381358116916020810135916040820135916060810135916080820135169060a00135610cb5565b6040805192835260208301919091528051918290030190f35b34801561020557600080fd5b5061028f600480360360a081101561021c57600080fd5b813591602081013591810190606081016040820135600160201b81111561024257600080fd5b82018360208201111561025457600080fd5b803590602001918460208302840111600160201b8311171561027557600080fd5b91935091506001600160a01b038135169060200135610dcf565b60408051602080825283518183015283519192839290830191858101910280838360005b838110156102cb5781810151838201526020016102b3565b505050509050019250505060405180910390f35b3480156102eb57600080fd5b5061028f6004803603604081101561030257600080fd5b81359190810190604081016020820135600160201b81111561032357600080fd5b82018360208201111561033557600080fd5b803590602001918460208302840111600160201b8311171561035657600080fd5b9190808060200260200160405190810160405280939291908181526020018383602002808284376000920191909152509295506110fc945050505050565b3480156103a057600080fd5b506101e060048036036101608110156103b857600080fd5b506001600160a01b038135811691602081013582169160408201359160608101359160808201359160a08101359091169060c08101359060e081013515159060ff6101008201351690610120810135906101400135611132565b34801561041e57600080fd5b5061028f600480360360a081101561043557600080fd5b813591602081013591810190606081016040820135600160201b81111561045b57600080fd5b82018360208201111561046d57600080fd5b803590602001918460208302840111600160201b8311171561048e57600080fd5b91935091506001600160a01b03813516906020013561122c565b3480156104b457600080fd5b5061028f600480360360a08110156104cb57600080fd5b813591602081013591810190606081016040820135600160201b8111156104f157600080fd5b82018360208201111561050357600080fd5b803590602001918460208302840111600160201b8311171561052457600080fd5b91935091506001600160a01b038135169060200135611377565b34801561054a57600080fd5b506105b1600480360361014081101561056257600080fd5b506001600160a01b0381358116916020810135916040820135916060810135916080820135169060a08101359060c081013515159060ff60e08201351690610100810135906101200135611503565b60408051918252519081900360200190f35b3480156105cf57600080fd5b50610186600480360360a08110156105e657600080fd5b813591602081013591810190606081016040820135600160201b81111561060c57600080fd5b82018360208201111561061e57600080fd5b803590602001918460208302840111600160201b8311171561063f57600080fd5b91935091506001600160a01b038135169060200135611611565b34801561066557600080fd5b50610186600480360360a081101561067c57600080fd5b813591602081013591810190606081016040820135600160201b8111156106a257600080fd5b8201836020820111156106b457600080fd5b803590602001918460208302840111600160201b831117156106d557600080fd5b91935091506001600160a01b0381351690602001356118a6565b61028f6004803603608081101561070557600080fd5b81359190810190604081016020820135600160201b81111561072657600080fd5b82018360208201111561073857600080fd5b803590602001918460208302840111600160201b8311171561075957600080fd5b91935091506001600160a01b038135169060200135611b2a565b34801561077f57600080fd5b5061028f600480360360a081101561079657600080fd5b813591602081013591810190606081016040820135600160201b8111156107bc57600080fd5b8201836020820111156107ce57600080fd5b803590602001918460208302840111600160201b831117156107ef57600080fd5b91935091506001600160a01b038135169060200135611e7d565b34801561081557600080fd5b506105b16004803603608081101561082c57600080fd5b50803590602081013590604081013590606001356001600160a01b0316611f76565b34801561085a57600080fd5b50610863611fae565b604080516001600160a01b039092168252519081900360200190f35b34801561088b57600080fd5b506105b1600480360360608110156108a257600080fd5b5080359060208101359060400135611fd2565b3480156108c157600080fd5b506105b1600480360360c08110156108d857600080fd5b506001600160a01b0381358116916020810135916040820135916060810135916080820135169060a00135611fe7565b6101866004803603608081101561091e57600080fd5b81359190810190604081016020820135600160201b81111561093f57600080fd5b82018360208201111561095157600080fd5b803590602001918460208302840111600160201b8311171561097257600080fd5b91935091506001600160a01b038135169060200135612168565b34801561099857600080fd5b506101e0600480360360e08110156109af57600080fd5b506001600160a01b038135811691602081013582169160408201359160608101359160808201359160a08101359091169060c001356124f4565b3480156109f557600080fd5b50610863612738565b348015610a0a57600080fd5b506105b160048036036080811015610a2157600080fd5b50803590602081013590604081013590606001356001600160a01b031661275c565b348015610a4f57600080fd5b5061028f60048036036040811015610a6657600080fd5b81359190810190604081016020820135600160201b811115610a8757600080fd5b820183602082011115610a9957600080fd5b803590602001918460208302840111600160201b83111715610aba57600080fd5b91908080602002602001604051908101604052809392919081815260200183836020028082843760009201919091525092955061278b945050505050565b348015610b0457600080fd5b506101e06004803603610140811015610b1c57600080fd5b506001600160a01b0381358116916020810135916040820135916060810135916080820135169060a08101359060c081013515159060ff60e082013516906101008101359061012001356127b8565b348015610b7757600080fd5b50610bcd6004803603610100811015610b8f57600080fd5b506001600160a01b038135811691602081013582169160408201359160608101359160808201359160a08101359160c0820135169060e001356128cc565b60408051938452602084019290925282820152519081900360600190f35b610bcd600480360360c0811015610c0157600080fd5b506001600160a01b0381358116916020810135916040820135916060810135916080820135169060a00135612a08565b61028f60048036036080811015610c4757600080fd5b81359190810190604081016020820135600160201b811115610c6857600080fd5b820183602082011115610c7a57600080fd5b803590602001918460208302840111600160201b83111715610c9b57600080fd5b91935091506001600160a01b038135169060200135612cad565b6000808242811015610cfc576040805162461bcd60e51b81526020600482015260186024820152600080516020614790833981519152604482015290519081900360640190fd5b610d2b897f00000000000000000000000000000000000000000000000000000000000000008a8a8a308a6124f4565b9093509150610d3b89868561302f565b7f00000000000000000000000000000000000000000000000000000000000000006001600160a01b0316632e1a7d4d836040518263ffffffff1660e01b815260040180828152602001915050600060405180830381600087803b158015610da157600080fd5b505af1158015610db5573d6000803e3d6000fd5b50505050610dc38583613183565b50965096945050505050565b60608142811015610e15576040805162461bcd60e51b81526020600482015260186024820152600080516020614790833981519152604482015290519081900360640190fd5b6001600160a01b037f00000000000000000000000000000000000000000000000000000000000000001686866000198101818110610e4f57fe5b905060200201356001600160a01b03166001600160a01b031614610ea8576040805162461bcd60e51b815260206004820152601d60248201526000805160206146c7833981519152604482015290519081900360640190fd5b610f067f00000000000000000000000000000000000000000000000000000000000000008988888080602002602001604051908101604052809392919081815260200183836020028082843760009201919091525061327b92505050565b91508682600184510381518110610f1957fe5b60200260200101511015610f5e5760405162461bcd60e51b815260040180806020018281038252602b81526020018061470d602b913960400191505060405180910390fd5b610ffc86866000818110610f6e57fe5b905060200201356001600160a01b031633610fe27f00000000000000000000000000000000000000000000000000000000000000008a8a6000818110610fb057fe5b905060200201356001600160a01b03168b8b6001818110610fcd57fe5b905060200201356001600160a01b03166133dc565b85600081518110610fef57fe5b602002602001015161349c565b61103b828787808060200260200160405190810160405280939291908181526020018383602002808284376000920191909152503092506135f9915050565b7f00000000000000000000000000000000000000000000000000000000000000006001600160a01b0316632e1a7d4d8360018551038151811061107a57fe5b60200260200101516040518263ffffffff1660e01b815260040180828152602001915050600060405180830381600087803b1580156110b857600080fd5b505af11580156110cc573d6000803e3d6000fd5b505050506110f184836001855103815181106110e457fe5b6020026020010151613183565b509695505050505050565b60606111297f0000000000000000000000000000000000000000000000000000000000000000848461383f565b90505b92915050565b60008060006111627f00000000000000000000000000000000000000000000000000000000000000008f8f6133dc565b9050600087611171578c611175565b6000195b6040805163d505accf60e01b815233600482015230602482015260448101839052606481018c905260ff8a16608482015260a4810189905260c4810188905290519192506001600160a01b0384169163d505accf9160e48082019260009290919082900301818387803b1580156111eb57600080fd5b505af11580156111ff573d6000803e3d6000fd5b505050506112128f8f8f8f8f8f8f6124f4565b809450819550505050509b509b9950505050505050505050565b60608142811015611272576040805162461bcd60e51b81526020600482015260186024820152600080516020614790833981519152604482015290519081900360640190fd5b6112d07f00000000000000000000000000000000000000000000000000000000000000008988888080602002602001604051908101604052809392919081815260200183836020028082843760009201919091525061327b92505050565b915086826001845103815181106112e357fe5b602002602001015110156113285760405162461bcd60e51b815260040180806020018281038252602b81526020018061470d602b913960400191505060405180910390fd5b61133886866000818110610f6e57fe5b6110f1828787808060200260200160405190810160405280939291908181526020018383602002808284376000920191909152508992506135f9915050565b606081428110156113bd576040805162461bcd60e51b81526020600482015260186024820152600080516020614790833981519152604482015290519081900360640190fd5b6001600160a01b037f000000000000000000000000000000000000000000000000000000000000000016868660001981018181106113f757fe5b905060200201356001600160a01b03166001600160a01b031614611450576040805162461bcd60e51b815260206004820152601d60248201526000805160206146c7833981519152604482015290519081900360640190fd5b6114ae7f00000000000000000000000000000000000000000000000000000000000000008988888080602002602001604051908101604052809392919081815260200183836020028082843760009201919091525061383f92505050565b915086826000815181106114be57fe5b60200260200101511115610f5e5760405162461bcd60e51b81526004018080602001828103825260278152602001806146a06027913960400191505060405180910390fd5b6000806115517f00000000000000000000000000000000000000000000000000000000000000008d7f00000000000000000000000000000000000000000000000000000000000000006133dc565b9050600086611560578b611564565b6000195b6040805163d505accf60e01b815233600482015230602482015260448101839052606481018b905260ff8916608482015260a4810188905260c4810187905290519192506001600160a01b0384169163d505accf9160e48082019260009290919082900301818387803b1580156115da57600080fd5b505af11580156115ee573d6000803e3d6000fd5b505050506116008d8d8d8d8d8d611fe7565b9d9c50505050505050505050505050565b8042811015611655576040805162461bcd60e51b81526020600482015260186024820152600080516020614790833981519152604482015290519081900360640190fd5b6116ca8585600081811061166557fe5b905060200201356001600160a01b0316336116c47f0000000000000000000000000000000000000000000000000000000000000000898960008181106116a757fe5b905060200201356001600160a01b03168a8a6001818110610fcd57fe5b8a61349c565b6000858560001981018181106116dc57fe5b905060200201356001600160a01b03166001600160a01b03166370a08231856040518263ffffffff1660e01b815260040180826001600160a01b03166001600160a01b0316815260200191505060206040518083038186803b15801561174157600080fd5b505afa158015611755573d6000803e3d6000fd5b505050506040513d602081101561176b57600080fd5b505160408051602088810282810182019093528882529293506117ad92909189918991829185019084908082843760009201919091525088925061398c915050565b8661185f82888860001981018181106117c257fe5b905060200201356001600160a01b03166001600160a01b03166370a08231886040518263ffffffff1660e01b815260040180826001600160a01b03166001600160a01b0316815260200191505060206040518083038186803b15801561182757600080fd5b505afa15801561183b573d6000803e3d6000fd5b505050506040513d602081101561185157600080fd5b50519063ffffffff613cb916565b101561189c5760405162461bcd60e51b815260040180806020018281038252602b81526020018061470d602b913960400191505060405180910390fd5b5050505050505050565b80428110156118ea576040805162461bcd60e51b81526020600482015260186024820152600080516020614790833981519152604482015290519081900360640190fd5b6001600160a01b037f0000000000000000000000000000000000000000000000000000000000000000168585600019810181811061192457fe5b905060200201356001600160a01b03166001600160a01b03161461197d576040805162461bcd60e51b815260206004820152601d60248201526000805160206146c7833981519152604482015290519081900360640190fd5b61198d8585600081811061166557fe5b6119cb85858080602002602001604051908101604052809392919081815260200183836020028082843760009201919091525030925061398c915050565b604080516370a0823160e01b815230600482015290516000916001600160a01b037f000000000000000000000000000000000000000000000000000000000000000016916370a0823191602480820192602092909190829003018186803b158015611a3557600080fd5b505afa158015611a49573d6000803e3d6000fd5b505050506040513d6020811015611a5f57600080fd5b5051905086811015611aa25760405162461bcd60e51b815260040180806020018281038252602b81526020018061470d602b913960400191505060405180910390fd5b7f00000000000000000000000000000000000000000000000000000000000000006001600160a01b0316632e1a7d4d826040518263ffffffff1660e01b815260040180828152602001915050600060405180830381600087803b158015611b0857600080fd5b505af1158015611b1c573d6000803e3d6000fd5b5050505061189c8482613183565b60608142811015611b70576040805162461bcd60e51b81526020600482015260186024820152600080516020614790833981519152604482015290519081900360640190fd5b7f00000000000000000000000000000000000000000000000000000000000000006001600160a01b031686866000818110611ba757fe5b905060200201356001600160a01b03166001600160a01b031614611c00576040805162461bcd60e51b815260206004820152601d60248201526000805160206146c7833981519152604482015290519081900360640190fd5b611c5e7f00000000000000000000000000000000000000000000000000000000000000003488888080602002602001604051908101604052809392919081815260200183836020028082843760009201919091525061327b92505050565b91508682600184510381518110611c7157fe5b60200260200101511015611cb65760405162461bcd60e51b815260040180806020018281038252602b81526020018061470d602b913960400191505060405180910390fd5b7f00000000000000000000000000000000000000000000000000000000000000006001600160a01b031663d0e30db083600081518110611cf257fe5b60200260200101516040518263ffffffff1660e01b81526004016000604051808303818588803b158015611d2557600080fd5b505af1158015611d39573d6000803e3d6000fd5b50505050507f00000000000000000000000000000000000000000000000000000000000000006001600160a01b031663a9059cbb611d9e7f0000000000000000000000000000000000000000000000000000000000000000898960008181106116a757fe5b84600081518110611dab57fe5b60200260200101516040518363ffffffff1660e01b815260040180836001600160a01b03166001600160a01b0316815260200182815260200192505050602060405180830381600087803b158015611e0257600080fd5b505af1158015611e16573d6000803e3d6000fd5b505050506040513d6020811015611e2c57600080fd5b5051611e3457fe5b611e73828787808060200260200160405190810160405280939291908181526020018383602002808284376000920191909152508992506135f9915050565b5095945050505050565b60608142811015611ec3576040805162461bcd60e51b81526020600482015260186024820152600080516020614790833981519152604482015290519081900360640190fd5b611f217f00000000000000000000000000000000000000000000000000000000000000008988888080602002602001604051908101604052809392919081815260200183836020028082843760009201919091525061383f92505050565b91508682600081518110611f3157fe5b602002602001015111156113285760405162461bcd60e51b81526004018080602001828103825260278152602001806146a06027913960400191505060405180910390fd5b6000611fa57f000000000000000000000000000000000000000000000000000000000000000086868686613d09565b95945050505050565b7f000000000000000000000000000000000000000000000000000000000000000081565b6000611fdf848484613e84565b949350505050565b6000814281101561202d576040805162461bcd60e51b81526020600482015260186024820152600080516020614790833981519152604482015290519081900360640190fd5b61205c887f000000000000000000000000000000000000000000000000000000000000000089898930896124f4565b604080516370a0823160e01b815230600482015290519194506120e092508a9187916001600160a01b038416916370a0823191602480820192602092909190829003018186803b1580156120af57600080fd5b505afa1580156120c3573d6000803e3d6000fd5b505050506040513d60208110156120d957600080fd5b505161302f565b7f00000000000000000000000000000000000000000000000000000000000000006001600160a01b0316632e1a7d4d836040518263ffffffff1660e01b815260040180828152602001915050600060405180830381600087803b15801561214657600080fd5b505af115801561215a573d6000803e3d6000fd5b505050506110f18483613183565b80428110156121ac576040805162461bcd60e51b81526020600482015260186024820152600080516020614790833981519152604482015290519081900360640190fd5b7f00000000000000000000000000000000000000000000000000000000000000006001600160a01b0316858560008181106121e357fe5b905060200201356001600160a01b03166001600160a01b03161461223c576040805162461bcd60e51b815260206004820152601d60248201526000805160206146c7833981519152604482015290519081900360640190fd5b60003490507f00000000000000000000000000000000000000000000000000000000000000006001600160a01b031663d0e30db0826040518263ffffffff1660e01b81526004016000604051808303818588803b15801561229c57600080fd5b505af11580156122b0573d6000803e3d6000fd5b50505050507f00000000000000000000000000000000000000000000000000000000000000006001600160a01b031663a9059cbb6123157f0000000000000000000000000000000000000000000000000000000000000000898960008181106116a757fe5b836040518363ffffffff1660e01b815260040180836001600160a01b03166001600160a01b0316815260200182815260200192505050602060405180830381600087803b15801561236557600080fd5b505af1158015612379573d6000803e3d6000fd5b505050506040513d602081101561238f57600080fd5b505161239757fe5b6000868660001981018181106123a957fe5b905060200201356001600160a01b03166001600160a01b03166370a08231866040518263ffffffff1660e01b815260040180826001600160a01b03166001600160a01b0316815260200191505060206040518083038186803b15801561240e57600080fd5b505afa158015612422573d6000803e3d6000fd5b505050506040513d602081101561243857600080fd5b5051604080516020898102828101820190935289825292935061247a9290918a918a91829185019084908082843760009201919091525089925061398c915050565b8761185f828989600019810181811061248f57fe5b905060200201356001600160a01b03166001600160a01b03166370a08231896040518263ffffffff1660e01b815260040180826001600160a01b03166001600160a01b0316815260200191505060206040518083038186803b15801561182757600080fd5b600080824281101561253b576040805162461bcd60e51b81526020600482015260186024820152600080516020614790833981519152604482015290519081900360640190fd5b60006125687f00000000000000000000000000000000000000000000000000000000000000008c8c6133dc565b604080516323b872dd60e01b81523360048201526001600160a01b03831660248201819052604482018d9052915192935090916323b872dd916064808201926020929091908290030181600087803b1580156125c357600080fd5b505af11580156125d7573d6000803e3d6000fd5b505050506040513d60208110156125ed57600080fd5b50506040805163226bf2d160e21b81526001600160a01b03888116600483015282516000938493928616926389afcb44926024808301939282900301818787803b15801561263a57600080fd5b505af115801561264e573d6000803e3d6000fd5b505050506040513d604081101561266457600080fd5b5080516020909101519092509050600061267e8e8e613f30565b509050806001600160a01b03168e6001600160a01b0316146126a15781836126a4565b82825b90975095508a8710156126e85760405162461bcd60e51b81526004018080602001828103825260268152602001806146e76026913960400191505060405180910390fd5b898610156127275760405162461bcd60e51b815260040180806020018281038252602681526020018061462d6026913960400191505060405180910390fd5b505050505097509795505050505050565b7f000000000000000000000000000000000000000000000000000000000000000081565b6000611fa57f00000000000000000000000000000000000000000000000000000000000000008686868661400e565b60606111297f0000000000000000000000000000000000000000000000000000000000000000848461327b565b60008060006128087f00000000000000000000000000000000000000000000000000000000000000008e7f00000000000000000000000000000000000000000000000000000000000000006133dc565b9050600087612817578c61281b565b6000195b6040805163d505accf60e01b815233600482015230602482015260448101839052606481018c905260ff8a16608482015260a4810189905260c4810188905290519192506001600160a01b0384169163d505accf9160e48082019260009290919082900301818387803b15801561289157600080fd5b505af11580156128a5573d6000803e3d6000fd5b505050506128b78e8e8e8e8e8e610cb5565b909f909e509c50505050505050505050505050565b60008060008342811015612915576040805162461bcd60e51b81526020600482015260186024820152600080516020614790833981519152604482015290519081900360640190fd5b6129238c8c8c8c8c8c614189565b909450925060006129557f00000000000000000000000000000000000000000000000000000000000000008e8e6133dc565b90506129638d33838861349c565b61296f8c33838761349c565b806001600160a01b0316636a627842886040518263ffffffff1660e01b815260040180826001600160a01b03166001600160a01b03168152602001915050602060405180830381600087803b1580156129c757600080fd5b505af11580156129db573d6000803e3d6000fd5b505050506040513d60208110156129f157600080fd5b5051949d939c50939a509198505050505050505050565b60008060008342811015612a51576040805162461bcd60e51b81526020600482015260186024820152600080516020614790833981519152604482015290519081900360640190fd5b612a7f8a7f00000000000000000000000000000000000000000000000000000000000000008b348c8c614189565b90945092506000612ad17f00000000000000000000000000000000000000000000000000000000000000008c7f00000000000000000000000000000000000000000000000000000000000000006133dc565b9050612adf8b33838861349c565b7f00000000000000000000000000000000000000000000000000000000000000006001600160a01b031663d0e30db0856040518263ffffffff1660e01b81526004016000604051808303818588803b158015612b3a57600080fd5b505af1158015612b4e573d6000803e3d6000fd5b50505050507f00000000000000000000000000000000000000000000000000000000000000006001600160a01b031663a9059cbb82866040518363ffffffff1660e01b815260040180836001600160a01b03166001600160a01b0316815260200182815260200192505050602060405180830381600087803b158015612bd357600080fd5b505af1158015612be7573d6000803e3d6000fd5b505050506040513d6020811015612bfd57600080fd5b5051612c0557fe5b806001600160a01b0316636a627842886040518263ffffffff1660e01b815260040180826001600160a01b03166001600160a01b03168152602001915050602060405180830381600087803b158015612c5d57600080fd5b505af1158015612c71573d6000803e3d6000fd5b505050506040513d6020811015612c8757600080fd5b5051925034841015612c9f57612c9f33853403613183565b505096509650969350505050565b60608142811015612cf3576040805162461bcd60e51b81526020600482015260186024820152600080516020614790833981519152604482015290519081900360640190fd5b7f00000000000000000000000000000000000000000000000000000000000000006001600160a01b031686866000818110612d2a57fe5b905060200201356001600160a01b03166001600160a01b031614612d83576040805162461bcd60e51b815260206004820152601d60248201526000805160206146c7833981519152604482015290519081900360640190fd5b612de17f00000000000000000000000000000000000000000000000000000000000000008888888080602002602001604051908101604052809392919081815260200183836020028082843760009201919091525061383f92505050565b91503482600081518110612df157fe5b60200260200101511115612e365760405162461bcd60e51b81526004018080602001828103825260278152602001806146a06027913960400191505060405180910390fd5b7f00000000000000000000000000000000000000000000000000000000000000006001600160a01b031663d0e30db083600081518110612e7257fe5b60200260200101516040518263ffffffff1660e01b81526004016000604051808303818588803b158015612ea557600080fd5b505af1158015612eb9573d6000803e3d6000fd5b50505050507f00000000000000000000000000000000000000000000000000000000000000006001600160a01b031663a9059cbb612f1e7f0000000000000000000000000000000000000000000000000000000000000000898960008181106116a757fe5b84600081518110612f2b57fe5b60200260200101516040518363ffffffff1660e01b815260040180836001600160a01b03166001600160a01b0316815260200182815260200192505050602060405180830381600087803b158015612f8257600080fd5b505af1158015612f96573d6000803e3d6000fd5b505050506040513d6020811015612fac57600080fd5b5051612fb457fe5b612ff3828787808060200260200160405190810160405280939291908181526020018383602002808284376000920191909152508992506135f9915050565b8160008151811061300057fe5b6020026020010151341115611e7357611e73338360008151811061302057fe5b60200260200101513403613183565b604080516001600160a01b038481166024830152604480830185905283518084039091018152606490920183526020820180516001600160e01b031663a9059cbb60e01b178152925182516000946060949389169392918291908083835b602083106130ac5780518252601f19909201916020918201910161308d565b6001836020036101000a0380198251168184511680821785525050505050509050019150506000604051808303816000865af19150503d806000811461310e576040519150601f19603f3d011682016040523d82523d6000602084013e613113565b606091505b5091509150818015613141575080511580613141575080806020019051602081101561313e57600080fd5b50515b61317c5760405162461bcd60e51b815260040180806020018281038252602d815260200180614738602d913960400191505060405180910390fd5b5050505050565b604080516000808252602082019092526001600160a01b0384169083906040518082805190602001908083835b602083106131cf5780518252601f1990920191602091820191016131b0565b6001836020036101000a03801982511681845116808217855250505050505090500191505060006040518083038185875af1925050503d8060008114613231576040519150601f19603f3d011682016040523d82523d6000602084013e613236565b606091505b50509050806132765760405162461bcd60e51b81526004018080602001828103825260348152602001806145d46034913960400191505060405180910390fd5b505050565b60606002825110156132d4576040805162461bcd60e51b815260206004820152601e60248201527f556e697377617056324c6962726172793a20494e56414c49445f504154480000604482015290519081900360640190fd5b815167ffffffffffffffff811180156132ec57600080fd5b50604051908082528060200260200182016040528015613316578160200160208202803683370190505b509050828160008151811061332757fe5b60200260200101818152505060005b60018351038110156133d4576000806133798786858151811061335557fe5b602002602001015187866001018151811061336c57fe5b60200260200101516143fd565b915091506133b08785858151811061338d57fe5b602002602001015184848988815181106133a357fe5b602002602001015161400e565b8484600101815181106133bf57fe5b60209081029190910101525050600101613336565b509392505050565b60008060006133eb8585613f30565b604080516bffffffffffffffffffffffff19606094851b811660208084019190915293851b81166034830152825160288184030181526048830184528051908501206001600160f81b031960688401529a90941b9093166069840152607d8301989098527f57cf36086932d62d26c562d18d87afe373f166c06011dc35be0783e29c6eb4eb609d808401919091528851808403909101815260bd909201909752805196019590952095945050505050565b604080516001600160a01b0385811660248301528481166044830152606480830185905283518084039091018152608490920183526020820180516001600160e01b03166323b872dd60e01b17815292518251600094606094938a169392918291908083835b602083106135215780518252601f199092019160209182019101613502565b6001836020036101000a0380198251168184511680821785525050505050509050019150506000604051808303816000865af19150503d8060008114613583576040519150601f19603f3d011682016040523d82523d6000602084013e613588565b606091505b50915091508180156135b65750805115806135b657508080602001905160208110156135b357600080fd5b50515b6135f15760405162461bcd60e51b81526004018080602001828103825260318152602001806145a36031913960400191505060405180910390fd5b505050505050565b60005b60018351038110156138395760008084838151811061361757fe5b602002602001015185846001018151811061362e57fe5b60200260200101519150915060006136468383613f30565b509050600087856001018151811061365a57fe5b60200260200101519050600080836001600160a01b0316866001600160a01b0316146136885782600061368c565b6000835b91509150600060028a510388106136a357886136e4565b6136e47f0000000000000000000000000000000000000000000000000000000000000000878c8b600201815181106136d757fe5b60200260200101516133dc565b90506137117f000000000000000000000000000000000000000000000000000000000000000088886133dc565b6001600160a01b031663022c0d9f84848460006040519080825280601f01601f19166020018201604052801561374e576020820181803683370190505b506040518563ffffffff1660e01b815260040180858152602001848152602001836001600160a01b03166001600160a01b0316815260200180602001828103825283818151815260200191508051906020019080838360005b838110156137bf5781810151838201526020016137a7565b50505050905090810190601f1680156137ec5780820380516001836020036101000a031916815260200191505b5095505050505050600060405180830381600087803b15801561380e57600080fd5b505af1158015613822573d6000803e3d6000fd5b5050600190990198506135fc975050505050505050565b50505050565b6060600282511015613898576040805162461bcd60e51b815260206004820152601e60248201527f556e697377617056324c6962726172793a20494e56414c49445f504154480000604482015290519081900360640190fd5b815167ffffffffffffffff811180156138b057600080fd5b506040519080825280602002602001820160405280156138da578160200160208202803683370190505b50905082816001835103815181106138ee57fe5b60209081029190910101528151600019015b80156133d4576000806139308786600186038151811061391c57fe5b602002602001015187868151811061336c57fe5b915091506139678785858151811061394457fe5b6020026020010151848489888151811061395a57fe5b6020026020010151613d09565b84600185038151811061397657fe5b6020908102919091010152505060001901613900565b60005b6001835103811015613276576000808483815181106139aa57fe5b60200260200101518584600101815181106139c157fe5b60200260200101519150915060006139d98383613f30565b5090506000613a097f000000000000000000000000000000000000000000000000000000000000000085856133dc565b9050600080600080846001600160a01b0316630902f1ac6040518163ffffffff1660e01b815260040160606040518083038186803b158015613a4a57600080fd5b505afa158015613a5e573d6000803e3d6000fd5b505050506040513d6060811015613a7457600080fd5b5080516020909101516001600160701b0391821693501690506000806001600160a01b038a811690891614613aaa578284613aad565b83835b91509150613b0b828b6001600160a01b03166370a082318a6040518263ffffffff1660e01b815260040180826001600160a01b03166001600160a01b0316815260200191505060206040518083038186803b15801561182757600080fd5b9550613b3a7f00000000000000000000000000000000000000000000000000000000000000008784848b61400e565b945050505050600080856001600160a01b0316886001600160a01b031614613b6457826000613b68565b6000835b91509150600060028c51038a10613b7f578a613bb3565b613bb37f0000000000000000000000000000000000000000000000000000000000000000898e8d600201815181106136d757fe5b604080516000808252602082019283905263022c0d9f60e01b835260248201878152604483018790526001600160a01b038086166064850152608060848501908152845160a48601819052969750908c169563022c0d9f958a958a958a9591949193919260c486019290918190849084905b83811015613c3d578181015183820152602001613c25565b50505050905090810190601f168015613c6a5780820380516001836020036101000a031916815260200191505b5095505050505050600060405180830381600087803b158015613c8c57600080fd5b505af1158015613ca0573d6000803e3d6000fd5b50506001909b019a5061398f9950505050505050505050565b8082038281111561112c576040805162461bcd60e51b815260206004820152601560248201527464732d6d6174682d7375622d756e646572666c6f7760581b604482015290519081900360640190fd5b6000808511613d495760405162461bcd60e51b815260040180806020018281038252602c815260200180614577602c913960400191505060405180910390fd5b600084118015613d595750600083115b613d945760405162461bcd60e51b81526004018080602001828103825260288152602001806146536028913960400191505060405180910390fd5b6000613db86103e8613dac878963ffffffff6144c416565b9063ffffffff6144c416565b90506000876001600160a01b031663a6ae80e2856040518263ffffffff1660e01b815260040180826001600160a01b03166001600160a01b0316815260200191505060206040518083038186803b158015613e1257600080fd5b505afa158015613e26573d6000803e3d6000fd5b505050506040513d6020811015613e3c57600080fd5b50516103e80390506000613e5a82613dac888b63ffffffff613cb916565b9050613e776001828581613e6a57fe5b049063ffffffff61452716565b9998505050505050505050565b6000808411613ec45760405162461bcd60e51b815260040180806020018281038252602581526020018061467b6025913960400191505060405180910390fd5b600083118015613ed45750600082115b613f0f5760405162461bcd60e51b81526004018080602001828103825260288152602001806146536028913960400191505060405180910390fd5b82613f20858463ffffffff6144c416565b81613f2757fe5b04949350505050565b600080826001600160a01b0316846001600160a01b03161415613f845760405162461bcd60e51b81526004018080602001828103825260258152602001806146086025913960400191505060405180910390fd5b826001600160a01b0316846001600160a01b031610613fa4578284613fa7565b83835b90925090506001600160a01b038216614007576040805162461bcd60e51b815260206004820152601e60248201527f556e697377617056324c6962726172793a205a45524f5f414444524553530000604482015290519081900360640190fd5b9250929050565b600080851161404e5760405162461bcd60e51b815260040180806020018281038252602b815260200180614765602b913960400191505060405180910390fd5b60008411801561405e5750600083115b6140995760405162461bcd60e51b81526004018080602001828103825260288152602001806146536028913960400191505060405180910390fd5b6000866001600160a01b031663a6ae80e2846040518263ffffffff1660e01b815260040180826001600160a01b03166001600160a01b0316815260200191505060206040518083038186803b1580156140f157600080fd5b505afa158015614105573d6000803e3d6000fd5b505050506040513d602081101561411b57600080fd5b50516103e80390506000614135878363ffffffff6144c416565b90506000614149828763ffffffff6144c416565b9050600061416f836141638a6103e863ffffffff6144c416565b9063ffffffff61452716565b905080828161417a57fe5b049a9950505050505050505050565b6040805163e6a4390560e01b81526001600160a01b03888116600483015287811660248301529151600092839283927f00000000000000000000000000000000000000000000000000000000000000009092169163e6a4390591604480820192602092909190829003018186803b15801561420357600080fd5b505afa158015614217573d6000803e3d6000fd5b505050506040513d602081101561422d57600080fd5b50516001600160a01b031614156142e057604080516364e329cb60e11b81526001600160a01b038a81166004830152898116602483015291517f00000000000000000000000000000000000000000000000000000000000000009092169163c9c65396916044808201926020929091908290030181600087803b1580156142b357600080fd5b505af11580156142c7573d6000803e3d6000fd5b505050506040513d60208110156142dd57600080fd5b50505b60008061430e7f00000000000000000000000000000000000000000000000000000000000000008b8b6143fd565b91509150816000148015614320575080155b15614330578793508692506143f0565b600061433d898484613e84565b905087811161439057858110156143855760405162461bcd60e51b815260040180806020018281038252602681526020018061462d6026913960400191505060405180910390fd5b8894509250826143ee565b600061439d898486613e84565b9050898111156143a957fe5b878110156143e85760405162461bcd60e51b81526004018080602001828103825260268152602001806146e76026913960400191505060405180910390fd5b94508793505b505b5050965096945050505050565b600080600061440c8585613f30565b50905060008061441d8888886133dc565b6001600160a01b0316630902f1ac6040518163ffffffff1660e01b815260040160606040518083038186803b15801561445557600080fd5b505afa158015614469573d6000803e3d6000fd5b505050506040513d606081101561447f57600080fd5b5080516020909101516001600160701b0391821693501690506001600160a01b03878116908416146144b25780826144b5565b81815b90999098509650505050505050565b60008115806144df575050808202828282816144dc57fe5b04145b61112c576040805162461bcd60e51b815260206004820152601460248201527364732d6d6174682d6d756c2d6f766572666c6f7760601b604482015290519081900360640190fd5b8082018281101561112c576040805162461bcd60e51b815260206004820152601460248201527364732d6d6174682d6164642d6f766572666c6f7760601b604482015290519081900360640190fdfe556e697377617056324c6962726172793a20494e53554646494349454e545f4f55545055545f414d4f554e545472616e7366657248656c7065723a3a7472616e7366657246726f6d3a207472616e7366657246726f6d206661696c65645472616e7366657248656c7065723a3a736166655472616e736665724554483a20455448207472616e73666572206661696c6564556e697377617056324c6962726172793a204944454e544943414c5f414444524553534553556e69737761705632526f757465723a20494e53554646494349454e545f425f414d4f554e54556e697377617056324c6962726172793a20494e53554646494349454e545f4c4951554944495459556e697377617056324c6962726172793a20494e53554646494349454e545f414d4f554e54556e69737761705632526f757465723a204558434553534956455f494e5055545f414d4f554e54556e69737761705632526f757465723a20494e56414c49445f50415448000000556e69737761705632526f757465723a20494e53554646494349454e545f415f414d4f554e54556e69737761705632526f757465723a20494e53554646494349454e545f4f55545055545f414d4f554e545472616e7366657248656c7065723a3a736166655472616e736665723a207472616e73666572206661696c6564556e697377617056324c6962726172793a20494e53554646494349454e545f494e5055545f414d4f554e54556e69737761705632526f757465723a20455850495245440000000000000000a26469706673582212200abeee41d894fa9129afc33daddc7dced1a7a3484980f692a66fca36d84a6c0664736f6c63430006060033","opcodes":"PUSH1 0xC0 PUSH1 0x40 MSTORE CALLVALUE DUP1 ISZERO PUSH2 0x10 JUMPI PUSH1 0x0 DUP1 REVERT JUMPDEST POP PUSH1 0x40 MLOAD PUSH3 0x4979 CODESIZE SUB DUP1 PUSH3 0x4979 DUP4 CODECOPY DUP2 DUP2 ADD PUSH1 0x40 MSTORE PUSH1 0x40 DUP2 LT ISZERO PUSH2 0x35 JUMPI PUSH1 0x0 DUP1 REVERT JUMPDEST POP DUP1 MLOAD PUSH1 0x20 SWAP1 SWAP2 ADD MLOAD PUSH1 0x1 PUSH1 0x1 PUSH1 0x60 SHL SUB NOT PUSH1 0x60 SWAP3 DUP4 SHL DUP2 AND PUSH1 0x80 MSTORE SWAP2 SHL AND PUSH1 0xA0 MSTORE PUSH1 0x80 MLOAD PUSH1 0x60 SHR PUSH1 0xA0 MLOAD PUSH1 0x60 SHR PUSH2 0x47E5 PUSH3 0x194 PUSH1 0x0 CODECOPY DUP1 PUSH2 0x15F MSTORE DUP1 PUSH2 0xD02 MSTORE DUP1 PUSH2 0xD3D MSTORE DUP1 PUSH2 0xE1F MSTORE DUP1 PUSH2 0x103D MSTORE DUP1 PUSH2 0x13C7 MSTORE DUP1 PUSH2 0x152D MSTORE DUP1 PUSH2 0x18F4 MSTORE DUP1 PUSH2 0x19EE MSTORE DUP1 PUSH2 0x1AA4 MSTORE DUP1 PUSH2 0x1B72 MSTORE DUP1 PUSH2 0x1CB8 MSTORE DUP1 PUSH2 0x1D40 MSTORE DUP1 PUSH2 0x1FB0 MSTORE DUP1 PUSH2 0x2033 MSTORE DUP1 PUSH2 0x20E2 MSTORE DUP1 PUSH2 0x21AE MSTORE DUP1 PUSH2 0x2243 MSTORE DUP1 PUSH2 0x22B7 MSTORE DUP1 PUSH2 0x27E4 MSTORE DUP1 PUSH2 0x2A57 MSTORE DUP1 PUSH2 0x2AAD MSTORE DUP1 PUSH2 0x2AE1 MSTORE DUP1 PUSH2 0x2B55 MSTORE DUP1 PUSH2 0x2CF5 MSTORE DUP1 PUSH2 0x2E38 MSTORE DUP1 PUSH2 0x2EC0 MSTORE POP DUP1 PUSH2 0xEAD MSTORE DUP1 PUSH2 0xF84 MSTORE DUP1 PUSH2 0x1103 MSTORE DUP1 PUSH2 0x113C MSTORE DUP1 PUSH2 0x1277 MSTORE DUP1 PUSH2 0x1455 MSTORE DUP1 PUSH2 0x150B MSTORE DUP1 PUSH2 0x167B MSTORE DUP1 PUSH2 0x1C05 MSTORE DUP1 PUSH2 0x1D72 MSTORE DUP1 PUSH2 0x1EC8 MSTORE DUP1 PUSH2 0x1F7D MSTORE DUP1 PUSH2 0x22E9 MSTORE DUP1 PUSH2 0x2542 MSTORE DUP1 PUSH2 0x273A MSTORE DUP1 PUSH2 0x2763 MSTORE DUP1 PUSH2 0x2792 MSTORE DUP1 PUSH2 0x27C2 MSTORE DUP1 PUSH2 0x292F MSTORE DUP1 PUSH2 0x2A8B MSTORE DUP1 PUSH2 0x2D88 MSTORE DUP1 PUSH2 0x2EF2 MSTORE DUP1 PUSH2 0x36A8 MSTORE DUP1 PUSH2 0x36EB MSTORE DUP1 PUSH2 0x39E3 MSTORE DUP1 PUSH2 0x3B12 MSTORE DUP1 PUSH2 0x3B84 MSTORE DUP1 PUSH2 0x41BA MSTORE DUP1 PUSH2 0x4268 MSTORE DUP1 PUSH2 0x42E8 MSTORE POP PUSH2 0x47E5 PUSH1 0x0 RETURN INVALID PUSH1 0x80 PUSH1 0x40 MSTORE PUSH1 0x4 CALLDATASIZE LT PUSH2 0x14F JUMPI PUSH1 0x0 CALLDATALOAD PUSH1 0xE0 SHR DUP1 PUSH4 0xAD5C4648 GT PUSH2 0xB6 JUMPI DUP1 PUSH4 0xCACED41B GT PUSH2 0x6F JUMPI DUP1 PUSH4 0xCACED41B EQ PUSH2 0x9FE JUMPI DUP1 PUSH4 0xD06CA61F EQ PUSH2 0xA43 JUMPI DUP1 PUSH4 0xDED9382A EQ PUSH2 0xAF8 JUMPI DUP1 PUSH4 0xE8E33700 EQ PUSH2 0xB6B JUMPI DUP1 PUSH4 0xF305D719 EQ PUSH2 0xBEB JUMPI DUP1 PUSH4 0xFB3BDB41 EQ PUSH2 0xC31 JUMPI PUSH2 0x188 JUMP JUMPDEST DUP1 PUSH4 0xAD5C4648 EQ PUSH2 0x84E JUMPI DUP1 PUSH4 0xAD615DEC EQ PUSH2 0x87F JUMPI DUP1 PUSH4 0xAF2979EB EQ PUSH2 0x8B5 JUMPI DUP1 PUSH4 0xB6F9DE95 EQ PUSH2 0x908 JUMPI DUP1 PUSH4 0xBAA2ABDE EQ PUSH2 0x98C JUMPI DUP1 PUSH4 0xC45A0155 EQ PUSH2 0x9E9 JUMPI PUSH2 0x188 JUMP JUMPDEST DUP1 PUSH4 0x5B0D5984 GT PUSH2 0x108 JUMPI DUP1 PUSH4 0x5B0D5984 EQ PUSH2 0x53E JUMPI DUP1 PUSH4 0x5C11D795 EQ PUSH2 0x5C3 JUMPI DUP1 PUSH4 0x791AC947 EQ PUSH2 0x659 JUMPI DUP1 PUSH4 0x7FF36AB5 EQ PUSH2 0x6EF JUMPI DUP1 PUSH4 0x8803DBEE EQ PUSH2 0x773 JUMPI DUP1 PUSH4 0x9470DBEA EQ PUSH2 0x809 JUMPI PUSH2 0x188 JUMP JUMPDEST DUP1 PUSH4 0x2751CEC EQ PUSH2 0x18D JUMPI DUP1 PUSH4 0x18CBAFE5 EQ PUSH2 0x1F9 JUMPI DUP1 PUSH4 0x1F00CA74 EQ PUSH2 0x2DF JUMPI DUP1 PUSH4 0x2195995C EQ PUSH2 0x394 JUMPI DUP1 PUSH4 0x38ED1739 EQ PUSH2 0x412 JUMPI DUP1 PUSH4 0x4A25D94A EQ PUSH2 0x4A8 JUMPI PUSH2 0x188 JUMP JUMPDEST CALLDATASIZE PUSH2 0x188 JUMPI CALLER PUSH1 0x1 PUSH1 0x1 PUSH1 0xA0 SHL SUB PUSH32 0x0 AND EQ PUSH2 0x186 JUMPI INVALID JUMPDEST STOP JUMPDEST PUSH1 0x0 DUP1 REVERT JUMPDEST CALLVALUE DUP1 ISZERO PUSH2 0x199 JUMPI PUSH1 0x0 DUP1 REVERT JUMPDEST POP PUSH2 0x1E0 PUSH1 0x4 DUP1 CALLDATASIZE SUB PUSH1 0xC0 DUP2 LT ISZERO PUSH2 0x1B0 JUMPI PUSH1 0x0 DUP1 REVERT JUMPDEST POP PUSH1 0x1 PUSH1 0x1 PUSH1 0xA0 SHL SUB DUP2 CALLDATALOAD DUP2 AND SWAP2 PUSH1 0x20 DUP2 ADD CALLDATALOAD SWAP2 PUSH1 0x40 DUP3 ADD CALLDATALOAD SWAP2 PUSH1 0x60 DUP2 ADD CALLDATALOAD SWAP2 PUSH1 0x80 DUP3 ADD CALLDATALOAD AND SWAP1 PUSH1 0xA0 ADD CALLDATALOAD PUSH2 0xCB5 JUMP JUMPDEST PUSH1 0x40 DUP1 MLOAD SWAP3 DUP4 MSTORE PUSH1 0x20 DUP4 ADD SWAP2 SWAP1 SWAP2 MSTORE DUP1 MLOAD SWAP2 DUP3 SWAP1 SUB ADD SWAP1 RETURN JUMPDEST CALLVALUE DUP1 ISZERO PUSH2 0x205 JUMPI PUSH1 0x0 DUP1 REVERT JUMPDEST POP PUSH2 0x28F PUSH1 0x4 DUP1 CALLDATASIZE SUB PUSH1 0xA0 DUP2 LT ISZERO PUSH2 0x21C JUMPI PUSH1 0x0 DUP1 REVERT JUMPDEST DUP2 CALLDATALOAD SWAP2 PUSH1 0x20 DUP2 ADD CALLDATALOAD SWAP2 DUP2 ADD SWAP1 PUSH1 0x60 DUP2 ADD PUSH1 0x40 DUP3 ADD CALLDATALOAD PUSH1 0x1 PUSH1 0x20 SHL DUP2 GT ISZERO PUSH2 0x242 JUMPI PUSH1 0x0 DUP1 REVERT JUMPDEST DUP3 ADD DUP4 PUSH1 0x20 DUP3 ADD GT ISZERO PUSH2 0x254 JUMPI PUSH1 0x0 DUP1 REVERT JUMPDEST DUP1 CALLDATALOAD SWAP1 PUSH1 0x20 ADD SWAP2 DUP5 PUSH1 0x20 DUP4 MUL DUP5 ADD GT PUSH1 0x1 PUSH1 0x20 SHL DUP4 GT OR ISZERO PUSH2 0x275 JUMPI PUSH1 0x0 DUP1 REVERT JUMPDEST SWAP2 SWAP4 POP SWAP2 POP PUSH1 0x1 PUSH1 0x1 PUSH1 0xA0 SHL SUB DUP2 CALLDATALOAD AND SWAP1 PUSH1 0x20 ADD CALLDATALOAD PUSH2 0xDCF JUMP JUMPDEST PUSH1 0x40 DUP1 MLOAD PUSH1 0x20 DUP1 DUP3 MSTORE DUP4 MLOAD DUP2 DUP4 ADD MSTORE DUP4 MLOAD SWAP2 SWAP3 DUP4 SWAP3 SWAP1 DUP4 ADD SWAP2 DUP6 DUP2 ADD SWAP2 MUL DUP1 DUP4 DUP4 PUSH1 0x0 JUMPDEST DUP4 DUP2 LT ISZERO PUSH2 0x2CB JUMPI DUP2 DUP2 ADD MLOAD DUP4 DUP3 ADD MSTORE PUSH1 0x20 ADD PUSH2 0x2B3 JUMP JUMPDEST POP POP POP POP SWAP1 POP ADD SWAP3 POP POP POP PUSH1 0x40 MLOAD DUP1 SWAP2 SUB SWAP1 RETURN JUMPDEST CALLVALUE DUP1 ISZERO PUSH2 0x2EB JUMPI PUSH1 0x0 DUP1 REVERT JUMPDEST POP PUSH2 0x28F PUSH1 0x4 DUP1 CALLDATASIZE SUB PUSH1 0x40 DUP2 LT ISZERO PUSH2 0x302 JUMPI PUSH1 0x0 DUP1 REVERT JUMPDEST DUP2 CALLDATALOAD SWAP2 SWAP1 DUP2 ADD SWAP1 PUSH1 0x40 DUP2 ADD PUSH1 0x20 DUP3 ADD CALLDATALOAD PUSH1 0x1 PUSH1 0x20 SHL DUP2 GT ISZERO PUSH2 0x323 JUMPI PUSH1 0x0 DUP1 REVERT JUMPDEST DUP3 ADD DUP4 PUSH1 0x20 DUP3 ADD GT ISZERO PUSH2 0x335 JUMPI PUSH1 0x0 DUP1 REVERT JUMPDEST DUP1 CALLDATALOAD SWAP1 PUSH1 0x20 ADD SWAP2 DUP5 PUSH1 0x20 DUP4 MUL DUP5 ADD GT PUSH1 0x1 PUSH1 0x20 SHL DUP4 GT OR ISZERO PUSH2 0x356 JUMPI PUSH1 0x0 DUP1 REVERT JUMPDEST SWAP2 SWAP1 DUP1 DUP1 PUSH1 0x20 MUL PUSH1 0x20 ADD PUSH1 0x40 MLOAD SWAP1 DUP2 ADD PUSH1 0x40 MSTORE DUP1 SWAP4 SWAP3 SWAP2 SWAP1 DUP2 DUP2 MSTORE PUSH1 0x20 ADD DUP4 DUP4 PUSH1 0x20 MUL DUP1 DUP3 DUP5 CALLDATACOPY PUSH1 0x0 SWAP3 ADD SWAP2 SWAP1 SWAP2 MSTORE POP SWAP3 SWAP6 POP PUSH2 0x10FC SWAP5 POP POP POP POP POP JUMP JUMPDEST CALLVALUE DUP1 ISZERO PUSH2 0x3A0 JUMPI PUSH1 0x0 DUP1 REVERT JUMPDEST POP PUSH2 0x1E0 PUSH1 0x4 DUP1 CALLDATASIZE SUB PUSH2 0x160 DUP2 LT ISZERO PUSH2 0x3B8 JUMPI PUSH1 0x0 DUP1 REVERT JUMPDEST POP PUSH1 0x1 PUSH1 0x1 PUSH1 0xA0 SHL SUB DUP2 CALLDATALOAD DUP2 AND SWAP2 PUSH1 0x20 DUP2 ADD CALLDATALOAD DUP3 AND SWAP2 PUSH1 0x40 DUP3 ADD CALLDATALOAD SWAP2 PUSH1 0x60 DUP2 ADD CALLDATALOAD SWAP2 PUSH1 0x80 DUP3 ADD CALLDATALOAD SWAP2 PUSH1 0xA0 DUP2 ADD CALLDATALOAD SWAP1 SWAP2 AND SWAP1 PUSH1 0xC0 DUP2 ADD CALLDATALOAD SWAP1 PUSH1 0xE0 DUP2 ADD CALLDATALOAD ISZERO ISZERO SWAP1 PUSH1 0xFF PUSH2 0x100 DUP3 ADD CALLDATALOAD AND SWAP1 PUSH2 0x120 DUP2 ADD CALLDATALOAD SWAP1 PUSH2 0x140 ADD CALLDATALOAD PUSH2 0x1132 JUMP JUMPDEST CALLVALUE DUP1 ISZERO PUSH2 0x41E JUMPI PUSH1 0x0 DUP1 REVERT JUMPDEST POP PUSH2 0x28F PUSH1 0x4 DUP1 CALLDATASIZE SUB PUSH1 0xA0 DUP2 LT ISZERO PUSH2 0x435 JUMPI PUSH1 0x0 DUP1 REVERT JUMPDEST DUP2 CALLDATALOAD SWAP2 PUSH1 0x20 DUP2 ADD CALLDATALOAD SWAP2 DUP2 ADD SWAP1 PUSH1 0x60 DUP2 ADD PUSH1 0x40 DUP3 ADD CALLDATALOAD PUSH1 0x1 PUSH1 0x20 SHL DUP2 GT ISZERO PUSH2 0x45B JUMPI PUSH1 0x0 DUP1 REVERT JUMPDEST DUP3 ADD DUP4 PUSH1 0x20 DUP3 ADD GT ISZERO PUSH2 0x46D JUMPI PUSH1 0x0 DUP1 REVERT JUMPDEST DUP1 CALLDATALOAD SWAP1 PUSH1 0x20 ADD SWAP2 DUP5 PUSH1 0x20 DUP4 MUL DUP5 ADD GT PUSH1 0x1 PUSH1 0x20 SHL DUP4 GT OR ISZERO PUSH2 0x48E JUMPI PUSH1 0x0 DUP1 REVERT JUMPDEST SWAP2 SWAP4 POP SWAP2 POP PUSH1 0x1 PUSH1 0x1 PUSH1 0xA0 SHL SUB DUP2 CALLDATALOAD AND SWAP1 PUSH1 0x20 ADD CALLDATALOAD PUSH2 0x122C JUMP JUMPDEST CALLVALUE DUP1 ISZERO PUSH2 0x4B4 JUMPI PUSH1 0x0 DUP1 REVERT JUMPDEST POP PUSH2 0x28F PUSH1 0x4 DUP1 CALLDATASIZE SUB PUSH1 0xA0 DUP2 LT ISZERO PUSH2 0x4CB JUMPI PUSH1 0x0 DUP1 REVERT JUMPDEST DUP2 CALLDATALOAD SWAP2 PUSH1 0x20 DUP2 ADD CALLDATALOAD SWAP2 DUP2 ADD SWAP1 PUSH1 0x60 DUP2 ADD PUSH1 0x40 DUP3 ADD CALLDATALOAD PUSH1 0x1 PUSH1 0x20 SHL DUP2 GT ISZERO PUSH2 0x4F1 JUMPI PUSH1 0x0 DUP1 REVERT JUMPDEST DUP3 ADD DUP4 PUSH1 0x20 DUP3 ADD GT ISZERO PUSH2 0x503 JUMPI PUSH1 0x0 DUP1 REVERT JUMPDEST DUP1 CALLDATALOAD SWAP1 PUSH1 0x20 ADD SWAP2 DUP5 PUSH1 0x20 DUP4 MUL DUP5 ADD GT PUSH1 0x1 PUSH1 0x20 SHL DUP4 GT OR ISZERO PUSH2 0x524 JUMPI PUSH1 0x0 DUP1 REVERT JUMPDEST SWAP2 SWAP4 POP SWAP2 POP PUSH1 0x1 PUSH1 0x1 PUSH1 0xA0 SHL SUB DUP2 CALLDATALOAD AND SWAP1 PUSH1 0x20 ADD CALLDATALOAD PUSH2 0x1377 JUMP JUMPDEST CALLVALUE DUP1 ISZERO PUSH2 0x54A JUMPI PUSH1 0x0 DUP1 REVERT JUMPDEST POP PUSH2 0x5B1 PUSH1 0x4 DUP1 CALLDATASIZE SUB PUSH2 0x140 DUP2 LT ISZERO PUSH2 0x562 JUMPI PUSH1 0x0 DUP1 REVERT JUMPDEST POP PUSH1 0x1 PUSH1 0x1 PUSH1 0xA0 SHL SUB DUP2 CALLDATALOAD DUP2 AND SWAP2 PUSH1 0x20 DUP2 ADD CALLDATALOAD SWAP2 PUSH1 0x40 DUP3 ADD CALLDATALOAD SWAP2 PUSH1 0x60 DUP2 ADD CALLDATALOAD SWAP2 PUSH1 0x80 DUP3 ADD CALLDATALOAD AND SWAP1 PUSH1 0xA0 DUP2 ADD CALLDATALOAD SWAP1 PUSH1 0xC0 DUP2 ADD CALLDATALOAD ISZERO ISZERO SWAP1 PUSH1 0xFF PUSH1 0xE0 DUP3 ADD CALLDATALOAD AND SWAP1 PUSH2 0x100 DUP2 ADD CALLDATALOAD SWAP1 PUSH2 0x120 ADD CALLDATALOAD PUSH2 0x1503 JUMP JUMPDEST PUSH1 0x40 DUP1 MLOAD SWAP2 DUP3 MSTORE MLOAD SWAP1 DUP2 SWAP1 SUB PUSH1 0x20 ADD SWAP1 RETURN JUMPDEST CALLVALUE DUP1 ISZERO PUSH2 0x5CF JUMPI PUSH1 0x0 DUP1 REVERT JUMPDEST POP PUSH2 0x186 PUSH1 0x4 DUP1 CALLDATASIZE SUB PUSH1 0xA0 DUP2 LT ISZERO PUSH2 0x5E6 JUMPI PUSH1 0x0 DUP1 REVERT JUMPDEST DUP2 CALLDATALOAD SWAP2 PUSH1 0x20 DUP2 ADD CALLDATALOAD SWAP2 DUP2 ADD SWAP1 PUSH1 0x60 DUP2 ADD PUSH1 0x40 DUP3 ADD CALLDATALOAD PUSH1 0x1 PUSH1 0x20 SHL DUP2 GT ISZERO PUSH2 0x60C JUMPI PUSH1 0x0 DUP1 REVERT JUMPDEST DUP3 ADD DUP4 PUSH1 0x20 DUP3 ADD GT ISZERO PUSH2 0x61E JUMPI PUSH1 0x0 DUP1 REVERT JUMPDEST DUP1 CALLDATALOAD SWAP1 PUSH1 0x20 ADD SWAP2 DUP5 PUSH1 0x20 DUP4 MUL DUP5 ADD GT PUSH1 0x1 PUSH1 0x20 SHL DUP4 GT OR ISZERO PUSH2 0x63F JUMPI PUSH1 0x0 DUP1 REVERT JUMPDEST SWAP2 SWAP4 POP SWAP2 POP PUSH1 0x1 PUSH1 0x1 PUSH1 0xA0 SHL SUB DUP2 CALLDATALOAD AND SWAP1 PUSH1 0x20 ADD CALLDATALOAD PUSH2 0x1611 JUMP JUMPDEST CALLVALUE DUP1 ISZERO PUSH2 0x665 JUMPI PUSH1 0x0 DUP1 REVERT JUMPDEST POP PUSH2 0x186 PUSH1 0x4 DUP1 CALLDATASIZE SUB PUSH1 0xA0 DUP2 LT ISZERO PUSH2 0x67C JUMPI PUSH1 0x0 DUP1 REVERT JUMPDEST DUP2 CALLDATALOAD SWAP2 PUSH1 0x20 DUP2 ADD CALLDATALOAD SWAP2 DUP2 ADD SWAP1 PUSH1 0x60 DUP2 ADD PUSH1 0x40 DUP3 ADD CALLDATALOAD PUSH1 0x1 PUSH1 0x20 SHL DUP2 GT ISZERO PUSH2 0x6A2 JUMPI PUSH1 0x0 DUP1 REVERT JUMPDEST DUP3 ADD DUP4 PUSH1 0x20 DUP3 ADD GT ISZERO PUSH2 0x6B4 JUMPI PUSH1 0x0 DUP1 REVERT JUMPDEST DUP1 CALLDATALOAD SWAP1 PUSH1 0x20 ADD SWAP2 DUP5 PUSH1 0x20 DUP4 MUL DUP5 ADD GT PUSH1 0x1 PUSH1 0x20 SHL DUP4 GT OR ISZERO PUSH2 0x6D5 JUMPI PUSH1 0x0 DUP1 REVERT JUMPDEST SWAP2 SWAP4 POP SWAP2 POP PUSH1 0x1 PUSH1 0x1 PUSH1 0xA0 SHL SUB DUP2 CALLDATALOAD AND SWAP1 PUSH1 0x20 ADD CALLDATALOAD PUSH2 0x18A6 JUMP JUMPDEST PUSH2 0x28F PUSH1 0x4 DUP1 CALLDATASIZE SUB PUSH1 0x80 DUP2 LT ISZERO PUSH2 0x705 JUMPI PUSH1 0x0 DUP1 REVERT JUMPDEST DUP2 CALLDATALOAD SWAP2 SWAP1 DUP2 ADD SWAP1 PUSH1 0x40 DUP2 ADD PUSH1 0x20 DUP3 ADD CALLDATALOAD PUSH1 0x1 PUSH1 0x20 SHL DUP2 GT ISZERO PUSH2 0x726 JUMPI PUSH1 0x0 DUP1 REVERT JUMPDEST DUP3 ADD DUP4 PUSH1 0x20 DUP3 ADD GT ISZERO PUSH2 0x738 JUMPI PUSH1 0x0 DUP1 REVERT JUMPDEST DUP1 CALLDATALOAD SWAP1 PUSH1 0x20 ADD SWAP2 DUP5 PUSH1 0x20 DUP4 MUL DUP5 ADD GT PUSH1 0x1 PUSH1 0x20 SHL DUP4 GT OR ISZERO PUSH2 0x759 JUMPI PUSH1 0x0 DUP1 REVERT JUMPDEST SWAP2 SWAP4 POP SWAP2 POP PUSH1 0x1 PUSH1 0x1 PUSH1 0xA0 SHL SUB DUP2 CALLDATALOAD AND SWAP1 PUSH1 0x20 ADD CALLDATALOAD PUSH2 0x1B2A JUMP JUMPDEST CALLVALUE DUP1 ISZERO PUSH2 0x77F JUMPI PUSH1 0x0 DUP1 REVERT JUMPDEST POP PUSH2 0x28F PUSH1 0x4 DUP1 CALLDATASIZE SUB PUSH1 0xA0 DUP2 LT ISZERO PUSH2 0x796 JUMPI PUSH1 0x0 DUP1 REVERT JUMPDEST DUP2 CALLDATALOAD SWAP2 PUSH1 0x20 DUP2 ADD CALLDATALOAD SWAP2 DUP2 ADD SWAP1 PUSH1 0x60 DUP2 ADD PUSH1 0x40 DUP3 ADD CALLDATALOAD PUSH1 0x1 PUSH1 0x20 SHL DUP2 GT ISZERO PUSH2 0x7BC JUMPI PUSH1 0x0 DUP1 REVERT JUMPDEST DUP3 ADD DUP4 PUSH1 0x20 DUP3 ADD GT ISZERO PUSH2 0x7CE JUMPI PUSH1 0x0 DUP1 REVERT JUMPDEST DUP1 CALLDATALOAD SWAP1 PUSH1 0x20 ADD SWAP2 DUP5 PUSH1 0x20 DUP4 MUL DUP5 ADD GT PUSH1 0x1 PUSH1 0x20 SHL DUP4 GT OR ISZERO PUSH2 0x7EF JUMPI PUSH1 0x0 DUP1 REVERT JUMPDEST SWAP2 SWAP4 POP SWAP2 POP PUSH1 0x1 PUSH1 0x1 PUSH1 0xA0 SHL SUB DUP2 CALLDATALOAD AND SWAP1 PUSH1 0x20 ADD CALLDATALOAD PUSH2 0x1E7D JUMP JUMPDEST CALLVALUE DUP1 ISZERO PUSH2 0x815 JUMPI PUSH1 0x0 DUP1 REVERT JUMPDEST POP PUSH2 0x5B1 PUSH1 0x4 DUP1 CALLDATASIZE SUB PUSH1 0x80 DUP2 LT ISZERO PUSH2 0x82C JUMPI PUSH1 0x0 DUP1 REVERT JUMPDEST POP DUP1 CALLDATALOAD SWAP1 PUSH1 0x20 DUP2 ADD CALLDATALOAD SWAP1 PUSH1 0x40 DUP2 ADD CALLDATALOAD SWAP1 PUSH1 0x60 ADD CALLDATALOAD PUSH1 0x1 PUSH1 0x1 PUSH1 0xA0 SHL SUB AND PUSH2 0x1F76 JUMP JUMPDEST CALLVALUE DUP1 ISZERO PUSH2 0x85A JUMPI PUSH1 0x0 DUP1 REVERT JUMPDEST POP PUSH2 0x863 PUSH2 0x1FAE JUMP JUMPDEST PUSH1 0x40 DUP1 MLOAD PUSH1 0x1 PUSH1 0x1 PUSH1 0xA0 SHL SUB SWAP1 SWAP3 AND DUP3 MSTORE MLOAD SWAP1 DUP2 SWAP1 SUB PUSH1 0x20 ADD SWAP1 RETURN JUMPDEST CALLVALUE DUP1 ISZERO PUSH2 0x88B JUMPI PUSH1 0x0 DUP1 REVERT JUMPDEST POP PUSH2 0x5B1 PUSH1 0x4 DUP1 CALLDATASIZE SUB PUSH1 0x60 DUP2 LT ISZERO PUSH2 0x8A2 JUMPI PUSH1 0x0 DUP1 REVERT JUMPDEST POP DUP1 CALLDATALOAD SWAP1 PUSH1 0x20 DUP2 ADD CALLDATALOAD SWAP1 PUSH1 0x40 ADD CALLDATALOAD PUSH2 0x1FD2 JUMP JUMPDEST CALLVALUE DUP1 ISZERO PUSH2 0x8C1 JUMPI PUSH1 0x0 DUP1 REVERT JUMPDEST POP PUSH2 0x5B1 PUSH1 0x4 DUP1 CALLDATASIZE SUB PUSH1 0xC0 DUP2 LT ISZERO PUSH2 0x8D8 JUMPI PUSH1 0x0 DUP1 REVERT JUMPDEST POP PUSH1 0x1 PUSH1 0x1 PUSH1 0xA0 SHL SUB DUP2 CALLDATALOAD DUP2 AND SWAP2 PUSH1 0x20 DUP2 ADD CALLDATALOAD SWAP2 PUSH1 0x40 DUP3 ADD CALLDATALOAD SWAP2 PUSH1 0x60 DUP2 ADD CALLDATALOAD SWAP2 PUSH1 0x80 DUP3 ADD CALLDATALOAD AND SWAP1 PUSH1 0xA0 ADD CALLDATALOAD PUSH2 0x1FE7 JUMP JUMPDEST PUSH2 0x186 PUSH1 0x4 DUP1 CALLDATASIZE SUB PUSH1 0x80 DUP2 LT ISZERO PUSH2 0x91E JUMPI PUSH1 0x0 DUP1 REVERT JUMPDEST DUP2 CALLDATALOAD SWAP2 SWAP1 DUP2 ADD SWAP1 PUSH1 0x40 DUP2 ADD PUSH1 0x20 DUP3 ADD CALLDATALOAD PUSH1 0x1 PUSH1 0x20 SHL DUP2 GT ISZERO PUSH2 0x93F JUMPI PUSH1 0x0 DUP1 REVERT JUMPDEST DUP3 ADD DUP4 PUSH1 0x20 DUP3 ADD GT ISZERO PUSH2 0x951 JUMPI PUSH1 0x0 DUP1 REVERT JUMPDEST DUP1 CALLDATALOAD SWAP1 PUSH1 0x20 ADD SWAP2 DUP5 PUSH1 0x20 DUP4 MUL DUP5 ADD GT PUSH1 0x1 PUSH1 0x20 SHL DUP4 GT OR ISZERO PUSH2 0x972 JUMPI PUSH1 0x0 DUP1 REVERT JUMPDEST SWAP2 SWAP4 POP SWAP2 POP PUSH1 0x1 PUSH1 0x1 PUSH1 0xA0 SHL SUB DUP2 CALLDATALOAD AND SWAP1 PUSH1 0x20 ADD CALLDATALOAD PUSH2 0x2168 JUMP JUMPDEST CALLVALUE DUP1 ISZERO PUSH2 0x998 JUMPI PUSH1 0x0 DUP1 REVERT JUMPDEST POP PUSH2 0x1E0 PUSH1 0x4 DUP1 CALLDATASIZE SUB PUSH1 0xE0 DUP2 LT ISZERO PUSH2 0x9AF JUMPI PUSH1 0x0 DUP1 REVERT JUMPDEST POP PUSH1 0x1 PUSH1 0x1 PUSH1 0xA0 SHL SUB DUP2 CALLDATALOAD DUP2 AND SWAP2 PUSH1 0x20 DUP2 ADD CALLDATALOAD DUP3 AND SWAP2 PUSH1 0x40 DUP3 ADD CALLDATALOAD SWAP2 PUSH1 0x60 DUP2 ADD CALLDATALOAD SWAP2 PUSH1 0x80 DUP3 ADD CALLDATALOAD SWAP2 PUSH1 0xA0 DUP2 ADD CALLDATALOAD SWAP1 SWAP2 AND SWAP1 PUSH1 0xC0 ADD CALLDATALOAD PUSH2 0x24F4 JUMP JUMPDEST CALLVALUE DUP1 ISZERO PUSH2 0x9F5 JUMPI PUSH1 0x0 DUP1 REVERT JUMPDEST POP PUSH2 0x863 PUSH2 0x2738 JUMP JUMPDEST CALLVALUE DUP1 ISZERO PUSH2 0xA0A JUMPI PUSH1 0x0 DUP1 REVERT JUMPDEST POP PUSH2 0x5B1 PUSH1 0x4 DUP1 CALLDATASIZE SUB PUSH1 0x80 DUP2 LT ISZERO PUSH2 0xA21 JUMPI PUSH1 0x0 DUP1 REVERT JUMPDEST POP DUP1 CALLDATALOAD SWAP1 PUSH1 0x20 DUP2 ADD CALLDATALOAD SWAP1 PUSH1 0x40 DUP2 ADD CALLDATALOAD SWAP1 PUSH1 0x60 ADD CALLDATALOAD PUSH1 0x1 PUSH1 0x1 PUSH1 0xA0 SHL SUB AND PUSH2 0x275C JUMP JUMPDEST CALLVALUE DUP1 ISZERO PUSH2 0xA4F JUMPI PUSH1 0x0 DUP1 REVERT JUMPDEST POP PUSH2 0x28F PUSH1 0x4 DUP1 CALLDATASIZE SUB PUSH1 0x40 DUP2 LT ISZERO PUSH2 0xA66 JUMPI PUSH1 0x0 DUP1 REVERT JUMPDEST DUP2 CALLDATALOAD SWAP2 SWAP1 DUP2 ADD SWAP1 PUSH1 0x40 DUP2 ADD PUSH1 0x20 DUP3 ADD CALLDATALOAD PUSH1 0x1 PUSH1 0x20 SHL DUP2 GT ISZERO PUSH2 0xA87 JUMPI PUSH1 0x0 DUP1 REVERT JUMPDEST DUP3 ADD DUP4 PUSH1 0x20 DUP3 ADD GT ISZERO PUSH2 0xA99 JUMPI PUSH1 0x0 DUP1 REVERT JUMPDEST DUP1 CALLDATALOAD SWAP1 PUSH1 0x20 ADD SWAP2 DUP5 PUSH1 0x20 DUP4 MUL DUP5 ADD GT PUSH1 0x1 PUSH1 0x20 SHL DUP4 GT OR ISZERO PUSH2 0xABA JUMPI PUSH1 0x0 DUP1 REVERT JUMPDEST SWAP2 SWAP1 DUP1 DUP1 PUSH1 0x20 MUL PUSH1 0x20 ADD PUSH1 0x40 MLOAD SWAP1 DUP2 ADD PUSH1 0x40 MSTORE DUP1 SWAP4 SWAP3 SWAP2 SWAP1 DUP2 DUP2 MSTORE PUSH1 0x20 ADD DUP4 DUP4 PUSH1 0x20 MUL DUP1 DUP3 DUP5 CALLDATACOPY PUSH1 0x0 SWAP3 ADD SWAP2 SWAP1 SWAP2 MSTORE POP SWAP3 SWAP6 POP PUSH2 0x278B SWAP5 POP POP POP POP POP JUMP JUMPDEST CALLVALUE DUP1 ISZERO PUSH2 0xB04 JUMPI PUSH1 0x0 DUP1 REVERT JUMPDEST POP PUSH2 0x1E0 PUSH1 0x4 DUP1 CALLDATASIZE SUB PUSH2 0x140 DUP2 LT ISZERO PUSH2 0xB1C JUMPI PUSH1 0x0 DUP1 REVERT JUMPDEST POP PUSH1 0x1 PUSH1 0x1 PUSH1 0xA0 SHL SUB DUP2 CALLDATALOAD DUP2 AND SWAP2 PUSH1 0x20 DUP2 ADD CALLDATALOAD SWAP2 PUSH1 0x40 DUP3 ADD CALLDATALOAD SWAP2 PUSH1 0x60 DUP2 ADD CALLDATALOAD SWAP2 PUSH1 0x80 DUP3 ADD CALLDATALOAD AND SWAP1 PUSH1 0xA0 DUP2 ADD CALLDATALOAD SWAP1 PUSH1 0xC0 DUP2 ADD CALLDATALOAD ISZERO ISZERO SWAP1 PUSH1 0xFF PUSH1 0xE0 DUP3 ADD CALLDATALOAD AND SWAP1 PUSH2 0x100 DUP2 ADD CALLDATALOAD SWAP1 PUSH2 0x120 ADD CALLDATALOAD PUSH2 0x27B8 JUMP JUMPDEST CALLVALUE DUP1 ISZERO PUSH2 0xB77 JUMPI PUSH1 0x0 DUP1 REVERT JUMPDEST POP PUSH2 0xBCD PUSH1 0x4 DUP1 CALLDATASIZE SUB PUSH2 0x100 DUP2 LT ISZERO PUSH2 0xB8F JUMPI PUSH1 0x0 DUP1 REVERT JUMPDEST POP PUSH1 0x1 PUSH1 0x1 PUSH1 0xA0 SHL SUB DUP2 CALLDATALOAD DUP2 AND SWAP2 PUSH1 0x20 DUP2 ADD CALLDATALOAD DUP3 AND SWAP2 PUSH1 0x40 DUP3 ADD CALLDATALOAD SWAP2 PUSH1 0x60 DUP2 ADD CALLDATALOAD SWAP2 PUSH1 0x80 DUP3 ADD CALLDATALOAD SWAP2 PUSH1 0xA0 DUP2 ADD CALLDATALOAD SWAP2 PUSH1 0xC0 DUP3 ADD CALLDATALOAD AND SWAP1 PUSH1 0xE0 ADD CALLDATALOAD PUSH2 0x28CC JUMP JUMPDEST PUSH1 0x40 DUP1 MLOAD SWAP4 DUP5 MSTORE PUSH1 0x20 DUP5 ADD SWAP3 SWAP1 SWAP3 MSTORE DUP3 DUP3 ADD MSTORE MLOAD SWAP1 DUP2 SWAP1 SUB PUSH1 0x60 ADD SWAP1 RETURN JUMPDEST PUSH2 0xBCD PUSH1 0x4 DUP1 CALLDATASIZE SUB PUSH1 0xC0 DUP2 LT ISZERO PUSH2 0xC01 JUMPI PUSH1 0x0 DUP1 REVERT JUMPDEST POP PUSH1 0x1 PUSH1 0x1 PUSH1 0xA0 SHL SUB DUP2 CALLDATALOAD DUP2 AND SWAP2 PUSH1 0x20 DUP2 ADD CALLDATALOAD SWAP2 PUSH1 0x40 DUP3 ADD CALLDATALOAD SWAP2 PUSH1 0x60 DUP2 ADD CALLDATALOAD SWAP2 PUSH1 0x80 DUP3 ADD CALLDATALOAD AND SWAP1 PUSH1 0xA0 ADD CALLDATALOAD PUSH2 0x2A08 JUMP JUMPDEST PUSH2 0x28F PUSH1 0x4 DUP1 CALLDATASIZE SUB PUSH1 0x80 DUP2 LT ISZERO PUSH2 0xC47 JUMPI PUSH1 0x0 DUP1 REVERT JUMPDEST DUP2 CALLDATALOAD SWAP2 SWAP1 DUP2 ADD SWAP1 PUSH1 0x40 DUP2 ADD PUSH1 0x20 DUP3 ADD CALLDATALOAD PUSH1 0x1 PUSH1 0x20 SHL DUP2 GT ISZERO PUSH2 0xC68 JUMPI PUSH1 0x0 DUP1 REVERT JUMPDEST DUP3 ADD DUP4 PUSH1 0x20 DUP3 ADD GT ISZERO PUSH2 0xC7A JUMPI PUSH1 0x0 DUP1 REVERT JUMPDEST DUP1 CALLDATALOAD SWAP1 PUSH1 0x20 ADD SWAP2 DUP5 PUSH1 0x20 DUP4 MUL DUP5 ADD GT PUSH1 0x1 PUSH1 0x20 SHL DUP4 GT OR ISZERO PUSH2 0xC9B JUMPI PUSH1 0x0 DUP1 REVERT JUMPDEST SWAP2 SWAP4 POP SWAP2 POP PUSH1 0x1 PUSH1 0x1 PUSH1 0xA0 SHL SUB DUP2 CALLDATALOAD AND SWAP1 PUSH1 0x20 ADD CALLDATALOAD PUSH2 0x2CAD JUMP JUMPDEST PUSH1 0x0 DUP1 DUP3 TIMESTAMP DUP2 LT ISZERO PUSH2 0xCFC JUMPI PUSH1 0x40 DUP1 MLOAD PUSH3 0x461BCD PUSH1 0xE5 SHL DUP2 MSTORE PUSH1 0x20 PUSH1 0x4 DUP3 ADD MSTORE PUSH1 0x18 PUSH1 0x24 DUP3 ADD MSTORE PUSH1 0x0 DUP1 MLOAD PUSH1 0x20 PUSH2 0x4790 DUP4 CODECOPY DUP2 MLOAD SWAP2 MSTORE PUSH1 0x44 DUP3 ADD MSTORE SWAP1 MLOAD SWAP1 DUP2 SWAP1 SUB PUSH1 0x64 ADD SWAP1 REVERT JUMPDEST PUSH2 0xD2B DUP10 PUSH32 0x0 DUP11 DUP11 DUP11 ADDRESS DUP11 PUSH2 0x24F4 JUMP JUMPDEST SWAP1 SWAP4 POP SWAP2 POP PUSH2 0xD3B DUP10 DUP7 DUP6 PUSH2 0x302F JUMP JUMPDEST PUSH32 0x0 PUSH1 0x1 PUSH1 0x1 PUSH1 0xA0 SHL SUB AND PUSH4 0x2E1A7D4D DUP4 PUSH1 0x40 MLOAD DUP3 PUSH4 0xFFFFFFFF AND PUSH1 0xE0 SHL DUP2 MSTORE PUSH1 0x4 ADD DUP1 DUP3 DUP2 MSTORE PUSH1 0x20 ADD SWAP2 POP POP PUSH1 0x0 PUSH1 0x40 MLOAD DUP1 DUP4 SUB DUP2 PUSH1 0x0 DUP8 DUP1 EXTCODESIZE ISZERO DUP1 ISZERO PUSH2 0xDA1 JUMPI PUSH1 0x0 DUP1 REVERT JUMPDEST POP GAS CALL ISZERO DUP1 ISZERO PUSH2 0xDB5 JUMPI RETURNDATASIZE PUSH1 0x0 DUP1 RETURNDATACOPY RETURNDATASIZE PUSH1 0x0 REVERT JUMPDEST POP POP POP POP PUSH2 0xDC3 DUP6 DUP4 PUSH2 0x3183 JUMP JUMPDEST POP SWAP7 POP SWAP7 SWAP5 POP POP POP POP POP JUMP JUMPDEST PUSH1 0x60 DUP2 TIMESTAMP DUP2 LT ISZERO PUSH2 0xE15 JUMPI PUSH1 0x40 DUP1 MLOAD PUSH3 0x461BCD PUSH1 0xE5 SHL DUP2 MSTORE PUSH1 0x20 PUSH1 0x4 DUP3 ADD MSTORE PUSH1 0x18 PUSH1 0x24 DUP3 ADD MSTORE PUSH1 0x0 DUP1 MLOAD PUSH1 0x20 PUSH2 0x4790 DUP4 CODECOPY DUP2 MLOAD SWAP2 MSTORE PUSH1 0x44 DUP3 ADD MSTORE SWAP1 MLOAD SWAP1 DUP2 SWAP1 SUB PUSH1 0x64 ADD SWAP1 REVERT JUMPDEST PUSH1 0x1 PUSH1 0x1 PUSH1 0xA0 SHL SUB PUSH32 0x0 AND DUP7 DUP7 PUSH1 0x0 NOT DUP2 ADD DUP2 DUP2 LT PUSH2 0xE4F JUMPI INVALID JUMPDEST SWAP1 POP PUSH1 0x20 MUL ADD CALLDATALOAD PUSH1 0x1 PUSH1 0x1 PUSH1 0xA0 SHL SUB AND PUSH1 0x1 PUSH1 0x1 PUSH1 0xA0 SHL SUB AND EQ PUSH2 0xEA8 JUMPI PUSH1 0x40 DUP1 MLOAD PUSH3 0x461BCD PUSH1 0xE5 SHL DUP2 MSTORE PUSH1 0x20 PUSH1 0x4 DUP3 ADD MSTORE PUSH1 0x1D PUSH1 0x24 DUP3 ADD MSTORE PUSH1 0x0 DUP1 MLOAD PUSH1 0x20 PUSH2 0x46C7 DUP4 CODECOPY DUP2 MLOAD SWAP2 MSTORE PUSH1 0x44 DUP3 ADD MSTORE SWAP1 MLOAD SWAP1 DUP2 SWAP1 SUB PUSH1 0x64 ADD SWAP1 REVERT JUMPDEST PUSH2 0xF06 PUSH32 0x0 DUP10 DUP9 DUP9 DUP1 DUP1 PUSH1 0x20 MUL PUSH1 0x20 ADD PUSH1 0x40 MLOAD SWAP1 DUP2 ADD PUSH1 0x40 MSTORE DUP1 SWAP4 SWAP3 SWAP2 SWAP1 DUP2 DUP2 MSTORE PUSH1 0x20 ADD DUP4 DUP4 PUSH1 0x20 MUL DUP1 DUP3 DUP5 CALLDATACOPY PUSH1 0x0 SWAP3 ADD SWAP2 SWAP1 SWAP2 MSTORE POP PUSH2 0x327B SWAP3 POP POP POP JUMP JUMPDEST SWAP2 POP DUP7 DUP3 PUSH1 0x1 DUP5 MLOAD SUB DUP2 MLOAD DUP2 LT PUSH2 0xF19 JUMPI INVALID JUMPDEST PUSH1 0x20 MUL PUSH1 0x20 ADD ADD MLOAD LT ISZERO PUSH2 0xF5E JUMPI PUSH1 0x40 MLOAD PUSH3 0x461BCD PUSH1 0xE5 SHL DUP2 MSTORE PUSH1 0x4 ADD DUP1 DUP1 PUSH1 0x20 ADD DUP3 DUP2 SUB DUP3 MSTORE PUSH1 0x2B DUP2 MSTORE PUSH1 0x20 ADD DUP1 PUSH2 0x470D PUSH1 0x2B SWAP2 CODECOPY PUSH1 0x40 ADD SWAP2 POP POP PUSH1 0x40 MLOAD DUP1 SWAP2 SUB SWAP1 REVERT JUMPDEST PUSH2 0xFFC DUP7 DUP7 PUSH1 0x0 DUP2 DUP2 LT PUSH2 0xF6E JUMPI INVALID JUMPDEST SWAP1 POP PUSH1 0x20 MUL ADD CALLDATALOAD PUSH1 0x1 PUSH1 0x1 PUSH1 0xA0 SHL SUB AND CALLER PUSH2 0xFE2 PUSH32 0x0 DUP11 DUP11 PUSH1 0x0 DUP2 DUP2 LT PUSH2 0xFB0 JUMPI INVALID JUMPDEST SWAP1 POP PUSH1 0x20 MUL ADD CALLDATALOAD PUSH1 0x1 PUSH1 0x1 PUSH1 0xA0 SHL SUB AND DUP12 DUP12 PUSH1 0x1 DUP2 DUP2 LT PUSH2 0xFCD JUMPI INVALID JUMPDEST SWAP1 POP PUSH1 0x20 MUL ADD CALLDATALOAD PUSH1 0x1 PUSH1 0x1 PUSH1 0xA0 SHL SUB AND PUSH2 0x33DC JUMP JUMPDEST DUP6 PUSH1 0x0 DUP2 MLOAD DUP2 LT PUSH2 0xFEF JUMPI INVALID JUMPDEST PUSH1 0x20 MUL PUSH1 0x20 ADD ADD MLOAD PUSH2 0x349C JUMP JUMPDEST PUSH2 0x103B DUP3 DUP8 DUP8 DUP1 DUP1 PUSH1 0x20 MUL PUSH1 0x20 ADD PUSH1 0x40 MLOAD SWAP1 DUP2 ADD PUSH1 0x40 MSTORE DUP1 SWAP4 SWAP3 SWAP2 SWAP1 DUP2 DUP2 MSTORE PUSH1 0x20 ADD DUP4 DUP4 PUSH1 0x20 MUL DUP1 DUP3 DUP5 CALLDATACOPY PUSH1 0x0 SWAP3 ADD SWAP2 SWAP1 SWAP2 MSTORE POP ADDRESS SWAP3 POP PUSH2 0x35F9 SWAP2 POP POP JUMP JUMPDEST PUSH32 0x0 PUSH1 0x1 PUSH1 0x1 PUSH1 0xA0 SHL SUB AND PUSH4 0x2E1A7D4D DUP4 PUSH1 0x1 DUP6 MLOAD SUB DUP2 MLOAD DUP2 LT PUSH2 0x107A JUMPI INVALID JUMPDEST PUSH1 0x20 MUL PUSH1 0x20 ADD ADD MLOAD PUSH1 0x40 MLOAD DUP3 PUSH4 0xFFFFFFFF AND PUSH1 0xE0 SHL DUP2 MSTORE PUSH1 0x4 ADD DUP1 DUP3 DUP2 MSTORE PUSH1 0x20 ADD SWAP2 POP POP PUSH1 0x0 PUSH1 0x40 MLOAD DUP1 DUP4 SUB DUP2 PUSH1 0x0 DUP8 DUP1 EXTCODESIZE ISZERO DUP1 ISZERO PUSH2 0x10B8 JUMPI PUSH1 0x0 DUP1 REVERT JUMPDEST POP GAS CALL ISZERO DUP1 ISZERO PUSH2 0x10CC JUMPI RETURNDATASIZE PUSH1 0x0 DUP1 RETURNDATACOPY RETURNDATASIZE PUSH1 0x0 REVERT JUMPDEST POP POP POP POP PUSH2 0x10F1 DUP5 DUP4 PUSH1 0x1 DUP6 MLOAD SUB DUP2 MLOAD DUP2 LT PUSH2 0x10E4 JUMPI INVALID JUMPDEST PUSH1 0x20 MUL PUSH1 0x20 ADD ADD MLOAD PUSH2 0x3183 JUMP JUMPDEST POP SWAP7 SWAP6 POP POP POP POP POP POP JUMP JUMPDEST PUSH1 0x60 PUSH2 0x1129 PUSH32 0x0 DUP5 DUP5 PUSH2 0x383F JUMP JUMPDEST SWAP1 POP JUMPDEST SWAP3 SWAP2 POP POP JUMP JUMPDEST PUSH1 0x0 DUP1 PUSH1 0x0 PUSH2 0x1162 PUSH32 0x0 DUP16 DUP16 PUSH2 0x33DC JUMP JUMPDEST SWAP1 POP PUSH1 0x0 DUP8 PUSH2 0x1171 JUMPI DUP13 PUSH2 0x1175 JUMP JUMPDEST PUSH1 0x0 NOT JUMPDEST PUSH1 0x40 DUP1 MLOAD PUSH4 0xD505ACCF PUSH1 0xE0 SHL DUP2 MSTORE CALLER PUSH1 0x4 DUP3 ADD MSTORE ADDRESS PUSH1 0x24 DUP3 ADD MSTORE PUSH1 0x44 DUP2 ADD DUP4 SWAP1 MSTORE PUSH1 0x64 DUP2 ADD DUP13 SWAP1 MSTORE PUSH1 0xFF DUP11 AND PUSH1 0x84 DUP3 ADD MSTORE PUSH1 0xA4 DUP2 ADD DUP10 SWAP1 MSTORE PUSH1 0xC4 DUP2 ADD DUP9 SWAP1 MSTORE SWAP1 MLOAD SWAP2 SWAP3 POP PUSH1 0x1 PUSH1 0x1 PUSH1 0xA0 SHL SUB DUP5 AND SWAP2 PUSH4 0xD505ACCF SWAP2 PUSH1 0xE4 DUP1 DUP3 ADD SWAP3 PUSH1 0x0 SWAP3 SWAP1 SWAP2 SWAP1 DUP3 SWAP1 SUB ADD DUP2 DUP4 DUP8 DUP1 EXTCODESIZE ISZERO DUP1 ISZERO PUSH2 0x11EB JUMPI PUSH1 0x0 DUP1 REVERT JUMPDEST POP GAS CALL ISZERO DUP1 ISZERO PUSH2 0x11FF JUMPI RETURNDATASIZE PUSH1 0x0 DUP1 RETURNDATACOPY RETURNDATASIZE PUSH1 0x0 REVERT JUMPDEST POP POP POP POP PUSH2 0x1212 DUP16 DUP16 DUP16 DUP16 DUP16 DUP16 DUP16 PUSH2 0x24F4 JUMP JUMPDEST DUP1 SWAP5 POP DUP2 SWAP6 POP POP POP POP POP SWAP12 POP SWAP12 SWAP10 POP POP POP POP POP POP POP POP POP POP JUMP JUMPDEST PUSH1 0x60 DUP2 TIMESTAMP DUP2 LT ISZERO PUSH2 0x1272 JUMPI PUSH1 0x40 DUP1 MLOAD PUSH3 0x461BCD PUSH1 0xE5 SHL DUP2 MSTORE PUSH1 0x20 PUSH1 0x4 DUP3 ADD MSTORE PUSH1 0x18 PUSH1 0x24 DUP3 ADD MSTORE PUSH1 0x0 DUP1 MLOAD PUSH1 0x20 PUSH2 0x4790 DUP4 CODECOPY DUP2 MLOAD SWAP2 MSTORE PUSH1 0x44 DUP3 ADD MSTORE SWAP1 MLOAD SWAP1 DUP2 SWAP1 SUB PUSH1 0x64 ADD SWAP1 REVERT JUMPDEST PUSH2 0x12D0 PUSH32 0x0 DUP10 DUP9 DUP9 DUP1 DUP1 PUSH1 0x20 MUL PUSH1 0x20 ADD PUSH1 0x40 MLOAD SWAP1 DUP2 ADD PUSH1 0x40 MSTORE DUP1 SWAP4 SWAP3 SWAP2 SWAP1 DUP2 DUP2 MSTORE PUSH1 0x20 ADD DUP4 DUP4 PUSH1 0x20 MUL DUP1 DUP3 DUP5 CALLDATACOPY PUSH1 0x0 SWAP3 ADD SWAP2 SWAP1 SWAP2 MSTORE POP PUSH2 0x327B SWAP3 POP POP POP JUMP JUMPDEST SWAP2 POP DUP7 DUP3 PUSH1 0x1 DUP5 MLOAD SUB DUP2 MLOAD DUP2 LT PUSH2 0x12E3 JUMPI INVALID JUMPDEST PUSH1 0x20 MUL PUSH1 0x20 ADD ADD MLOAD LT ISZERO PUSH2 0x1328 JUMPI PUSH1 0x40 MLOAD PUSH3 0x461BCD PUSH1 0xE5 SHL DUP2 MSTORE PUSH1 0x4 ADD DUP1 DUP1 PUSH1 0x20 ADD DUP3 DUP2 SUB DUP3 MSTORE PUSH1 0x2B DUP2 MSTORE PUSH1 0x20 ADD DUP1 PUSH2 0x470D PUSH1 0x2B SWAP2 CODECOPY PUSH1 0x40 ADD SWAP2 POP POP PUSH1 0x40 MLOAD DUP1 SWAP2 SUB SWAP1 REVERT JUMPDEST PUSH2 0x1338 DUP7 DUP7 PUSH1 0x0 DUP2 DUP2 LT PUSH2 0xF6E JUMPI INVALID JUMPDEST PUSH2 0x10F1 DUP3 DUP8 DUP8 DUP1 DUP1 PUSH1 0x20 MUL PUSH1 0x20 ADD PUSH1 0x40 MLOAD SWAP1 DUP2 ADD PUSH1 0x40 MSTORE DUP1 SWAP4 SWAP3 SWAP2 SWAP1 DUP2 DUP2 MSTORE PUSH1 0x20 ADD DUP4 DUP4 PUSH1 0x20 MUL DUP1 DUP3 DUP5 CALLDATACOPY PUSH1 0x0 SWAP3 ADD SWAP2 SWAP1 SWAP2 MSTORE POP DUP10 SWAP3 POP PUSH2 0x35F9 SWAP2 POP POP JUMP JUMPDEST PUSH1 0x60 DUP2 TIMESTAMP DUP2 LT ISZERO PUSH2 0x13BD JUMPI PUSH1 0x40 DUP1 MLOAD PUSH3 0x461BCD PUSH1 0xE5 SHL DUP2 MSTORE PUSH1 0x20 PUSH1 0x4 DUP3 ADD MSTORE PUSH1 0x18 PUSH1 0x24 DUP3 ADD MSTORE PUSH1 0x0 DUP1 MLOAD PUSH1 0x20 PUSH2 0x4790 DUP4 CODECOPY DUP2 MLOAD SWAP2 MSTORE PUSH1 0x44 DUP3 ADD MSTORE SWAP1 MLOAD SWAP1 DUP2 SWAP1 SUB PUSH1 0x64 ADD SWAP1 REVERT JUMPDEST PUSH1 0x1 PUSH1 0x1 PUSH1 0xA0 SHL SUB PUSH32 0x0 AND DUP7 DUP7 PUSH1 0x0 NOT DUP2 ADD DUP2 DUP2 LT PUSH2 0x13F7 JUMPI INVALID JUMPDEST SWAP1 POP PUSH1 0x20 MUL ADD CALLDATALOAD PUSH1 0x1 PUSH1 0x1 PUSH1 0xA0 SHL SUB AND PUSH1 0x1 PUSH1 0x1 PUSH1 0xA0 SHL SUB AND EQ PUSH2 0x1450 JUMPI PUSH1 0x40 DUP1 MLOAD PUSH3 0x461BCD PUSH1 0xE5 SHL DUP2 MSTORE PUSH1 0x20 PUSH1 0x4 DUP3 ADD MSTORE PUSH1 0x1D PUSH1 0x24 DUP3 ADD MSTORE PUSH1 0x0 DUP1 MLOAD PUSH1 0x20 PUSH2 0x46C7 DUP4 CODECOPY DUP2 MLOAD SWAP2 MSTORE PUSH1 0x44 DUP3 ADD MSTORE SWAP1 MLOAD SWAP1 DUP2 SWAP1 SUB PUSH1 0x64 ADD SWAP1 REVERT JUMPDEST PUSH2 0x14AE PUSH32 0x0 DUP10 DUP9 DUP9 DUP1 DUP1 PUSH1 0x20 MUL PUSH1 0x20 ADD PUSH1 0x40 MLOAD SWAP1 DUP2 ADD PUSH1 0x40 MSTORE DUP1 SWAP4 SWAP3 SWAP2 SWAP1 DUP2 DUP2 MSTORE PUSH1 0x20 ADD DUP4 DUP4 PUSH1 0x20 MUL DUP1 DUP3 DUP5 CALLDATACOPY PUSH1 0x0 SWAP3 ADD SWAP2 SWAP1 SWAP2 MSTORE POP PUSH2 0x383F SWAP3 POP POP POP JUMP JUMPDEST SWAP2 POP DUP7 DUP3 PUSH1 0x0 DUP2 MLOAD DUP2 LT PUSH2 0x14BE JUMPI INVALID JUMPDEST PUSH1 0x20 MUL PUSH1 0x20 ADD ADD MLOAD GT ISZERO PUSH2 0xF5E JUMPI PUSH1 0x40 MLOAD PUSH3 0x461BCD PUSH1 0xE5 SHL DUP2 MSTORE PUSH1 0x4 ADD DUP1 DUP1 PUSH1 0x20 ADD DUP3 DUP2 SUB DUP3 MSTORE PUSH1 0x27 DUP2 MSTORE PUSH1 0x20 ADD DUP1 PUSH2 0x46A0 PUSH1 0x27 SWAP2 CODECOPY PUSH1 0x40 ADD SWAP2 POP POP PUSH1 0x40 MLOAD DUP1 SWAP2 SUB SWAP1 REVERT JUMPDEST PUSH1 0x0 DUP1 PUSH2 0x1551 PUSH32 0x0 DUP14 PUSH32 0x0 PUSH2 0x33DC JUMP JUMPDEST SWAP1 POP PUSH1 0x0 DUP7 PUSH2 0x1560 JUMPI DUP12 PUSH2 0x1564 JUMP JUMPDEST PUSH1 0x0 NOT JUMPDEST PUSH1 0x40 DUP1 MLOAD PUSH4 0xD505ACCF PUSH1 0xE0 SHL DUP2 MSTORE CALLER PUSH1 0x4 DUP3 ADD MSTORE ADDRESS PUSH1 0x24 DUP3 ADD MSTORE PUSH1 0x44 DUP2 ADD DUP4 SWAP1 MSTORE PUSH1 0x64 DUP2 ADD DUP12 SWAP1 MSTORE PUSH1 0xFF DUP10 AND PUSH1 0x84 DUP3 ADD MSTORE PUSH1 0xA4 DUP2 ADD DUP9 SWAP1 MSTORE PUSH1 0xC4 DUP2 ADD DUP8 SWAP1 MSTORE SWAP1 MLOAD SWAP2 SWAP3 POP PUSH1 0x1 PUSH1 0x1 PUSH1 0xA0 SHL SUB DUP5 AND SWAP2 PUSH4 0xD505ACCF SWAP2 PUSH1 0xE4 DUP1 DUP3 ADD SWAP3 PUSH1 0x0 SWAP3 SWAP1 SWAP2 SWAP1 DUP3 SWAP1 SUB ADD DUP2 DUP4 DUP8 DUP1 EXTCODESIZE ISZERO DUP1 ISZERO PUSH2 0x15DA JUMPI PUSH1 0x0 DUP1 REVERT JUMPDEST POP GAS CALL ISZERO DUP1 ISZERO PUSH2 0x15EE JUMPI RETURNDATASIZE PUSH1 0x0 DUP1 RETURNDATACOPY RETURNDATASIZE PUSH1 0x0 REVERT JUMPDEST POP POP POP POP PUSH2 0x1600 DUP14 DUP14 DUP14 DUP14 DUP14 DUP14 PUSH2 0x1FE7 JUMP JUMPDEST SWAP14 SWAP13 POP POP POP POP POP POP POP POP POP POP POP POP POP JUMP JUMPDEST DUP1 TIMESTAMP DUP2 LT ISZERO PUSH2 0x1655 JUMPI PUSH1 0x40 DUP1 MLOAD PUSH3 0x461BCD PUSH1 0xE5 SHL DUP2 MSTORE PUSH1 0x20 PUSH1 0x4 DUP3 ADD MSTORE PUSH1 0x18 PUSH1 0x24 DUP3 ADD MSTORE PUSH1 0x0 DUP1 MLOAD PUSH1 0x20 PUSH2 0x4790 DUP4 CODECOPY DUP2 MLOAD SWAP2 MSTORE PUSH1 0x44 DUP3 ADD MSTORE SWAP1 MLOAD SWAP1 DUP2 SWAP1 SUB PUSH1 0x64 ADD SWAP1 REVERT JUMPDEST PUSH2 0x16CA DUP6 DUP6 PUSH1 0x0 DUP2 DUP2 LT PUSH2 0x1665 JUMPI INVALID JUMPDEST SWAP1 POP PUSH1 0x20 MUL ADD CALLDATALOAD PUSH1 0x1 PUSH1 0x1 PUSH1 0xA0 SHL SUB AND CALLER PUSH2 0x16C4 PUSH32 0x0 DUP10 DUP10 PUSH1 0x0 DUP2 DUP2 LT PUSH2 0x16A7 JUMPI INVALID JUMPDEST SWAP1 POP PUSH1 0x20 MUL ADD CALLDATALOAD PUSH1 0x1 PUSH1 0x1 PUSH1 0xA0 SHL SUB AND DUP11 DUP11 PUSH1 0x1 DUP2 DUP2 LT PUSH2 0xFCD JUMPI INVALID JUMPDEST DUP11 PUSH2 0x349C JUMP JUMPDEST PUSH1 0x0 DUP6 DUP6 PUSH1 0x0 NOT DUP2 ADD DUP2 DUP2 LT PUSH2 0x16DC JUMPI INVALID JUMPDEST SWAP1 POP PUSH1 0x20 MUL ADD CALLDATALOAD PUSH1 0x1 PUSH1 0x1 PUSH1 0xA0 SHL SUB AND PUSH1 0x1 PUSH1 0x1 PUSH1 0xA0 SHL SUB AND PUSH4 0x70A08231 DUP6 PUSH1 0x40 MLOAD DUP3 PUSH4 0xFFFFFFFF AND PUSH1 0xE0 SHL DUP2 MSTORE PUSH1 0x4 ADD DUP1 DUP3 PUSH1 0x1 PUSH1 0x1 PUSH1 0xA0 SHL SUB AND PUSH1 0x1 PUSH1 0x1 PUSH1 0xA0 SHL SUB AND DUP2 MSTORE PUSH1 0x20 ADD SWAP2 POP POP PUSH1 0x20 PUSH1 0x40 MLOAD DUP1 DUP4 SUB DUP2 DUP7 DUP1 EXTCODESIZE ISZERO DUP1 ISZERO PUSH2 0x1741 JUMPI PUSH1 0x0 DUP1 REVERT JUMPDEST POP GAS STATICCALL ISZERO DUP1 ISZERO PUSH2 0x1755 JUMPI RETURNDATASIZE PUSH1 0x0 DUP1 RETURNDATACOPY RETURNDATASIZE PUSH1 0x0 REVERT JUMPDEST POP POP POP POP PUSH1 0x40 MLOAD RETURNDATASIZE PUSH1 0x20 DUP2 LT ISZERO PUSH2 0x176B JUMPI PUSH1 0x0 DUP1 REVERT JUMPDEST POP MLOAD PUSH1 0x40 DUP1 MLOAD PUSH1 0x20 DUP9 DUP2 MUL DUP3 DUP2 ADD DUP3 ADD SWAP1 SWAP4 MSTORE DUP9 DUP3 MSTORE SWAP3 SWAP4 POP PUSH2 0x17AD SWAP3 SWAP1 SWAP2 DUP10 SWAP2 DUP10 SWAP2 DUP3 SWAP2 DUP6 ADD SWAP1 DUP5 SWAP1 DUP1 DUP3 DUP5 CALLDATACOPY PUSH1 0x0 SWAP3 ADD SWAP2 SWAP1 SWAP2 MSTORE POP DUP9 SWAP3 POP PUSH2 0x398C SWAP2 POP POP JUMP JUMPDEST DUP7 PUSH2 0x185F DUP3 DUP9 DUP9 PUSH1 0x0 NOT DUP2 ADD DUP2 DUP2 LT PUSH2 0x17C2 JUMPI INVALID JUMPDEST SWAP1 POP PUSH1 0x20 MUL ADD CALLDATALOAD PUSH1 0x1 PUSH1 0x1 PUSH1 0xA0 SHL SUB AND PUSH1 0x1 PUSH1 0x1 PUSH1 0xA0 SHL SUB AND PUSH4 0x70A08231 DUP9 PUSH1 0x40 MLOAD DUP3 PUSH4 0xFFFFFFFF AND PUSH1 0xE0 SHL DUP2 MSTORE PUSH1 0x4 ADD DUP1 DUP3 PUSH1 0x1 PUSH1 0x1 PUSH1 0xA0 SHL SUB AND PUSH1 0x1 PUSH1 0x1 PUSH1 0xA0 SHL SUB AND DUP2 MSTORE PUSH1 0x20 ADD SWAP2 POP POP PUSH1 0x20 PUSH1 0x40 MLOAD DUP1 DUP4 SUB DUP2 DUP7 DUP1 EXTCODESIZE ISZERO DUP1 ISZERO PUSH2 0x1827 JUMPI PUSH1 0x0 DUP1 REVERT JUMPDEST POP GAS STATICCALL ISZERO DUP1 ISZERO PUSH2 0x183B JUMPI RETURNDATASIZE PUSH1 0x0 DUP1 RETURNDATACOPY RETURNDATASIZE PUSH1 0x0 REVERT JUMPDEST POP POP POP POP PUSH1 0x40 MLOAD RETURNDATASIZE PUSH1 0x20 DUP2 LT ISZERO PUSH2 0x1851 JUMPI PUSH1 0x0 DUP1 REVERT JUMPDEST POP MLOAD SWAP1 PUSH4 0xFFFFFFFF PUSH2 0x3CB9 AND JUMP JUMPDEST LT ISZERO PUSH2 0x189C JUMPI PUSH1 0x40 MLOAD PUSH3 0x461BCD PUSH1 0xE5 SHL DUP2 MSTORE PUSH1 0x4 ADD DUP1 DUP1 PUSH1 0x20 ADD DUP3 DUP2 SUB DUP3 MSTORE PUSH1 0x2B DUP2 MSTORE PUSH1 0x20 ADD DUP1 PUSH2 0x470D PUSH1 0x2B SWAP2 CODECOPY PUSH1 0x40 ADD SWAP2 POP POP PUSH1 0x40 MLOAD DUP1 SWAP2 SUB SWAP1 REVERT JUMPDEST POP POP POP POP POP POP POP POP JUMP JUMPDEST DUP1 TIMESTAMP DUP2 LT ISZERO PUSH2 0x18EA JUMPI PUSH1 0x40 DUP1 MLOAD PUSH3 0x461BCD PUSH1 0xE5 SHL DUP2 MSTORE PUSH1 0x20 PUSH1 0x4 DUP3 ADD MSTORE PUSH1 0x18 PUSH1 0x24 DUP3 ADD MSTORE PUSH1 0x0 DUP1 MLOAD PUSH1 0x20 PUSH2 0x4790 DUP4 CODECOPY DUP2 MLOAD SWAP2 MSTORE PUSH1 0x44 DUP3 ADD MSTORE SWAP1 MLOAD SWAP1 DUP2 SWAP1 SUB PUSH1 0x64 ADD SWAP1 REVERT JUMPDEST PUSH1 0x1 PUSH1 0x1 PUSH1 0xA0 SHL SUB PUSH32 0x0 AND DUP6 DUP6 PUSH1 0x0 NOT DUP2 ADD DUP2 DUP2 LT PUSH2 0x1924 JUMPI INVALID JUMPDEST SWAP1 POP PUSH1 0x20 MUL ADD CALLDATALOAD PUSH1 0x1 PUSH1 0x1 PUSH1 0xA0 SHL SUB AND PUSH1 0x1 PUSH1 0x1 PUSH1 0xA0 SHL SUB AND EQ PUSH2 0x197D JUMPI PUSH1 0x40 DUP1 MLOAD PUSH3 0x461BCD PUSH1 0xE5 SHL DUP2 MSTORE PUSH1 0x20 PUSH1 0x4 DUP3 ADD MSTORE PUSH1 0x1D PUSH1 0x24 DUP3 ADD MSTORE PUSH1 0x0 DUP1 MLOAD PUSH1 0x20 PUSH2 0x46C7 DUP4 CODECOPY DUP2 MLOAD SWAP2 MSTORE PUSH1 0x44 DUP3 ADD MSTORE SWAP1 MLOAD SWAP1 DUP2 SWAP1 SUB PUSH1 0x64 ADD SWAP1 REVERT JUMPDEST PUSH2 0x198D DUP6 DUP6 PUSH1 0x0 DUP2 DUP2 LT PUSH2 0x1665 JUMPI INVALID JUMPDEST PUSH2 0x19CB DUP6 DUP6 DUP1 DUP1 PUSH1 0x20 MUL PUSH1 0x20 ADD PUSH1 0x40 MLOAD SWAP1 DUP2 ADD PUSH1 0x40 MSTORE DUP1 SWAP4 SWAP3 SWAP2 SWAP1 DUP2 DUP2 MSTORE PUSH1 0x20 ADD DUP4 DUP4 PUSH1 0x20 MUL DUP1 DUP3 DUP5 CALLDATACOPY PUSH1 0x0 SWAP3 ADD SWAP2 SWAP1 SWAP2 MSTORE POP ADDRESS SWAP3 POP PUSH2 0x398C SWAP2 POP POP JUMP JUMPDEST PUSH1 0x40 DUP1 MLOAD PUSH4 0x70A08231 PUSH1 0xE0 SHL DUP2 MSTORE ADDRESS PUSH1 0x4 DUP3 ADD MSTORE SWAP1 MLOAD PUSH1 0x0 SWAP2 PUSH1 0x1 PUSH1 0x1 PUSH1 0xA0 SHL SUB PUSH32 0x0 AND SWAP2 PUSH4 0x70A08231 SWAP2 PUSH1 0x24 DUP1 DUP3 ADD SWAP3 PUSH1 0x20 SWAP3 SWAP1 SWAP2 SWAP1 DUP3 SWAP1 SUB ADD DUP2 DUP7 DUP1 EXTCODESIZE ISZERO DUP1 ISZERO PUSH2 0x1A35 JUMPI PUSH1 0x0 DUP1 REVERT JUMPDEST POP GAS STATICCALL ISZERO DUP1 ISZERO PUSH2 0x1A49 JUMPI RETURNDATASIZE PUSH1 0x0 DUP1 RETURNDATACOPY RETURNDATASIZE PUSH1 0x0 REVERT JUMPDEST POP POP POP POP PUSH1 0x40 MLOAD RETURNDATASIZE PUSH1 0x20 DUP2 LT ISZERO PUSH2 0x1A5F JUMPI PUSH1 0x0 DUP1 REVERT JUMPDEST POP MLOAD SWAP1 POP DUP7 DUP2 LT ISZERO PUSH2 0x1AA2 JUMPI PUSH1 0x40 MLOAD PUSH3 0x461BCD PUSH1 0xE5 SHL DUP2 MSTORE PUSH1 0x4 ADD DUP1 DUP1 PUSH1 0x20 ADD DUP3 DUP2 SUB DUP3 MSTORE PUSH1 0x2B DUP2 MSTORE PUSH1 0x20 ADD DUP1 PUSH2 0x470D PUSH1 0x2B SWAP2 CODECOPY PUSH1 0x40 ADD SWAP2 POP POP PUSH1 0x40 MLOAD DUP1 SWAP2 SUB SWAP1 REVERT JUMPDEST PUSH32 0x0 PUSH1 0x1 PUSH1 0x1 PUSH1 0xA0 SHL SUB AND PUSH4 0x2E1A7D4D DUP3 PUSH1 0x40 MLOAD DUP3 PUSH4 0xFFFFFFFF AND PUSH1 0xE0 SHL DUP2 MSTORE PUSH1 0x4 ADD DUP1 DUP3 DUP2 MSTORE PUSH1 0x20 ADD SWAP2 POP POP PUSH1 0x0 PUSH1 0x40 MLOAD DUP1 DUP4 SUB DUP2 PUSH1 0x0 DUP8 DUP1 EXTCODESIZE ISZERO DUP1 ISZERO PUSH2 0x1B08 JUMPI PUSH1 0x0 DUP1 REVERT JUMPDEST POP GAS CALL ISZERO DUP1 ISZERO PUSH2 0x1B1C JUMPI RETURNDATASIZE PUSH1 0x0 DUP1 RETURNDATACOPY RETURNDATASIZE PUSH1 0x0 REVERT JUMPDEST POP POP POP POP PUSH2 0x189C DUP5 DUP3 PUSH2 0x3183 JUMP JUMPDEST PUSH1 0x60 DUP2 TIMESTAMP DUP2 LT ISZERO PUSH2 0x1B70 JUMPI PUSH1 0x40 DUP1 MLOAD PUSH3 0x461BCD PUSH1 0xE5 SHL DUP2 MSTORE PUSH1 0x20 PUSH1 0x4 DUP3 ADD MSTORE PUSH1 0x18 PUSH1 0x24 DUP3 ADD MSTORE PUSH1 0x0 DUP1 MLOAD PUSH1 0x20 PUSH2 0x4790 DUP4 CODECOPY DUP2 MLOAD SWAP2 MSTORE PUSH1 0x44 DUP3 ADD MSTORE SWAP1 MLOAD SWAP1 DUP2 SWAP1 SUB PUSH1 0x64 ADD SWAP1 REVERT JUMPDEST PUSH32 0x0 PUSH1 0x1 PUSH1 0x1 PUSH1 0xA0 SHL SUB AND DUP7 DUP7 PUSH1 0x0 DUP2 DUP2 LT PUSH2 0x1BA7 JUMPI INVALID JUMPDEST SWAP1 POP PUSH1 0x20 MUL ADD CALLDATALOAD PUSH1 0x1 PUSH1 0x1 PUSH1 0xA0 SHL SUB AND PUSH1 0x1 PUSH1 0x1 PUSH1 0xA0 SHL SUB AND EQ PUSH2 0x1C00 JUMPI PUSH1 0x40 DUP1 MLOAD PUSH3 0x461BCD PUSH1 0xE5 SHL DUP2 MSTORE PUSH1 0x20 PUSH1 0x4 DUP3 ADD MSTORE PUSH1 0x1D PUSH1 0x24 DUP3 ADD MSTORE PUSH1 0x0 DUP1 MLOAD PUSH1 0x20 PUSH2 0x46C7 DUP4 CODECOPY DUP2 MLOAD SWAP2 MSTORE PUSH1 0x44 DUP3 ADD MSTORE SWAP1 MLOAD SWAP1 DUP2 SWAP1 SUB PUSH1 0x64 ADD SWAP1 REVERT JUMPDEST PUSH2 0x1C5E PUSH32 0x0 CALLVALUE DUP9 DUP9 DUP1 DUP1 PUSH1 0x20 MUL PUSH1 0x20 ADD PUSH1 0x40 MLOAD SWAP1 DUP2 ADD PUSH1 0x40 MSTORE DUP1 SWAP4 SWAP3 SWAP2 SWAP1 DUP2 DUP2 MSTORE PUSH1 0x20 ADD DUP4 DUP4 PUSH1 0x20 MUL DUP1 DUP3 DUP5 CALLDATACOPY PUSH1 0x0 SWAP3 ADD SWAP2 SWAP1 SWAP2 MSTORE POP PUSH2 0x327B SWAP3 POP POP POP JUMP JUMPDEST SWAP2 POP DUP7 DUP3 PUSH1 0x1 DUP5 MLOAD SUB DUP2 MLOAD DUP2 LT PUSH2 0x1C71 JUMPI INVALID JUMPDEST PUSH1 0x20 MUL PUSH1 0x20 ADD ADD MLOAD LT ISZERO PUSH2 0x1CB6 JUMPI PUSH1 0x40 MLOAD PUSH3 0x461BCD PUSH1 0xE5 SHL DUP2 MSTORE PUSH1 0x4 ADD DUP1 DUP1 PUSH1 0x20 ADD DUP3 DUP2 SUB DUP3 MSTORE PUSH1 0x2B DUP2 MSTORE PUSH1 0x20 ADD DUP1 PUSH2 0x470D PUSH1 0x2B SWAP2 CODECOPY PUSH1 0x40 ADD SWAP2 POP POP PUSH1 0x40 MLOAD DUP1 SWAP2 SUB SWAP1 REVERT JUMPDEST PUSH32 0x0 PUSH1 0x1 PUSH1 0x1 PUSH1 0xA0 SHL SUB AND PUSH4 0xD0E30DB0 DUP4 PUSH1 0x0 DUP2 MLOAD DUP2 LT PUSH2 0x1CF2 JUMPI INVALID JUMPDEST PUSH1 0x20 MUL PUSH1 0x20 ADD ADD MLOAD PUSH1 0x40 MLOAD DUP3 PUSH4 0xFFFFFFFF AND PUSH1 0xE0 SHL DUP2 MSTORE PUSH1 0x4 ADD PUSH1 0x0 PUSH1 0x40 MLOAD DUP1 DUP4 SUB DUP2 DUP6 DUP9 DUP1 EXTCODESIZE ISZERO DUP1 ISZERO PUSH2 0x1D25 JUMPI PUSH1 0x0 DUP1 REVERT JUMPDEST POP GAS CALL ISZERO DUP1 ISZERO PUSH2 0x1D39 JUMPI RETURNDATASIZE PUSH1 0x0 DUP1 RETURNDATACOPY RETURNDATASIZE PUSH1 0x0 REVERT JUMPDEST POP POP POP POP POP PUSH32 0x0 PUSH1 0x1 PUSH1 0x1 PUSH1 0xA0 SHL SUB AND PUSH4 0xA9059CBB PUSH2 0x1D9E PUSH32 0x0 DUP10 DUP10 PUSH1 0x0 DUP2 DUP2 LT PUSH2 0x16A7 JUMPI INVALID JUMPDEST DUP5 PUSH1 0x0 DUP2 MLOAD DUP2 LT PUSH2 0x1DAB JUMPI INVALID JUMPDEST PUSH1 0x20 MUL PUSH1 0x20 ADD ADD MLOAD PUSH1 0x40 MLOAD DUP4 PUSH4 0xFFFFFFFF AND PUSH1 0xE0 SHL DUP2 MSTORE PUSH1 0x4 ADD DUP1 DUP4 PUSH1 0x1 PUSH1 0x1 PUSH1 0xA0 SHL SUB AND PUSH1 0x1 PUSH1 0x1 PUSH1 0xA0 SHL SUB AND DUP2 MSTORE PUSH1 0x20 ADD DUP3 DUP2 MSTORE PUSH1 0x20 ADD SWAP3 POP POP POP PUSH1 0x20 PUSH1 0x40 MLOAD DUP1 DUP4 SUB DUP2 PUSH1 0x0 DUP8 DUP1 EXTCODESIZE ISZERO DUP1 ISZERO PUSH2 0x1E02 JUMPI PUSH1 0x0 DUP1 REVERT JUMPDEST POP GAS CALL ISZERO DUP1 ISZERO PUSH2 0x1E16 JUMPI RETURNDATASIZE PUSH1 0x0 DUP1 RETURNDATACOPY RETURNDATASIZE PUSH1 0x0 REVERT JUMPDEST POP POP POP POP PUSH1 0x40 MLOAD RETURNDATASIZE PUSH1 0x20 DUP2 LT ISZERO PUSH2 0x1E2C JUMPI PUSH1 0x0 DUP1 REVERT JUMPDEST POP MLOAD PUSH2 0x1E34 JUMPI INVALID JUMPDEST PUSH2 0x1E73 DUP3 DUP8 DUP8 DUP1 DUP1 PUSH1 0x20 MUL PUSH1 0x20 ADD PUSH1 0x40 MLOAD SWAP1 DUP2 ADD PUSH1 0x40 MSTORE DUP1 SWAP4 SWAP3 SWAP2 SWAP1 DUP2 DUP2 MSTORE PUSH1 0x20 ADD DUP4 DUP4 PUSH1 0x20 MUL DUP1 DUP3 DUP5 CALLDATACOPY PUSH1 0x0 SWAP3 ADD SWAP2 SWAP1 SWAP2 MSTORE POP DUP10 SWAP3 POP PUSH2 0x35F9 SWAP2 POP POP JUMP JUMPDEST POP SWAP6 SWAP5 POP POP POP POP POP JUMP JUMPDEST PUSH1 0x60 DUP2 TIMESTAMP DUP2 LT ISZERO PUSH2 0x1EC3 JUMPI PUSH1 0x40 DUP1 MLOAD PUSH3 0x461BCD PUSH1 0xE5 SHL DUP2 MSTORE PUSH1 0x20 PUSH1 0x4 DUP3 ADD MSTORE PUSH1 0x18 PUSH1 0x24 DUP3 ADD MSTORE PUSH1 0x0 DUP1 MLOAD PUSH1 0x20 PUSH2 0x4790 DUP4 CODECOPY DUP2 MLOAD SWAP2 MSTORE PUSH1 0x44 DUP3 ADD MSTORE SWAP1 MLOAD SWAP1 DUP2 SWAP1 SUB PUSH1 0x64 ADD SWAP1 REVERT JUMPDEST PUSH2 0x1F21 PUSH32 0x0 DUP10 DUP9 DUP9 DUP1 DUP1 PUSH1 0x20 MUL PUSH1 0x20 ADD PUSH1 0x40 MLOAD SWAP1 DUP2 ADD PUSH1 0x40 MSTORE DUP1 SWAP4 SWAP3 SWAP2 SWAP1 DUP2 DUP2 MSTORE PUSH1 0x20 ADD DUP4 DUP4 PUSH1 0x20 MUL DUP1 DUP3 DUP5 CALLDATACOPY PUSH1 0x0 SWAP3 ADD SWAP2 SWAP1 SWAP2 MSTORE POP PUSH2 0x383F SWAP3 POP POP POP JUMP JUMPDEST SWAP2 POP DUP7 DUP3 PUSH1 0x0 DUP2 MLOAD DUP2 LT PUSH2 0x1F31 JUMPI INVALID JUMPDEST PUSH1 0x20 MUL PUSH1 0x20 ADD ADD MLOAD GT ISZERO PUSH2 0x1328 JUMPI PUSH1 0x40 MLOAD PUSH3 0x461BCD PUSH1 0xE5 SHL DUP2 MSTORE PUSH1 0x4 ADD DUP1 DUP1 PUSH1 0x20 ADD DUP3 DUP2 SUB DUP3 MSTORE PUSH1 0x27 DUP2 MSTORE PUSH1 0x20 ADD DUP1 PUSH2 0x46A0 PUSH1 0x27 SWAP2 CODECOPY PUSH1 0x40 ADD SWAP2 POP POP PUSH1 0x40 MLOAD DUP1 SWAP2 SUB SWAP1 REVERT JUMPDEST PUSH1 0x0 PUSH2 0x1FA5 PUSH32 0x0 DUP7 DUP7 DUP7 DUP7 PUSH2 0x3D09 JUMP JUMPDEST SWAP6 SWAP5 POP POP POP POP POP JUMP JUMPDEST PUSH32 0x0 DUP2 JUMP JUMPDEST PUSH1 0x0 PUSH2 0x1FDF DUP5 DUP5 DUP5 PUSH2 0x3E84 JUMP JUMPDEST SWAP5 SWAP4 POP POP POP POP JUMP JUMPDEST PUSH1 0x0 DUP2 TIMESTAMP DUP2 LT ISZERO PUSH2 0x202D JUMPI PUSH1 0x40 DUP1 MLOAD PUSH3 0x461BCD PUSH1 0xE5 SHL DUP2 MSTORE PUSH1 0x20 PUSH1 0x4 DUP3 ADD MSTORE PUSH1 0x18 PUSH1 0x24 DUP3 ADD MSTORE PUSH1 0x0 DUP1 MLOAD PUSH1 0x20 PUSH2 0x4790 DUP4 CODECOPY DUP2 MLOAD SWAP2 MSTORE PUSH1 0x44 DUP3 ADD MSTORE SWAP1 MLOAD SWAP1 DUP2 SWAP1 SUB PUSH1 0x64 ADD SWAP1 REVERT JUMPDEST PUSH2 0x205C DUP9 PUSH32 0x0 DUP10 DUP10 DUP10 ADDRESS DUP10 PUSH2 0x24F4 JUMP JUMPDEST PUSH1 0x40 DUP1 MLOAD PUSH4 0x70A08231 PUSH1 0xE0 SHL DUP2 MSTORE ADDRESS PUSH1 0x4 DUP3 ADD MSTORE SWAP1 MLOAD SWAP2 SWAP5 POP PUSH2 0x20E0 SWAP3 POP DUP11 SWAP2 DUP8 SWAP2 PUSH1 0x1 PUSH1 0x1 PUSH1 0xA0 SHL SUB DUP5 AND SWAP2 PUSH4 0x70A08231 SWAP2 PUSH1 0x24 DUP1 DUP3 ADD SWAP3 PUSH1 0x20 SWAP3 SWAP1 SWAP2 SWAP1 DUP3 SWAP1 SUB ADD DUP2 DUP7 DUP1 EXTCODESIZE ISZERO DUP1 ISZERO PUSH2 0x20AF JUMPI PUSH1 0x0 DUP1 REVERT JUMPDEST POP GAS STATICCALL ISZERO DUP1 ISZERO PUSH2 0x20C3 JUMPI RETURNDATASIZE PUSH1 0x0 DUP1 RETURNDATACOPY RETURNDATASIZE PUSH1 0x0 REVERT JUMPDEST POP POP POP POP PUSH1 0x40 MLOAD RETURNDATASIZE PUSH1 0x20 DUP2 LT ISZERO PUSH2 0x20D9 JUMPI PUSH1 0x0 DUP1 REVERT JUMPDEST POP MLOAD PUSH2 0x302F JUMP JUMPDEST PUSH32 0x0 PUSH1 0x1 PUSH1 0x1 PUSH1 0xA0 SHL SUB AND PUSH4 0x2E1A7D4D DUP4 PUSH1 0x40 MLOAD DUP3 PUSH4 0xFFFFFFFF AND PUSH1 0xE0 SHL DUP2 MSTORE PUSH1 0x4 ADD DUP1 DUP3 DUP2 MSTORE PUSH1 0x20 ADD SWAP2 POP POP PUSH1 0x0 PUSH1 0x40 MLOAD DUP1 DUP4 SUB DUP2 PUSH1 0x0 DUP8 DUP1 EXTCODESIZE ISZERO DUP1 ISZERO PUSH2 0x2146 JUMPI PUSH1 0x0 DUP1 REVERT JUMPDEST POP GAS CALL ISZERO DUP1 ISZERO PUSH2 0x215A JUMPI RETURNDATASIZE PUSH1 0x0 DUP1 RETURNDATACOPY RETURNDATASIZE PUSH1 0x0 REVERT JUMPDEST POP POP POP POP PUSH2 0x10F1 DUP5 DUP4 PUSH2 0x3183 JUMP JUMPDEST DUP1 TIMESTAMP DUP2 LT ISZERO PUSH2 0x21AC JUMPI PUSH1 0x40 DUP1 MLOAD PUSH3 0x461BCD PUSH1 0xE5 SHL DUP2 MSTORE PUSH1 0x20 PUSH1 0x4 DUP3 ADD MSTORE PUSH1 0x18 PUSH1 0x24 DUP3 ADD MSTORE PUSH1 0x0 DUP1 MLOAD PUSH1 0x20 PUSH2 0x4790 DUP4 CODECOPY DUP2 MLOAD SWAP2 MSTORE PUSH1 0x44 DUP3 ADD MSTORE SWAP1 MLOAD SWAP1 DUP2 SWAP1 SUB PUSH1 0x64 ADD SWAP1 REVERT JUMPDEST PUSH32 0x0 PUSH1 0x1 PUSH1 0x1 PUSH1 0xA0 SHL SUB AND DUP6 DUP6 PUSH1 0x0 DUP2 DUP2 LT PUSH2 0x21E3 JUMPI INVALID JUMPDEST SWAP1 POP PUSH1 0x20 MUL ADD CALLDATALOAD PUSH1 0x1 PUSH1 0x1 PUSH1 0xA0 SHL SUB AND PUSH1 0x1 PUSH1 0x1 PUSH1 0xA0 SHL SUB AND EQ PUSH2 0x223C JUMPI PUSH1 0x40 DUP1 MLOAD PUSH3 0x461BCD PUSH1 0xE5 SHL DUP2 MSTORE PUSH1 0x20 PUSH1 0x4 DUP3 ADD MSTORE PUSH1 0x1D PUSH1 0x24 DUP3 ADD MSTORE PUSH1 0x0 DUP1 MLOAD PUSH1 0x20 PUSH2 0x46C7 DUP4 CODECOPY DUP2 MLOAD SWAP2 MSTORE PUSH1 0x44 DUP3 ADD MSTORE SWAP1 MLOAD SWAP1 DUP2 SWAP1 SUB PUSH1 0x64 ADD SWAP1 REVERT JUMPDEST PUSH1 0x0 CALLVALUE SWAP1 POP PUSH32 0x0 PUSH1 0x1 PUSH1 0x1 PUSH1 0xA0 SHL SUB AND PUSH4 0xD0E30DB0 DUP3 PUSH1 0x40 MLOAD DUP3 PUSH4 0xFFFFFFFF AND PUSH1 0xE0 SHL DUP2 MSTORE PUSH1 0x4 ADD PUSH1 0x0 PUSH1 0x40 MLOAD DUP1 DUP4 SUB DUP2 DUP6 DUP9 DUP1 EXTCODESIZE ISZERO DUP1 ISZERO PUSH2 0x229C JUMPI PUSH1 0x0 DUP1 REVERT JUMPDEST POP GAS CALL ISZERO DUP1 ISZERO PUSH2 0x22B0 JUMPI RETURNDATASIZE PUSH1 0x0 DUP1 RETURNDATACOPY RETURNDATASIZE PUSH1 0x0 REVERT JUMPDEST POP POP POP POP POP PUSH32 0x0 PUSH1 0x1 PUSH1 0x1 PUSH1 0xA0 SHL SUB AND PUSH4 0xA9059CBB PUSH2 0x2315 PUSH32 0x0 DUP10 DUP10 PUSH1 0x0 DUP2 DUP2 LT PUSH2 0x16A7 JUMPI INVALID JUMPDEST DUP4 PUSH1 0x40 MLOAD DUP4 PUSH4 0xFFFFFFFF AND PUSH1 0xE0 SHL DUP2 MSTORE PUSH1 0x4 ADD DUP1 DUP4 PUSH1 0x1 PUSH1 0x1 PUSH1 0xA0 SHL SUB AND PUSH1 0x1 PUSH1 0x1 PUSH1 0xA0 SHL SUB AND DUP2 MSTORE PUSH1 0x20 ADD DUP3 DUP2 MSTORE PUSH1 0x20 ADD SWAP3 POP POP POP PUSH1 0x20 PUSH1 0x40 MLOAD DUP1 DUP4 SUB DUP2 PUSH1 0x0 DUP8 DUP1 EXTCODESIZE ISZERO DUP1 ISZERO PUSH2 0x2365 JUMPI PUSH1 0x0 DUP1 REVERT JUMPDEST POP GAS CALL ISZERO DUP1 ISZERO PUSH2 0x2379 JUMPI RETURNDATASIZE PUSH1 0x0 DUP1 RETURNDATACOPY RETURNDATASIZE PUSH1 0x0 REVERT JUMPDEST POP POP POP POP PUSH1 0x40 MLOAD RETURNDATASIZE PUSH1 0x20 DUP2 LT ISZERO PUSH2 0x238F JUMPI PUSH1 0x0 DUP1 REVERT JUMPDEST POP MLOAD PUSH2 0x2397 JUMPI INVALID JUMPDEST PUSH1 0x0 DUP7 DUP7 PUSH1 0x0 NOT DUP2 ADD DUP2 DUP2 LT PUSH2 0x23A9 JUMPI INVALID JUMPDEST SWAP1 POP PUSH1 0x20 MUL ADD CALLDATALOAD PUSH1 0x1 PUSH1 0x1 PUSH1 0xA0 SHL SUB AND PUSH1 0x1 PUSH1 0x1 PUSH1 0xA0 SHL SUB AND PUSH4 0x70A08231 DUP7 PUSH1 0x40 MLOAD DUP3 PUSH4 0xFFFFFFFF AND PUSH1 0xE0 SHL DUP2 MSTORE PUSH1 0x4 ADD DUP1 DUP3 PUSH1 0x1 PUSH1 0x1 PUSH1 0xA0 SHL SUB AND PUSH1 0x1 PUSH1 0x1 PUSH1 0xA0 SHL SUB AND DUP2 MSTORE PUSH1 0x20 ADD SWAP2 POP POP PUSH1 0x20 PUSH1 0x40 MLOAD DUP1 DUP4 SUB DUP2 DUP7 DUP1 EXTCODESIZE ISZERO DUP1 ISZERO PUSH2 0x240E JUMPI PUSH1 0x0 DUP1 REVERT JUMPDEST POP GAS STATICCALL ISZERO DUP1 ISZERO PUSH2 0x2422 JUMPI RETURNDATASIZE PUSH1 0x0 DUP1 RETURNDATACOPY RETURNDATASIZE PUSH1 0x0 REVERT JUMPDEST POP POP POP POP PUSH1 0x40 MLOAD RETURNDATASIZE PUSH1 0x20 DUP2 LT ISZERO PUSH2 0x2438 JUMPI PUSH1 0x0 DUP1 REVERT JUMPDEST POP MLOAD PUSH1 0x40 DUP1 MLOAD PUSH1 0x20 DUP10 DUP2 MUL DUP3 DUP2 ADD DUP3 ADD SWAP1 SWAP4 MSTORE DUP10 DUP3 MSTORE SWAP3 SWAP4 POP PUSH2 0x247A SWAP3 SWAP1 SWAP2 DUP11 SWAP2 DUP11 SWAP2 DUP3 SWAP2 DUP6 ADD SWAP1 DUP5 SWAP1 DUP1 DUP3 DUP5 CALLDATACOPY PUSH1 0x0 SWAP3 ADD SWAP2 SWAP1 SWAP2 MSTORE POP DUP10 SWAP3 POP PUSH2 0x398C SWAP2 POP POP JUMP JUMPDEST DUP8 PUSH2 0x185F DUP3 DUP10 DUP10 PUSH1 0x0 NOT DUP2 ADD DUP2 DUP2 LT PUSH2 0x248F JUMPI INVALID JUMPDEST SWAP1 POP PUSH1 0x20 MUL ADD CALLDATALOAD PUSH1 0x1 PUSH1 0x1 PUSH1 0xA0 SHL SUB AND PUSH1 0x1 PUSH1 0x1 PUSH1 0xA0 SHL SUB AND PUSH4 0x70A08231 DUP10 PUSH1 0x40 MLOAD DUP3 PUSH4 0xFFFFFFFF AND PUSH1 0xE0 SHL DUP2 MSTORE PUSH1 0x4 ADD DUP1 DUP3 PUSH1 0x1 PUSH1 0x1 PUSH1 0xA0 SHL SUB AND PUSH1 0x1 PUSH1 0x1 PUSH1 0xA0 SHL SUB AND DUP2 MSTORE PUSH1 0x20 ADD SWAP2 POP POP PUSH1 0x20 PUSH1 0x40 MLOAD DUP1 DUP4 SUB DUP2 DUP7 DUP1 EXTCODESIZE ISZERO DUP1 ISZERO PUSH2 0x1827 JUMPI PUSH1 0x0 DUP1 REVERT JUMPDEST PUSH1 0x0 DUP1 DUP3 TIMESTAMP DUP2 LT ISZERO PUSH2 0x253B JUMPI PUSH1 0x40 DUP1 MLOAD PUSH3 0x461BCD PUSH1 0xE5 SHL DUP2 MSTORE PUSH1 0x20 PUSH1 0x4 DUP3 ADD MSTORE PUSH1 0x18 PUSH1 0x24 DUP3 ADD MSTORE PUSH1 0x0 DUP1 MLOAD PUSH1 0x20 PUSH2 0x4790 DUP4 CODECOPY DUP2 MLOAD SWAP2 MSTORE PUSH1 0x44 DUP3 ADD MSTORE SWAP1 MLOAD SWAP1 DUP2 SWAP1 SUB PUSH1 0x64 ADD SWAP1 REVERT JUMPDEST PUSH1 0x0 PUSH2 0x2568 PUSH32 0x0 DUP13 DUP13 PUSH2 0x33DC JUMP JUMPDEST PUSH1 0x40 DUP1 MLOAD PUSH4 0x23B872DD PUSH1 0xE0 SHL DUP2 MSTORE CALLER PUSH1 0x4 DUP3 ADD MSTORE PUSH1 0x1 PUSH1 0x1 PUSH1 0xA0 SHL SUB DUP4 AND PUSH1 0x24 DUP3 ADD DUP2 SWAP1 MSTORE PUSH1 0x44 DUP3 ADD DUP14 SWAP1 MSTORE SWAP2 MLOAD SWAP3 SWAP4 POP SWAP1 SWAP2 PUSH4 0x23B872DD SWAP2 PUSH1 0x64 DUP1 DUP3 ADD SWAP3 PUSH1 0x20 SWAP3 SWAP1 SWAP2 SWAP1 DUP3 SWAP1 SUB ADD DUP2 PUSH1 0x0 DUP8 DUP1 EXTCODESIZE ISZERO DUP1 ISZERO PUSH2 0x25C3 JUMPI PUSH1 0x0 DUP1 REVERT JUMPDEST POP GAS CALL ISZERO DUP1 ISZERO PUSH2 0x25D7 JUMPI RETURNDATASIZE PUSH1 0x0 DUP1 RETURNDATACOPY RETURNDATASIZE PUSH1 0x0 REVERT JUMPDEST POP POP POP POP PUSH1 0x40 MLOAD RETURNDATASIZE PUSH1 0x20 DUP2 LT ISZERO PUSH2 0x25ED JUMPI PUSH1 0x0 DUP1 REVERT JUMPDEST POP POP PUSH1 0x40 DUP1 MLOAD PUSH4 0x226BF2D1 PUSH1 0xE2 SHL DUP2 MSTORE PUSH1 0x1 PUSH1 0x1 PUSH1 0xA0 SHL SUB DUP9 DUP2 AND PUSH1 0x4 DUP4 ADD MSTORE DUP3 MLOAD PUSH1 0x0 SWAP4 DUP5 SWAP4 SWAP3 DUP7 AND SWAP3 PUSH4 0x89AFCB44 SWAP3 PUSH1 0x24 DUP1 DUP4 ADD SWAP4 SWAP3 DUP3 SWAP1 SUB ADD DUP2 DUP8 DUP8 DUP1 EXTCODESIZE ISZERO DUP1 ISZERO PUSH2 0x263A JUMPI PUSH1 0x0 DUP1 REVERT JUMPDEST POP GAS CALL ISZERO DUP1 ISZERO PUSH2 0x264E JUMPI RETURNDATASIZE PUSH1 0x0 DUP1 RETURNDATACOPY RETURNDATASIZE PUSH1 0x0 REVERT JUMPDEST POP POP POP POP PUSH1 0x40 MLOAD RETURNDATASIZE PUSH1 0x40 DUP2 LT ISZERO PUSH2 0x2664 JUMPI PUSH1 0x0 DUP1 REVERT JUMPDEST POP DUP1 MLOAD PUSH1 0x20 SWAP1 SWAP2 ADD MLOAD SWAP1 SWAP3 POP SWAP1 POP PUSH1 0x0 PUSH2 0x267E DUP15 DUP15 PUSH2 0x3F30 JUMP JUMPDEST POP SWAP1 POP DUP1 PUSH1 0x1 PUSH1 0x1 PUSH1 0xA0 SHL SUB AND DUP15 PUSH1 0x1 PUSH1 0x1 PUSH1 0xA0 SHL SUB AND EQ PUSH2 0x26A1 JUMPI DUP2 DUP4 PUSH2 0x26A4 JUMP JUMPDEST DUP3 DUP3 JUMPDEST SWAP1 SWAP8 POP SWAP6 POP DUP11 DUP8 LT ISZERO PUSH2 0x26E8 JUMPI PUSH1 0x40 MLOAD PUSH3 0x461BCD PUSH1 0xE5 SHL DUP2 MSTORE PUSH1 0x4 ADD DUP1 DUP1 PUSH1 0x20 ADD DUP3 DUP2 SUB DUP3 MSTORE PUSH1 0x26 DUP2 MSTORE PUSH1 0x20 ADD DUP1 PUSH2 0x46E7 PUSH1 0x26 SWAP2 CODECOPY PUSH1 0x40 ADD SWAP2 POP POP PUSH1 0x40 MLOAD DUP1 SWAP2 SUB SWAP1 REVERT JUMPDEST DUP10 DUP7 LT ISZERO PUSH2 0x2727 JUMPI PUSH1 0x40 MLOAD PUSH3 0x461BCD PUSH1 0xE5 SHL DUP2 MSTORE PUSH1 0x4 ADD DUP1 DUP1 PUSH1 0x20 ADD DUP3 DUP2 SUB DUP3 MSTORE PUSH1 0x26 DUP2 MSTORE PUSH1 0x20 ADD DUP1 PUSH2 0x462D PUSH1 0x26 SWAP2 CODECOPY PUSH1 0x40 ADD SWAP2 POP POP PUSH1 0x40 MLOAD DUP1 SWAP2 SUB SWAP1 REVERT JUMPDEST POP POP POP POP POP SWAP8 POP SWAP8 SWAP6 POP POP POP POP POP POP JUMP JUMPDEST PUSH32 0x0 DUP2 JUMP JUMPDEST PUSH1 0x0 PUSH2 0x1FA5 PUSH32 0x0 DUP7 DUP7 DUP7 DUP7 PUSH2 0x400E JUMP JUMPDEST PUSH1 0x60 PUSH2 0x1129 PUSH32 0x0 DUP5 DUP5 PUSH2 0x327B JUMP JUMPDEST PUSH1 0x0 DUP1 PUSH1 0x0 PUSH2 0x2808 PUSH32 0x0 DUP15 PUSH32 0x0 PUSH2 0x33DC JUMP JUMPDEST SWAP1 POP PUSH1 0x0 DUP8 PUSH2 0x2817 JUMPI DUP13 PUSH2 0x281B JUMP JUMPDEST PUSH1 0x0 NOT JUMPDEST PUSH1 0x40 DUP1 MLOAD PUSH4 0xD505ACCF PUSH1 0xE0 SHL DUP2 MSTORE CALLER PUSH1 0x4 DUP3 ADD MSTORE ADDRESS PUSH1 0x24 DUP3 ADD MSTORE PUSH1 0x44 DUP2 ADD DUP4 SWAP1 MSTORE PUSH1 0x64 DUP2 ADD DUP13 SWAP1 MSTORE PUSH1 0xFF DUP11 AND PUSH1 0x84 DUP3 ADD MSTORE PUSH1 0xA4 DUP2 ADD DUP10 SWAP1 MSTORE PUSH1 0xC4 DUP2 ADD DUP9 SWAP1 MSTORE SWAP1 MLOAD SWAP2 SWAP3 POP PUSH1 0x1 PUSH1 0x1 PUSH1 0xA0 SHL SUB DUP5 AND SWAP2 PUSH4 0xD505ACCF SWAP2 PUSH1 0xE4 DUP1 DUP3 ADD SWAP3 PUSH1 0x0 SWAP3 SWAP1 SWAP2 SWAP1 DUP3 SWAP1 SUB ADD DUP2 DUP4 DUP8 DUP1 EXTCODESIZE ISZERO DUP1 ISZERO PUSH2 0x2891 JUMPI PUSH1 0x0 DUP1 REVERT JUMPDEST POP GAS CALL ISZERO DUP1 ISZERO PUSH2 0x28A5 JUMPI RETURNDATASIZE PUSH1 0x0 DUP1 RETURNDATACOPY RETURNDATASIZE PUSH1 0x0 REVERT JUMPDEST POP POP POP POP PUSH2 0x28B7 DUP15 DUP15 DUP15 DUP15 DUP15 DUP15 PUSH2 0xCB5 JUMP JUMPDEST SWAP1 SWAP16 SWAP1 SWAP15 POP SWAP13 POP POP POP POP POP POP POP POP POP POP POP POP POP JUMP JUMPDEST PUSH1 0x0 DUP1 PUSH1 0x0 DUP4 TIMESTAMP DUP2 LT ISZERO PUSH2 0x2915 JUMPI PUSH1 0x40 DUP1 MLOAD PUSH3 0x461BCD PUSH1 0xE5 SHL DUP2 MSTORE PUSH1 0x20 PUSH1 0x4 DUP3 ADD MSTORE PUSH1 0x18 PUSH1 0x24 DUP3 ADD MSTORE PUSH1 0x0 DUP1 MLOAD PUSH1 0x20 PUSH2 0x4790 DUP4 CODECOPY DUP2 MLOAD SWAP2 MSTORE PUSH1 0x44 DUP3 ADD MSTORE SWAP1 MLOAD SWAP1 DUP2 SWAP1 SUB PUSH1 0x64 ADD SWAP1 REVERT JUMPDEST PUSH2 0x2923 DUP13 DUP13 DUP13 DUP13 DUP13 DUP13 PUSH2 0x4189 JUMP JUMPDEST SWAP1 SWAP5 POP SWAP3 POP PUSH1 0x0 PUSH2 0x2955 PUSH32 0x0 DUP15 DUP15 PUSH2 0x33DC JUMP JUMPDEST SWAP1 POP PUSH2 0x2963 DUP14 CALLER DUP4 DUP9 PUSH2 0x349C JUMP JUMPDEST PUSH2 0x296F DUP13 CALLER DUP4 DUP8 PUSH2 0x349C JUMP JUMPDEST DUP1 PUSH1 0x1 PUSH1 0x1 PUSH1 0xA0 SHL SUB AND PUSH4 0x6A627842 DUP9 PUSH1 0x40 MLOAD DUP3 PUSH4 0xFFFFFFFF AND PUSH1 0xE0 SHL DUP2 MSTORE PUSH1 0x4 ADD DUP1 DUP3 PUSH1 0x1 PUSH1 0x1 PUSH1 0xA0 SHL SUB AND PUSH1 0x1 PUSH1 0x1 PUSH1 0xA0 SHL SUB AND DUP2 MSTORE PUSH1 0x20 ADD SWAP2 POP POP PUSH1 0x20 PUSH1 0x40 MLOAD DUP1 DUP4 SUB DUP2 PUSH1 0x0 DUP8 DUP1 EXTCODESIZE ISZERO DUP1 ISZERO PUSH2 0x29C7 JUMPI PUSH1 0x0 DUP1 REVERT JUMPDEST POP GAS CALL ISZERO DUP1 ISZERO PUSH2 0x29DB JUMPI RETURNDATASIZE PUSH1 0x0 DUP1 RETURNDATACOPY RETURNDATASIZE PUSH1 0x0 REVERT JUMPDEST POP POP POP POP PUSH1 0x40 MLOAD RETURNDATASIZE PUSH1 0x20 DUP2 LT ISZERO PUSH2 0x29F1 JUMPI PUSH1 0x0 DUP1 REVERT JUMPDEST POP MLOAD SWAP5 SWAP14 SWAP4 SWAP13 POP SWAP4 SWAP11 POP SWAP2 SWAP9 POP POP POP POP POP POP POP POP POP JUMP JUMPDEST PUSH1 0x0 DUP1 PUSH1 0x0 DUP4 TIMESTAMP DUP2 LT ISZERO PUSH2 0x2A51 JUMPI PUSH1 0x40 DUP1 MLOAD PUSH3 0x461BCD PUSH1 0xE5 SHL DUP2 MSTORE PUSH1 0x20 PUSH1 0x4 DUP3 ADD MSTORE PUSH1 0x18 PUSH1 0x24 DUP3 ADD MSTORE PUSH1 0x0 DUP1 MLOAD PUSH1 0x20 PUSH2 0x4790 DUP4 CODECOPY DUP2 MLOAD SWAP2 MSTORE PUSH1 0x44 DUP3 ADD MSTORE SWAP1 MLOAD SWAP1 DUP2 SWAP1 SUB PUSH1 0x64 ADD SWAP1 REVERT JUMPDEST PUSH2 0x2A7F DUP11 PUSH32 0x0 DUP12 CALLVALUE DUP13 DUP13 PUSH2 0x4189 JUMP JUMPDEST SWAP1 SWAP5 POP SWAP3 POP PUSH1 0x0 PUSH2 0x2AD1 PUSH32 0x0 DUP13 PUSH32 0x0 PUSH2 0x33DC JUMP JUMPDEST SWAP1 POP PUSH2 0x2ADF DUP12 CALLER DUP4 DUP9 PUSH2 0x349C JUMP JUMPDEST PUSH32 0x0 PUSH1 0x1 PUSH1 0x1 PUSH1 0xA0 SHL SUB AND PUSH4 0xD0E30DB0 DUP6 PUSH1 0x40 MLOAD DUP3 PUSH4 0xFFFFFFFF AND PUSH1 0xE0 SHL DUP2 MSTORE PUSH1 0x4 ADD PUSH1 0x0 PUSH1 0x40 MLOAD DUP1 DUP4 SUB DUP2 DUP6 DUP9 DUP1 EXTCODESIZE ISZERO DUP1 ISZERO PUSH2 0x2B3A JUMPI PUSH1 0x0 DUP1 REVERT JUMPDEST POP GAS CALL ISZERO DUP1 ISZERO PUSH2 0x2B4E JUMPI RETURNDATASIZE PUSH1 0x0 DUP1 RETURNDATACOPY RETURNDATASIZE PUSH1 0x0 REVERT JUMPDEST POP POP POP POP POP PUSH32 0x0 PUSH1 0x1 PUSH1 0x1 PUSH1 0xA0 SHL SUB AND PUSH4 0xA9059CBB DUP3 DUP7 PUSH1 0x40 MLOAD DUP4 PUSH4 0xFFFFFFFF AND PUSH1 0xE0 SHL DUP2 MSTORE PUSH1 0x4 ADD DUP1 DUP4 PUSH1 0x1 PUSH1 0x1 PUSH1 0xA0 SHL SUB AND PUSH1 0x1 PUSH1 0x1 PUSH1 0xA0 SHL SUB AND DUP2 MSTORE PUSH1 0x20 ADD DUP3 DUP2 MSTORE PUSH1 0x20 ADD SWAP3 POP POP POP PUSH1 0x20 PUSH1 0x40 MLOAD DUP1 DUP4 SUB DUP2 PUSH1 0x0 DUP8 DUP1 EXTCODESIZE ISZERO DUP1 ISZERO PUSH2 0x2BD3 JUMPI PUSH1 0x0 DUP1 REVERT JUMPDEST POP GAS CALL ISZERO DUP1 ISZERO PUSH2 0x2BE7 JUMPI RETURNDATASIZE PUSH1 0x0 DUP1 RETURNDATACOPY RETURNDATASIZE PUSH1 0x0 REVERT JUMPDEST POP POP POP POP PUSH1 0x40 MLOAD RETURNDATASIZE PUSH1 0x20 DUP2 LT ISZERO PUSH2 0x2BFD JUMPI PUSH1 0x0 DUP1 REVERT JUMPDEST POP MLOAD PUSH2 0x2C05 JUMPI INVALID JUMPDEST DUP1 PUSH1 0x1 PUSH1 0x1 PUSH1 0xA0 SHL SUB AND PUSH4 0x6A627842 DUP9 PUSH1 0x40 MLOAD DUP3 PUSH4 0xFFFFFFFF AND PUSH1 0xE0 SHL DUP2 MSTORE PUSH1 0x4 ADD DUP1 DUP3 PUSH1 0x1 PUSH1 0x1 PUSH1 0xA0 SHL SUB AND PUSH1 0x1 PUSH1 0x1 PUSH1 0xA0 SHL SUB AND DUP2 MSTORE PUSH1 0x20 ADD SWAP2 POP POP PUSH1 0x20 PUSH1 0x40 MLOAD DUP1 DUP4 SUB DUP2 PUSH1 0x0 DUP8 DUP1 EXTCODESIZE ISZERO DUP1 ISZERO PUSH2 0x2C5D JUMPI PUSH1 0x0 DUP1 REVERT JUMPDEST POP GAS CALL ISZERO DUP1 ISZERO PUSH2 0x2C71 JUMPI RETURNDATASIZE PUSH1 0x0 DUP1 RETURNDATACOPY RETURNDATASIZE PUSH1 0x0 REVERT JUMPDEST POP POP POP POP PUSH1 0x40 MLOAD RETURNDATASIZE PUSH1 0x20 DUP2 LT ISZERO PUSH2 0x2C87 JUMPI PUSH1 0x0 DUP1 REVERT JUMPDEST POP MLOAD SWAP3 POP CALLVALUE DUP5 LT ISZERO PUSH2 0x2C9F JUMPI PUSH2 0x2C9F CALLER DUP6 CALLVALUE SUB PUSH2 0x3183 JUMP JUMPDEST POP POP SWAP7 POP SWAP7 POP SWAP7 SWAP4 POP POP POP POP JUMP JUMPDEST PUSH1 0x60 DUP2 TIMESTAMP DUP2 LT ISZERO PUSH2 0x2CF3 JUMPI PUSH1 0x40 DUP1 MLOAD PUSH3 0x461BCD PUSH1 0xE5 SHL DUP2 MSTORE PUSH1 0x20 PUSH1 0x4 DUP3 ADD MSTORE PUSH1 0x18 PUSH1 0x24 DUP3 ADD MSTORE PUSH1 0x0 DUP1 MLOAD PUSH1 0x20 PUSH2 0x4790 DUP4 CODECOPY DUP2 MLOAD SWAP2 MSTORE PUSH1 0x44 DUP3 ADD MSTORE SWAP1 MLOAD SWAP1 DUP2 SWAP1 SUB PUSH1 0x64 ADD SWAP1 REVERT JUMPDEST PUSH32 0x0 PUSH1 0x1 PUSH1 0x1 PUSH1 0xA0 SHL SUB AND DUP7 DUP7 PUSH1 0x0 DUP2 DUP2 LT PUSH2 0x2D2A JUMPI INVALID JUMPDEST SWAP1 POP PUSH1 0x20 MUL ADD CALLDATALOAD PUSH1 0x1 PUSH1 0x1 PUSH1 0xA0 SHL SUB AND PUSH1 0x1 PUSH1 0x1 PUSH1 0xA0 SHL SUB AND EQ PUSH2 0x2D83 JUMPI PUSH1 0x40 DUP1 MLOAD PUSH3 0x461BCD PUSH1 0xE5 SHL DUP2 MSTORE PUSH1 0x20 PUSH1 0x4 DUP3 ADD MSTORE PUSH1 0x1D PUSH1 0x24 DUP3 ADD MSTORE PUSH1 0x0 DUP1 MLOAD PUSH1 0x20 PUSH2 0x46C7 DUP4 CODECOPY DUP2 MLOAD SWAP2 MSTORE PUSH1 0x44 DUP3 ADD MSTORE SWAP1 MLOAD SWAP1 DUP2 SWAP1 SUB PUSH1 0x64 ADD SWAP1 REVERT JUMPDEST PUSH2 0x2DE1 PUSH32 0x0 DUP9 DUP9 DUP9 DUP1 DUP1 PUSH1 0x20 MUL PUSH1 0x20 ADD PUSH1 0x40 MLOAD SWAP1 DUP2 ADD PUSH1 0x40 MSTORE DUP1 SWAP4 SWAP3 SWAP2 SWAP1 DUP2 DUP2 MSTORE PUSH1 0x20 ADD DUP4 DUP4 PUSH1 0x20 MUL DUP1 DUP3 DUP5 CALLDATACOPY PUSH1 0x0 SWAP3 ADD SWAP2 SWAP1 SWAP2 MSTORE POP PUSH2 0x383F SWAP3 POP POP POP JUMP JUMPDEST SWAP2 POP CALLVALUE DUP3 PUSH1 0x0 DUP2 MLOAD DUP2 LT PUSH2 0x2DF1 JUMPI INVALID JUMPDEST PUSH1 0x20 MUL PUSH1 0x20 ADD ADD MLOAD GT ISZERO PUSH2 0x2E36 JUMPI PUSH1 0x40 MLOAD PUSH3 0x461BCD PUSH1 0xE5 SHL DUP2 MSTORE PUSH1 0x4 ADD DUP1 DUP1 PUSH1 0x20 ADD DUP3 DUP2 SUB DUP3 MSTORE PUSH1 0x27 DUP2 MSTORE PUSH1 0x20 ADD DUP1 PUSH2 0x46A0 PUSH1 0x27 SWAP2 CODECOPY PUSH1 0x40 ADD SWAP2 POP POP PUSH1 0x40 MLOAD DUP1 SWAP2 SUB SWAP1 REVERT JUMPDEST PUSH32 0x0 PUSH1 0x1 PUSH1 0x1 PUSH1 0xA0 SHL SUB AND PUSH4 0xD0E30DB0 DUP4 PUSH1 0x0 DUP2 MLOAD DUP2 LT PUSH2 0x2E72 JUMPI INVALID JUMPDEST PUSH1 0x20 MUL PUSH1 0x20 ADD ADD MLOAD PUSH1 0x40 MLOAD DUP3 PUSH4 0xFFFFFFFF AND PUSH1 0xE0 SHL DUP2 MSTORE PUSH1 0x4 ADD PUSH1 0x0 PUSH1 0x40 MLOAD DUP1 DUP4 SUB DUP2 DUP6 DUP9 DUP1 EXTCODESIZE ISZERO DUP1 ISZERO PUSH2 0x2EA5 JUMPI PUSH1 0x0 DUP1 REVERT JUMPDEST POP GAS CALL ISZERO DUP1 ISZERO PUSH2 0x2EB9 JUMPI RETURNDATASIZE PUSH1 0x0 DUP1 RETURNDATACOPY RETURNDATASIZE PUSH1 0x0 REVERT JUMPDEST POP POP POP POP POP PUSH32 0x0 PUSH1 0x1 PUSH1 0x1 PUSH1 0xA0 SHL SUB AND PUSH4 0xA9059CBB PUSH2 0x2F1E PUSH32 0x0 DUP10 DUP10 PUSH1 0x0 DUP2 DUP2 LT PUSH2 0x16A7 JUMPI INVALID JUMPDEST DUP5 PUSH1 0x0 DUP2 MLOAD DUP2 LT PUSH2 0x2F2B JUMPI INVALID JUMPDEST PUSH1 0x20 MUL PUSH1 0x20 ADD ADD MLOAD PUSH1 0x40 MLOAD DUP4 PUSH4 0xFFFFFFFF AND PUSH1 0xE0 SHL DUP2 MSTORE PUSH1 0x4 ADD DUP1 DUP4 PUSH1 0x1 PUSH1 0x1 PUSH1 0xA0 SHL SUB AND PUSH1 0x1 PUSH1 0x1 PUSH1 0xA0 SHL SUB AND DUP2 MSTORE PUSH1 0x20 ADD DUP3 DUP2 MSTORE PUSH1 0x20 ADD SWAP3 POP POP POP PUSH1 0x20 PUSH1 0x40 MLOAD DUP1 DUP4 SUB DUP2 PUSH1 0x0 DUP8 DUP1 EXTCODESIZE ISZERO DUP1 ISZERO PUSH2 0x2F82 JUMPI PUSH1 0x0 DUP1 REVERT JUMPDEST POP GAS CALL ISZERO DUP1 ISZERO PUSH2 0x2F96 JUMPI RETURNDATASIZE PUSH1 0x0 DUP1 RETURNDATACOPY RETURNDATASIZE PUSH1 0x0 REVERT JUMPDEST POP POP POP POP PUSH1 0x40 MLOAD RETURNDATASIZE PUSH1 0x20 DUP2 LT ISZERO PUSH2 0x2FAC JUMPI PUSH1 0x0 DUP1 REVERT JUMPDEST POP MLOAD PUSH2 0x2FB4 JUMPI INVALID JUMPDEST PUSH2 0x2FF3 DUP3 DUP8 DUP8 DUP1 DUP1 PUSH1 0x20 MUL PUSH1 0x20 ADD PUSH1 0x40 MLOAD SWAP1 DUP2 ADD PUSH1 0x40 MSTORE DUP1 SWAP4 SWAP3 SWAP2 SWAP1 DUP2 DUP2 MSTORE PUSH1 0x20 ADD DUP4 DUP4 PUSH1 0x20 MUL DUP1 DUP3 DUP5 CALLDATACOPY PUSH1 0x0 SWAP3 ADD SWAP2 SWAP1 SWAP2 MSTORE POP DUP10 SWAP3 POP PUSH2 0x35F9 SWAP2 POP POP JUMP JUMPDEST DUP2 PUSH1 0x0 DUP2 MLOAD DUP2 LT PUSH2 0x3000 JUMPI INVALID JUMPDEST PUSH1 0x20 MUL PUSH1 0x20 ADD ADD MLOAD CALLVALUE GT ISZERO PUSH2 0x1E73 JUMPI PUSH2 0x1E73 CALLER DUP4 PUSH1 0x0 DUP2 MLOAD DUP2 LT PUSH2 0x3020 JUMPI INVALID JUMPDEST PUSH1 0x20 MUL PUSH1 0x20 ADD ADD MLOAD CALLVALUE SUB PUSH2 0x3183 JUMP JUMPDEST PUSH1 0x40 DUP1 MLOAD PUSH1 0x1 PUSH1 0x1 PUSH1 0xA0 SHL SUB DUP5 DUP2 AND PUSH1 0x24 DUP4 ADD MSTORE PUSH1 0x44 DUP1 DUP4 ADD DUP6 SWAP1 MSTORE DUP4 MLOAD DUP1 DUP5 SUB SWAP1 SWAP2 ADD DUP2 MSTORE PUSH1 0x64 SWAP1 SWAP3 ADD DUP4 MSTORE PUSH1 0x20 DUP3 ADD DUP1 MLOAD PUSH1 0x1 PUSH1 0x1 PUSH1 0xE0 SHL SUB AND PUSH4 0xA9059CBB PUSH1 0xE0 SHL OR DUP2 MSTORE SWAP3 MLOAD DUP3 MLOAD PUSH1 0x0 SWAP5 PUSH1 0x60 SWAP5 SWAP4 DUP10 AND SWAP4 SWAP3 SWAP2 DUP3 SWAP2 SWAP1 DUP1 DUP4 DUP4 JUMPDEST PUSH1 0x20 DUP4 LT PUSH2 0x30AC JUMPI DUP1 MLOAD DUP3 MSTORE PUSH1 0x1F NOT SWAP1 SWAP3 ADD SWAP2 PUSH1 0x20 SWAP2 DUP3 ADD SWAP2 ADD PUSH2 0x308D JUMP JUMPDEST PUSH1 0x1 DUP4 PUSH1 0x20 SUB PUSH2 0x100 EXP SUB DUP1 NOT DUP3 MLOAD AND DUP2 DUP5 MLOAD AND DUP1 DUP3 OR DUP6 MSTORE POP POP POP POP POP POP SWAP1 POP ADD SWAP2 POP POP PUSH1 0x0 PUSH1 0x40 MLOAD DUP1 DUP4 SUB DUP2 PUSH1 0x0 DUP7 GAS CALL SWAP2 POP POP RETURNDATASIZE DUP1 PUSH1 0x0 DUP2 EQ PUSH2 0x310E JUMPI PUSH1 0x40 MLOAD SWAP2 POP PUSH1 0x1F NOT PUSH1 0x3F RETURNDATASIZE ADD AND DUP3 ADD PUSH1 0x40 MSTORE RETURNDATASIZE DUP3 MSTORE RETURNDATASIZE PUSH1 0x0 PUSH1 0x20 DUP5 ADD RETURNDATACOPY PUSH2 0x3113 JUMP JUMPDEST PUSH1 0x60 SWAP2 POP JUMPDEST POP SWAP2 POP SWAP2 POP DUP2 DUP1 ISZERO PUSH2 0x3141 JUMPI POP DUP1 MLOAD ISZERO DUP1 PUSH2 0x3141 JUMPI POP DUP1 DUP1 PUSH1 0x20 ADD SWAP1 MLOAD PUSH1 0x20 DUP2 LT ISZERO PUSH2 0x313E JUMPI PUSH1 0x0 DUP1 REVERT JUMPDEST POP MLOAD JUMPDEST PUSH2 0x317C JUMPI PUSH1 0x40 MLOAD PUSH3 0x461BCD PUSH1 0xE5 SHL DUP2 MSTORE PUSH1 0x4 ADD DUP1 DUP1 PUSH1 0x20 ADD DUP3 DUP2 SUB DUP3 MSTORE PUSH1 0x2D DUP2 MSTORE PUSH1 0x20 ADD DUP1 PUSH2 0x4738 PUSH1 0x2D SWAP2 CODECOPY PUSH1 0x40 ADD SWAP2 POP POP PUSH1 0x40 MLOAD DUP1 SWAP2 SUB SWAP1 REVERT JUMPDEST POP POP POP POP POP JUMP JUMPDEST PUSH1 0x40 DUP1 MLOAD PUSH1 0x0 DUP1 DUP3 MSTORE PUSH1 0x20 DUP3 ADD SWAP1 SWAP3 MSTORE PUSH1 0x1 PUSH1 0x1 PUSH1 0xA0 SHL SUB DUP5 AND SWAP1 DUP4 SWAP1 PUSH1 0x40 MLOAD DUP1 DUP3 DUP1 MLOAD SWAP1 PUSH1 0x20 ADD SWAP1 DUP1 DUP4 DUP4 JUMPDEST PUSH1 0x20 DUP4 LT PUSH2 0x31CF JUMPI DUP1 MLOAD DUP3 MSTORE PUSH1 0x1F NOT SWAP1 SWAP3 ADD SWAP2 PUSH1 0x20 SWAP2 DUP3 ADD SWAP2 ADD PUSH2 0x31B0 JUMP JUMPDEST PUSH1 0x1 DUP4 PUSH1 0x20 SUB PUSH2 0x100 EXP SUB DUP1 NOT DUP3 MLOAD AND DUP2 DUP5 MLOAD AND DUP1 DUP3 OR DUP6 MSTORE POP POP POP POP POP POP SWAP1 POP ADD SWAP2 POP POP PUSH1 0x0 PUSH1 0x40 MLOAD DUP1 DUP4 SUB DUP2 DUP6 DUP8 GAS CALL SWAP3 POP POP POP RETURNDATASIZE DUP1 PUSH1 0x0 DUP2 EQ PUSH2 0x3231 JUMPI PUSH1 0x40 MLOAD SWAP2 POP PUSH1 0x1F NOT PUSH1 0x3F RETURNDATASIZE ADD AND DUP3 ADD PUSH1 0x40 MSTORE RETURNDATASIZE DUP3 MSTORE RETURNDATASIZE PUSH1 0x0 PUSH1 0x20 DUP5 ADD RETURNDATACOPY PUSH2 0x3236 JUMP JUMPDEST PUSH1 0x60 SWAP2 POP JUMPDEST POP POP SWAP1 POP DUP1 PUSH2 0x3276 JUMPI PUSH1 0x40 MLOAD PUSH3 0x461BCD PUSH1 0xE5 SHL DUP2 MSTORE PUSH1 0x4 ADD DUP1 DUP1 PUSH1 0x20 ADD DUP3 DUP2 SUB DUP3 MSTORE PUSH1 0x34 DUP2 MSTORE PUSH1 0x20 ADD DUP1 PUSH2 0x45D4 PUSH1 0x34 SWAP2 CODECOPY PUSH1 0x40 ADD SWAP2 POP POP PUSH1 0x40 MLOAD DUP1 SWAP2 SUB SWAP1 REVERT JUMPDEST POP POP POP JUMP JUMPDEST PUSH1 0x60 PUSH1 0x2 DUP3 MLOAD LT ISZERO PUSH2 0x32D4 JUMPI PUSH1 0x40 DUP1 MLOAD PUSH3 0x461BCD PUSH1 0xE5 SHL DUP2 MSTORE PUSH1 0x20 PUSH1 0x4 DUP3 ADD MSTORE PUSH1 0x1E PUSH1 0x24 DUP3 ADD MSTORE PUSH32 0x556E697377617056324C6962726172793A20494E56414C49445F504154480000 PUSH1 0x44 DUP3 ADD MSTORE SWAP1 MLOAD SWAP1 DUP2 SWAP1 SUB PUSH1 0x64 ADD SWAP1 REVERT JUMPDEST DUP2 MLOAD PUSH8 0xFFFFFFFFFFFFFFFF DUP2 GT DUP1 ISZERO PUSH2 0x32EC JUMPI PUSH1 0x0 DUP1 REVERT JUMPDEST POP PUSH1 0x40 MLOAD SWAP1 DUP1 DUP3 MSTORE DUP1 PUSH1 0x20 MUL PUSH1 0x20 ADD DUP3 ADD PUSH1 0x40 MSTORE DUP1 ISZERO PUSH2 0x3316 JUMPI DUP2 PUSH1 0x20 ADD PUSH1 0x20 DUP3 MUL DUP1 CALLDATASIZE DUP4 CALLDATACOPY ADD SWAP1 POP JUMPDEST POP SWAP1 POP DUP3 DUP2 PUSH1 0x0 DUP2 MLOAD DUP2 LT PUSH2 0x3327 JUMPI INVALID JUMPDEST PUSH1 0x20 MUL PUSH1 0x20 ADD ADD DUP2 DUP2 MSTORE POP POP PUSH1 0x0 JUMPDEST PUSH1 0x1 DUP4 MLOAD SUB DUP2 LT ISZERO PUSH2 0x33D4 JUMPI PUSH1 0x0 DUP1 PUSH2 0x3379 DUP8 DUP7 DUP6 DUP2 MLOAD DUP2 LT PUSH2 0x3355 JUMPI INVALID JUMPDEST PUSH1 0x20 MUL PUSH1 0x20 ADD ADD MLOAD DUP8 DUP7 PUSH1 0x1 ADD DUP2 MLOAD DUP2 LT PUSH2 0x336C JUMPI INVALID JUMPDEST PUSH1 0x20 MUL PUSH1 0x20 ADD ADD MLOAD PUSH2 0x43FD JUMP JUMPDEST SWAP2 POP SWAP2 POP PUSH2 0x33B0 DUP8 DUP6 DUP6 DUP2 MLOAD DUP2 LT PUSH2 0x338D JUMPI INVALID JUMPDEST PUSH1 0x20 MUL PUSH1 0x20 ADD ADD MLOAD DUP5 DUP5 DUP10 DUP9 DUP2 MLOAD DUP2 LT PUSH2 0x33A3 JUMPI INVALID JUMPDEST PUSH1 0x20 MUL PUSH1 0x20 ADD ADD MLOAD PUSH2 0x400E JUMP JUMPDEST DUP5 DUP5 PUSH1 0x1 ADD DUP2 MLOAD DUP2 LT PUSH2 0x33BF JUMPI INVALID JUMPDEST PUSH1 0x20 SWAP1 DUP2 MUL SWAP2 SWAP1 SWAP2 ADD ADD MSTORE POP POP PUSH1 0x1 ADD PUSH2 0x3336 JUMP JUMPDEST POP SWAP4 SWAP3 POP POP POP JUMP JUMPDEST PUSH1 0x0 DUP1 PUSH1 0x0 PUSH2 0x33EB DUP6 DUP6 PUSH2 0x3F30 JUMP JUMPDEST PUSH1 0x40 DUP1 MLOAD PUSH12 0xFFFFFFFFFFFFFFFFFFFFFFFF NOT PUSH1 0x60 SWAP5 DUP6 SHL DUP2 AND PUSH1 0x20 DUP1 DUP5 ADD SWAP2 SWAP1 SWAP2 MSTORE SWAP4 DUP6 SHL DUP2 AND PUSH1 0x34 DUP4 ADD MSTORE DUP3 MLOAD PUSH1 0x28 DUP2 DUP5 SUB ADD DUP2 MSTORE PUSH1 0x48 DUP4 ADD DUP5 MSTORE DUP1 MLOAD SWAP1 DUP6 ADD KECCAK256 PUSH1 0x1 PUSH1 0x1 PUSH1 0xF8 SHL SUB NOT PUSH1 0x68 DUP5 ADD MSTORE SWAP11 SWAP1 SWAP5 SHL SWAP1 SWAP4 AND PUSH1 0x69 DUP5 ADD MSTORE PUSH1 0x7D DUP4 ADD SWAP9 SWAP1 SWAP9 MSTORE PUSH32 0x57CF36086932D62D26C562D18D87AFE373F166C06011DC35BE0783E29C6EB4EB PUSH1 0x9D DUP1 DUP5 ADD SWAP2 SWAP1 SWAP2 MSTORE DUP9 MLOAD DUP1 DUP5 SUB SWAP1 SWAP2 ADD DUP2 MSTORE PUSH1 0xBD SWAP1 SWAP3 ADD SWAP1 SWAP8 MSTORE DUP1 MLOAD SWAP7 ADD SWAP6 SWAP1 SWAP6 KECCAK256 SWAP6 SWAP5 POP POP POP POP POP JUMP JUMPDEST PUSH1 0x40 DUP1 MLOAD PUSH1 0x1 PUSH1 0x1 PUSH1 0xA0 SHL SUB DUP6 DUP2 AND PUSH1 0x24 DUP4 ADD MSTORE DUP5 DUP2 AND PUSH1 0x44 DUP4 ADD MSTORE PUSH1 0x64 DUP1 DUP4 ADD DUP6 SWAP1 MSTORE DUP4 MLOAD DUP1 DUP5 SUB SWAP1 SWAP2 ADD DUP2 MSTORE PUSH1 0x84 SWAP1 SWAP3 ADD DUP4 MSTORE PUSH1 0x20 DUP3 ADD DUP1 MLOAD PUSH1 0x1 PUSH1 0x1 PUSH1 0xE0 SHL SUB AND PUSH4 0x23B872DD PUSH1 0xE0 SHL OR DUP2 MSTORE SWAP3 MLOAD DUP3 MLOAD PUSH1 0x0 SWAP5 PUSH1 0x60 SWAP5 SWAP4 DUP11 AND SWAP4 SWAP3 SWAP2 DUP3 SWAP2 SWAP1 DUP1 DUP4 DUP4 JUMPDEST PUSH1 0x20 DUP4 LT PUSH2 0x3521 JUMPI DUP1 MLOAD DUP3 MSTORE PUSH1 0x1F NOT SWAP1 SWAP3 ADD SWAP2 PUSH1 0x20 SWAP2 DUP3 ADD SWAP2 ADD PUSH2 0x3502 JUMP JUMPDEST PUSH1 0x1 DUP4 PUSH1 0x20 SUB PUSH2 0x100 EXP SUB DUP1 NOT DUP3 MLOAD AND DUP2 DUP5 MLOAD AND DUP1 DUP3 OR DUP6 MSTORE POP POP POP POP POP POP SWAP1 POP ADD SWAP2 POP POP PUSH1 0x0 PUSH1 0x40 MLOAD DUP1 DUP4 SUB DUP2 PUSH1 0x0 DUP7 GAS CALL SWAP2 POP POP RETURNDATASIZE DUP1 PUSH1 0x0 DUP2 EQ PUSH2 0x3583 JUMPI PUSH1 0x40 MLOAD SWAP2 POP PUSH1 0x1F NOT PUSH1 0x3F RETURNDATASIZE ADD AND DUP3 ADD PUSH1 0x40 MSTORE RETURNDATASIZE DUP3 MSTORE RETURNDATASIZE PUSH1 0x0 PUSH1 0x20 DUP5 ADD RETURNDATACOPY PUSH2 0x3588 JUMP JUMPDEST PUSH1 0x60 SWAP2 POP JUMPDEST POP SWAP2 POP SWAP2 POP DUP2 DUP1 ISZERO PUSH2 0x35B6 JUMPI POP DUP1 MLOAD ISZERO DUP1 PUSH2 0x35B6 JUMPI POP DUP1 DUP1 PUSH1 0x20 ADD SWAP1 MLOAD PUSH1 0x20 DUP2 LT ISZERO PUSH2 0x35B3 JUMPI PUSH1 0x0 DUP1 REVERT JUMPDEST POP MLOAD JUMPDEST PUSH2 0x35F1 JUMPI PUSH1 0x40 MLOAD PUSH3 0x461BCD PUSH1 0xE5 SHL DUP2 MSTORE PUSH1 0x4 ADD DUP1 DUP1 PUSH1 0x20 ADD DUP3 DUP2 SUB DUP3 MSTORE PUSH1 0x31 DUP2 MSTORE PUSH1 0x20 ADD DUP1 PUSH2 0x45A3 PUSH1 0x31 SWAP2 CODECOPY PUSH1 0x40 ADD SWAP2 POP POP PUSH1 0x40 MLOAD DUP1 SWAP2 SUB SWAP1 REVERT JUMPDEST POP POP POP POP POP POP JUMP JUMPDEST PUSH1 0x0 JUMPDEST PUSH1 0x1 DUP4 MLOAD SUB DUP2 LT ISZERO PUSH2 0x3839 JUMPI PUSH1 0x0 DUP1 DUP5 DUP4 DUP2 MLOAD DUP2 LT PUSH2 0x3617 JUMPI INVALID JUMPDEST PUSH1 0x20 MUL PUSH1 0x20 ADD ADD MLOAD DUP6 DUP5 PUSH1 0x1 ADD DUP2 MLOAD DUP2 LT PUSH2 0x362E JUMPI INVALID JUMPDEST PUSH1 0x20 MUL PUSH1 0x20 ADD ADD MLOAD SWAP2 POP SWAP2 POP PUSH1 0x0 PUSH2 0x3646 DUP4 DUP4 PUSH2 0x3F30 JUMP JUMPDEST POP SWAP1 POP PUSH1 0x0 DUP8 DUP6 PUSH1 0x1 ADD DUP2 MLOAD DUP2 LT PUSH2 0x365A JUMPI INVALID JUMPDEST PUSH1 0x20 MUL PUSH1 0x20 ADD ADD MLOAD SWAP1 POP PUSH1 0x0 DUP1 DUP4 PUSH1 0x1 PUSH1 0x1 PUSH1 0xA0 SHL SUB AND DUP7 PUSH1 0x1 PUSH1 0x1 PUSH1 0xA0 SHL SUB AND EQ PUSH2 0x3688 JUMPI DUP3 PUSH1 0x0 PUSH2 0x368C JUMP JUMPDEST PUSH1 0x0 DUP4 JUMPDEST SWAP2 POP SWAP2 POP PUSH1 0x0 PUSH1 0x2 DUP11 MLOAD SUB DUP9 LT PUSH2 0x36A3 JUMPI DUP9 PUSH2 0x36E4 JUMP JUMPDEST PUSH2 0x36E4 PUSH32 0x0 DUP8 DUP13 DUP12 PUSH1 0x2 ADD DUP2 MLOAD DUP2 LT PUSH2 0x36D7 JUMPI INVALID JUMPDEST PUSH1 0x20 MUL PUSH1 0x20 ADD ADD MLOAD PUSH2 0x33DC JUMP JUMPDEST SWAP1 POP PUSH2 0x3711 PUSH32 0x0 DUP9 DUP9 PUSH2 0x33DC JUMP JUMPDEST PUSH1 0x1 PUSH1 0x1 PUSH1 0xA0 SHL SUB AND PUSH4 0x22C0D9F DUP5 DUP5 DUP5 PUSH1 0x0 PUSH1 0x40 MLOAD SWAP1 DUP1 DUP3 MSTORE DUP1 PUSH1 0x1F ADD PUSH1 0x1F NOT AND PUSH1 0x20 ADD DUP3 ADD PUSH1 0x40 MSTORE DUP1 ISZERO PUSH2 0x374E JUMPI PUSH1 0x20 DUP3 ADD DUP2 DUP1 CALLDATASIZE DUP4 CALLDATACOPY ADD SWAP1 POP JUMPDEST POP PUSH1 0x40 MLOAD DUP6 PUSH4 0xFFFFFFFF AND PUSH1 0xE0 SHL DUP2 MSTORE PUSH1 0x4 ADD DUP1 DUP6 DUP2 MSTORE PUSH1 0x20 ADD DUP5 DUP2 MSTORE PUSH1 0x20 ADD DUP4 PUSH1 0x1 PUSH1 0x1 PUSH1 0xA0 SHL SUB AND PUSH1 0x1 PUSH1 0x1 PUSH1 0xA0 SHL SUB AND DUP2 MSTORE PUSH1 0x20 ADD DUP1 PUSH1 0x20 ADD DUP3 DUP2 SUB DUP3 MSTORE DUP4 DUP2 DUP2 MLOAD DUP2 MSTORE PUSH1 0x20 ADD SWAP2 POP DUP1 MLOAD SWAP1 PUSH1 0x20 ADD SWAP1 DUP1 DUP4 DUP4 PUSH1 0x0 JUMPDEST DUP4 DUP2 LT ISZERO PUSH2 0x37BF JUMPI DUP2 DUP2 ADD MLOAD DUP4 DUP3 ADD MSTORE PUSH1 0x20 ADD PUSH2 0x37A7 JUMP JUMPDEST POP POP POP POP SWAP1 POP SWAP1 DUP2 ADD SWAP1 PUSH1 0x1F AND DUP1 ISZERO PUSH2 0x37EC JUMPI DUP1 DUP3 SUB DUP1 MLOAD PUSH1 0x1 DUP4 PUSH1 0x20 SUB PUSH2 0x100 EXP SUB NOT AND DUP2 MSTORE PUSH1 0x20 ADD SWAP2 POP JUMPDEST POP SWAP6 POP POP POP POP POP POP PUSH1 0x0 PUSH1 0x40 MLOAD DUP1 DUP4 SUB DUP2 PUSH1 0x0 DUP8 DUP1 EXTCODESIZE ISZERO DUP1 ISZERO PUSH2 0x380E JUMPI PUSH1 0x0 DUP1 REVERT JUMPDEST POP GAS CALL ISZERO DUP1 ISZERO PUSH2 0x3822 JUMPI RETURNDATASIZE PUSH1 0x0 DUP1 RETURNDATACOPY RETURNDATASIZE PUSH1 0x0 REVERT JUMPDEST POP POP PUSH1 0x1 SWAP1 SWAP10 ADD SWAP9 POP PUSH2 0x35FC SWAP8 POP POP POP POP POP POP POP POP JUMP JUMPDEST POP POP POP POP JUMP JUMPDEST PUSH1 0x60 PUSH1 0x2 DUP3 MLOAD LT ISZERO PUSH2 0x3898 JUMPI PUSH1 0x40 DUP1 MLOAD PUSH3 0x461BCD PUSH1 0xE5 SHL DUP2 MSTORE PUSH1 0x20 PUSH1 0x4 DUP3 ADD MSTORE PUSH1 0x1E PUSH1 0x24 DUP3 ADD MSTORE PUSH32 0x556E697377617056324C6962726172793A20494E56414C49445F504154480000 PUSH1 0x44 DUP3 ADD MSTORE SWAP1 MLOAD SWAP1 DUP2 SWAP1 SUB PUSH1 0x64 ADD SWAP1 REVERT JUMPDEST DUP2 MLOAD PUSH8 0xFFFFFFFFFFFFFFFF DUP2 GT DUP1 ISZERO PUSH2 0x38B0 JUMPI PUSH1 0x0 DUP1 REVERT JUMPDEST POP PUSH1 0x40 MLOAD SWAP1 DUP1 DUP3 MSTORE DUP1 PUSH1 0x20 MUL PUSH1 0x20 ADD DUP3 ADD PUSH1 0x40 MSTORE DUP1 ISZERO PUSH2 0x38DA JUMPI DUP2 PUSH1 0x20 ADD PUSH1 0x20 DUP3 MUL DUP1 CALLDATASIZE DUP4 CALLDATACOPY ADD SWAP1 POP JUMPDEST POP SWAP1 POP DUP3 DUP2 PUSH1 0x1 DUP4 MLOAD SUB DUP2 MLOAD DUP2 LT PUSH2 0x38EE JUMPI INVALID JUMPDEST PUSH1 0x20 SWAP1 DUP2 MUL SWAP2 SWAP1 SWAP2 ADD ADD MSTORE DUP2 MLOAD PUSH1 0x0 NOT ADD JUMPDEST DUP1 ISZERO PUSH2 0x33D4 JUMPI PUSH1 0x0 DUP1 PUSH2 0x3930 DUP8 DUP7 PUSH1 0x1 DUP7 SUB DUP2 MLOAD DUP2 LT PUSH2 0x391C JUMPI INVALID JUMPDEST PUSH1 0x20 MUL PUSH1 0x20 ADD ADD MLOAD DUP8 DUP7 DUP2 MLOAD DUP2 LT PUSH2 0x336C JUMPI INVALID JUMPDEST SWAP2 POP SWAP2 POP PUSH2 0x3967 DUP8 DUP6 DUP6 DUP2 MLOAD DUP2 LT PUSH2 0x3944 JUMPI INVALID JUMPDEST PUSH1 0x20 MUL PUSH1 0x20 ADD ADD MLOAD DUP5 DUP5 DUP10 DUP9 DUP2 MLOAD DUP2 LT PUSH2 0x395A JUMPI INVALID JUMPDEST PUSH1 0x20 MUL PUSH1 0x20 ADD ADD MLOAD PUSH2 0x3D09 JUMP JUMPDEST DUP5 PUSH1 0x1 DUP6 SUB DUP2 MLOAD DUP2 LT PUSH2 0x3976 JUMPI INVALID JUMPDEST PUSH1 0x20 SWAP1 DUP2 MUL SWAP2 SWAP1 SWAP2 ADD ADD MSTORE POP POP PUSH1 0x0 NOT ADD PUSH2 0x3900 JUMP JUMPDEST PUSH1 0x0 JUMPDEST PUSH1 0x1 DUP4 MLOAD SUB DUP2 LT ISZERO PUSH2 0x3276 JUMPI PUSH1 0x0 DUP1 DUP5 DUP4 DUP2 MLOAD DUP2 LT PUSH2 0x39AA JUMPI INVALID JUMPDEST PUSH1 0x20 MUL PUSH1 0x20 ADD ADD MLOAD DUP6 DUP5 PUSH1 0x1 ADD DUP2 MLOAD DUP2 LT PUSH2 0x39C1 JUMPI INVALID JUMPDEST PUSH1 0x20 MUL PUSH1 0x20 ADD ADD MLOAD SWAP2 POP SWAP2 POP PUSH1 0x0 PUSH2 0x39D9 DUP4 DUP4 PUSH2 0x3F30 JUMP JUMPDEST POP SWAP1 POP PUSH1 0x0 PUSH2 0x3A09 PUSH32 0x0 DUP6 DUP6 PUSH2 0x33DC JUMP JUMPDEST SWAP1 POP PUSH1 0x0 DUP1 PUSH1 0x0 DUP1 DUP5 PUSH1 0x1 PUSH1 0x1 PUSH1 0xA0 SHL SUB AND PUSH4 0x902F1AC PUSH1 0x40 MLOAD DUP2 PUSH4 0xFFFFFFFF AND PUSH1 0xE0 SHL DUP2 MSTORE PUSH1 0x4 ADD PUSH1 0x60 PUSH1 0x40 MLOAD DUP1 DUP4 SUB DUP2 DUP7 DUP1 EXTCODESIZE ISZERO DUP1 ISZERO PUSH2 0x3A4A JUMPI PUSH1 0x0 DUP1 REVERT JUMPDEST POP GAS STATICCALL ISZERO DUP1 ISZERO PUSH2 0x3A5E JUMPI RETURNDATASIZE PUSH1 0x0 DUP1 RETURNDATACOPY RETURNDATASIZE PUSH1 0x0 REVERT JUMPDEST POP POP POP POP PUSH1 0x40 MLOAD RETURNDATASIZE PUSH1 0x60 DUP2 LT ISZERO PUSH2 0x3A74 JUMPI PUSH1 0x0 DUP1 REVERT JUMPDEST POP DUP1 MLOAD PUSH1 0x20 SWAP1 SWAP2 ADD MLOAD PUSH1 0x1 PUSH1 0x1 PUSH1 0x70 SHL SUB SWAP2 DUP3 AND SWAP4 POP AND SWAP1 POP PUSH1 0x0 DUP1 PUSH1 0x1 PUSH1 0x1 PUSH1 0xA0 SHL SUB DUP11 DUP2 AND SWAP1 DUP10 AND EQ PUSH2 0x3AAA JUMPI DUP3 DUP5 PUSH2 0x3AAD JUMP JUMPDEST DUP4 DUP4 JUMPDEST SWAP2 POP SWAP2 POP PUSH2 0x3B0B DUP3 DUP12 PUSH1 0x1 PUSH1 0x1 PUSH1 0xA0 SHL SUB AND PUSH4 0x70A08231 DUP11 PUSH1 0x40 MLOAD DUP3 PUSH4 0xFFFFFFFF AND PUSH1 0xE0 SHL DUP2 MSTORE PUSH1 0x4 ADD DUP1 DUP3 PUSH1 0x1 PUSH1 0x1 PUSH1 0xA0 SHL SUB AND PUSH1 0x1 PUSH1 0x1 PUSH1 0xA0 SHL SUB AND DUP2 MSTORE PUSH1 0x20 ADD SWAP2 POP POP PUSH1 0x20 PUSH1 0x40 MLOAD DUP1 DUP4 SUB DUP2 DUP7 DUP1 EXTCODESIZE ISZERO DUP1 ISZERO PUSH2 0x1827 JUMPI PUSH1 0x0 DUP1 REVERT JUMPDEST SWAP6 POP PUSH2 0x3B3A PUSH32 0x0 DUP8 DUP5 DUP5 DUP12 PUSH2 0x400E JUMP JUMPDEST SWAP5 POP POP POP POP POP PUSH1 0x0 DUP1 DUP6 PUSH1 0x1 PUSH1 0x1 PUSH1 0xA0 SHL SUB AND DUP9 PUSH1 0x1 PUSH1 0x1 PUSH1 0xA0 SHL SUB AND EQ PUSH2 0x3B64 JUMPI DUP3 PUSH1 0x0 PUSH2 0x3B68 JUMP JUMPDEST PUSH1 0x0 DUP4 JUMPDEST SWAP2 POP SWAP2 POP PUSH1 0x0 PUSH1 0x2 DUP13 MLOAD SUB DUP11 LT PUSH2 0x3B7F JUMPI DUP11 PUSH2 0x3BB3 JUMP JUMPDEST PUSH2 0x3BB3 PUSH32 0x0 DUP10 DUP15 DUP14 PUSH1 0x2 ADD DUP2 MLOAD DUP2 LT PUSH2 0x36D7 JUMPI INVALID JUMPDEST PUSH1 0x40 DUP1 MLOAD PUSH1 0x0 DUP1 DUP3 MSTORE PUSH1 0x20 DUP3 ADD SWAP3 DUP4 SWAP1 MSTORE PUSH4 0x22C0D9F PUSH1 0xE0 SHL DUP4 MSTORE PUSH1 0x24 DUP3 ADD DUP8 DUP2 MSTORE PUSH1 0x44 DUP4 ADD DUP8 SWAP1 MSTORE PUSH1 0x1 PUSH1 0x1 PUSH1 0xA0 SHL SUB DUP1 DUP7 AND PUSH1 0x64 DUP6 ADD MSTORE PUSH1 0x80 PUSH1 0x84 DUP6 ADD SWAP1 DUP2 MSTORE DUP5 MLOAD PUSH1 0xA4 DUP7 ADD DUP2 SWAP1 MSTORE SWAP7 SWAP8 POP SWAP1 DUP13 AND SWAP6 PUSH4 0x22C0D9F SWAP6 DUP11 SWAP6 DUP11 SWAP6 DUP11 SWAP6 SWAP2 SWAP5 SWAP2 SWAP4 SWAP2 SWAP3 PUSH1 0xC4 DUP7 ADD SWAP3 SWAP1 SWAP2 DUP2 SWAP1 DUP5 SWAP1 DUP5 SWAP1 JUMPDEST DUP4 DUP2 LT ISZERO PUSH2 0x3C3D JUMPI DUP2 DUP2 ADD MLOAD DUP4 DUP3 ADD MSTORE PUSH1 0x20 ADD PUSH2 0x3C25 JUMP JUMPDEST POP POP POP POP SWAP1 POP SWAP1 DUP2 ADD SWAP1 PUSH1 0x1F AND DUP1 ISZERO PUSH2 0x3C6A JUMPI DUP1 DUP3 SUB DUP1 MLOAD PUSH1 0x1 DUP4 PUSH1 0x20 SUB PUSH2 0x100 EXP SUB NOT AND DUP2 MSTORE PUSH1 0x20 ADD SWAP2 POP JUMPDEST POP SWAP6 POP POP POP POP POP POP PUSH1 0x0 PUSH1 0x40 MLOAD DUP1 DUP4 SUB DUP2 PUSH1 0x0 DUP8 DUP1 EXTCODESIZE ISZERO DUP1 ISZERO PUSH2 0x3C8C JUMPI PUSH1 0x0 DUP1 REVERT JUMPDEST POP GAS CALL ISZERO DUP1 ISZERO PUSH2 0x3CA0 JUMPI RETURNDATASIZE PUSH1 0x0 DUP1 RETURNDATACOPY RETURNDATASIZE PUSH1 0x0 REVERT JUMPDEST POP POP PUSH1 0x1 SWAP1 SWAP12 ADD SWAP11 POP PUSH2 0x398F SWAP10 POP POP POP POP POP POP POP POP POP POP JUMP JUMPDEST DUP1 DUP3 SUB DUP3 DUP2 GT ISZERO PUSH2 0x112C JUMPI PUSH1 0x40 DUP1 MLOAD PUSH3 0x461BCD PUSH1 0xE5 SHL DUP2 MSTORE PUSH1 0x20 PUSH1 0x4 DUP3 ADD MSTORE PUSH1 0x15 PUSH1 0x24 DUP3 ADD MSTORE PUSH21 0x64732D6D6174682D7375622D756E646572666C6F77 PUSH1 0x58 SHL PUSH1 0x44 DUP3 ADD MSTORE SWAP1 MLOAD SWAP1 DUP2 SWAP1 SUB PUSH1 0x64 ADD SWAP1 REVERT JUMPDEST PUSH1 0x0 DUP1 DUP6 GT PUSH2 0x3D49 JUMPI PUSH1 0x40 MLOAD PUSH3 0x461BCD PUSH1 0xE5 SHL DUP2 MSTORE PUSH1 0x4 ADD DUP1 DUP1 PUSH1 0x20 ADD DUP3 DUP2 SUB DUP3 MSTORE PUSH1 0x2C DUP2 MSTORE PUSH1 0x20 ADD DUP1 PUSH2 0x4577 PUSH1 0x2C SWAP2 CODECOPY PUSH1 0x40 ADD SWAP2 POP POP PUSH1 0x40 MLOAD DUP1 SWAP2 SUB SWAP1 REVERT JUMPDEST PUSH1 0x0 DUP5 GT DUP1 ISZERO PUSH2 0x3D59 JUMPI POP PUSH1 0x0 DUP4 GT JUMPDEST PUSH2 0x3D94 JUMPI PUSH1 0x40 MLOAD PUSH3 0x461BCD PUSH1 0xE5 SHL DUP2 MSTORE PUSH1 0x4 ADD DUP1 DUP1 PUSH1 0x20 ADD DUP3 DUP2 SUB DUP3 MSTORE PUSH1 0x28 DUP2 MSTORE PUSH1 0x20 ADD DUP1 PUSH2 0x4653 PUSH1 0x28 SWAP2 CODECOPY PUSH1 0x40 ADD SWAP2 POP POP PUSH1 0x40 MLOAD DUP1 SWAP2 SUB SWAP1 REVERT JUMPDEST PUSH1 0x0 PUSH2 0x3DB8 PUSH2 0x3E8 PUSH2 0x3DAC DUP8 DUP10 PUSH4 0xFFFFFFFF PUSH2 0x44C4 AND JUMP JUMPDEST SWAP1 PUSH4 0xFFFFFFFF PUSH2 0x44C4 AND JUMP JUMPDEST SWAP1 POP PUSH1 0x0 DUP8 PUSH1 0x1 PUSH1 0x1 PUSH1 0xA0 SHL SUB AND PUSH4 0xA6AE80E2 DUP6 PUSH1 0x40 MLOAD DUP3 PUSH4 0xFFFFFFFF AND PUSH1 0xE0 SHL DUP2 MSTORE PUSH1 0x4 ADD DUP1 DUP3 PUSH1 0x1 PUSH1 0x1 PUSH1 0xA0 SHL SUB AND PUSH1 0x1 PUSH1 0x1 PUSH1 0xA0 SHL SUB AND DUP2 MSTORE PUSH1 0x20 ADD SWAP2 POP POP PUSH1 0x20 PUSH1 0x40 MLOAD DUP1 DUP4 SUB DUP2 DUP7 DUP1 EXTCODESIZE ISZERO DUP1 ISZERO PUSH2 0x3E12 JUMPI PUSH1 0x0 DUP1 REVERT JUMPDEST POP GAS STATICCALL ISZERO DUP1 ISZERO PUSH2 0x3E26 JUMPI RETURNDATASIZE PUSH1 0x0 DUP1 RETURNDATACOPY RETURNDATASIZE PUSH1 0x0 REVERT JUMPDEST POP POP POP POP PUSH1 0x40 MLOAD RETURNDATASIZE PUSH1 0x20 DUP2 LT ISZERO PUSH2 0x3E3C JUMPI PUSH1 0x0 DUP1 REVERT JUMPDEST POP MLOAD PUSH2 0x3E8 SUB SWAP1 POP PUSH1 0x0 PUSH2 0x3E5A DUP3 PUSH2 0x3DAC DUP9 DUP12 PUSH4 0xFFFFFFFF PUSH2 0x3CB9 AND JUMP JUMPDEST SWAP1 POP PUSH2 0x3E77 PUSH1 0x1 DUP3 DUP6 DUP2 PUSH2 0x3E6A JUMPI INVALID JUMPDEST DIV SWAP1 PUSH4 0xFFFFFFFF PUSH2 0x4527 AND JUMP JUMPDEST SWAP10 SWAP9 POP POP POP POP POP POP POP POP POP JUMP JUMPDEST PUSH1 0x0 DUP1 DUP5 GT PUSH2 0x3EC4 JUMPI PUSH1 0x40 MLOAD PUSH3 0x461BCD PUSH1 0xE5 SHL DUP2 MSTORE PUSH1 0x4 ADD DUP1 DUP1 PUSH1 0x20 ADD DUP3 DUP2 SUB DUP3 MSTORE PUSH1 0x25 DUP2 MSTORE PUSH1 0x20 ADD DUP1 PUSH2 0x467B PUSH1 0x25 SWAP2 CODECOPY PUSH1 0x40 ADD SWAP2 POP POP PUSH1 0x40 MLOAD DUP1 SWAP2 SUB SWAP1 REVERT JUMPDEST PUSH1 0x0 DUP4 GT DUP1 ISZERO PUSH2 0x3ED4 JUMPI POP PUSH1 0x0 DUP3 GT JUMPDEST PUSH2 0x3F0F JUMPI PUSH1 0x40 MLOAD PUSH3 0x461BCD PUSH1 0xE5 SHL DUP2 MSTORE PUSH1 0x4 ADD DUP1 DUP1 PUSH1 0x20 ADD DUP3 DUP2 SUB DUP3 MSTORE PUSH1 0x28 DUP2 MSTORE PUSH1 0x20 ADD DUP1 PUSH2 0x4653 PUSH1 0x28 SWAP2 CODECOPY PUSH1 0x40 ADD SWAP2 POP POP PUSH1 0x40 MLOAD DUP1 SWAP2 SUB SWAP1 REVERT JUMPDEST DUP3 PUSH2 0x3F20 DUP6 DUP5 PUSH4 0xFFFFFFFF PUSH2 0x44C4 AND JUMP JUMPDEST DUP2 PUSH2 0x3F27 JUMPI INVALID JUMPDEST DIV SWAP5 SWAP4 POP POP POP POP JUMP JUMPDEST PUSH1 0x0 DUP1 DUP3 PUSH1 0x1 PUSH1 0x1 PUSH1 0xA0 SHL SUB AND DUP5 PUSH1 0x1 PUSH1 0x1 PUSH1 0xA0 SHL SUB AND EQ ISZERO PUSH2 0x3F84 JUMPI PUSH1 0x40 MLOAD PUSH3 0x461BCD PUSH1 0xE5 SHL DUP2 MSTORE PUSH1 0x4 ADD DUP1 DUP1 PUSH1 0x20 ADD DUP3 DUP2 SUB DUP3 MSTORE PUSH1 0x25 DUP2 MSTORE PUSH1 0x20 ADD DUP1 PUSH2 0x4608 PUSH1 0x25 SWAP2 CODECOPY PUSH1 0x40 ADD SWAP2 POP POP PUSH1 0x40 MLOAD DUP1 SWAP2 SUB SWAP1 REVERT JUMPDEST DUP3 PUSH1 0x1 PUSH1 0x1 PUSH1 0xA0 SHL SUB AND DUP5 PUSH1 0x1 PUSH1 0x1 PUSH1 0xA0 SHL SUB AND LT PUSH2 0x3FA4 JUMPI DUP3 DUP5 PUSH2 0x3FA7 JUMP JUMPDEST DUP4 DUP4 JUMPDEST SWAP1 SWAP3 POP SWAP1 POP PUSH1 0x1 PUSH1 0x1 PUSH1 0xA0 SHL SUB DUP3 AND PUSH2 0x4007 JUMPI PUSH1 0x40 DUP1 MLOAD PUSH3 0x461BCD PUSH1 0xE5 SHL DUP2 MSTORE PUSH1 0x20 PUSH1 0x4 DUP3 ADD MSTORE PUSH1 0x1E PUSH1 0x24 DUP3 ADD MSTORE PUSH32 0x556E697377617056324C6962726172793A205A45524F5F414444524553530000 PUSH1 0x44 DUP3 ADD MSTORE SWAP1 MLOAD SWAP1 DUP2 SWAP1 SUB PUSH1 0x64 ADD SWAP1 REVERT JUMPDEST SWAP3 POP SWAP3 SWAP1 POP JUMP JUMPDEST PUSH1 0x0 DUP1 DUP6 GT PUSH2 0x404E JUMPI PUSH1 0x40 MLOAD PUSH3 0x461BCD PUSH1 0xE5 SHL DUP2 MSTORE PUSH1 0x4 ADD DUP1 DUP1 PUSH1 0x20 ADD DUP3 DUP2 SUB DUP3 MSTORE PUSH1 0x2B DUP2 MSTORE PUSH1 0x20 ADD DUP1 PUSH2 0x4765 PUSH1 0x2B SWAP2 CODECOPY PUSH1 0x40 ADD SWAP2 POP POP PUSH1 0x40 MLOAD DUP1 SWAP2 SUB SWAP1 REVERT JUMPDEST PUSH1 0x0 DUP5 GT DUP1 ISZERO PUSH2 0x405E JUMPI POP PUSH1 0x0 DUP4 GT JUMPDEST PUSH2 0x4099 JUMPI PUSH1 0x40 MLOAD PUSH3 0x461BCD PUSH1 0xE5 SHL DUP2 MSTORE PUSH1 0x4 ADD DUP1 DUP1 PUSH1 0x20 ADD DUP3 DUP2 SUB DUP3 MSTORE PUSH1 0x28 DUP2 MSTORE PUSH1 0x20 ADD DUP1 PUSH2 0x4653 PUSH1 0x28 SWAP2 CODECOPY PUSH1 0x40 ADD SWAP2 POP POP PUSH1 0x40 MLOAD DUP1 SWAP2 SUB SWAP1 REVERT JUMPDEST PUSH1 0x0 DUP7 PUSH1 0x1 PUSH1 0x1 PUSH1 0xA0 SHL SUB AND PUSH4 0xA6AE80E2 DUP5 PUSH1 0x40 MLOAD DUP3 PUSH4 0xFFFFFFFF AND PUSH1 0xE0 SHL DUP2 MSTORE PUSH1 0x4 ADD DUP1 DUP3 PUSH1 0x1 PUSH1 0x1 PUSH1 0xA0 SHL SUB AND PUSH1 0x1 PUSH1 0x1 PUSH1 0xA0 SHL SUB AND DUP2 MSTORE PUSH1 0x20 ADD SWAP2 POP POP PUSH1 0x20 PUSH1 0x40 MLOAD DUP1 DUP4 SUB DUP2 DUP7 DUP1 EXTCODESIZE ISZERO DUP1 ISZERO PUSH2 0x40F1 JUMPI PUSH1 0x0 DUP1 REVERT JUMPDEST POP GAS STATICCALL ISZERO DUP1 ISZERO PUSH2 0x4105 JUMPI RETURNDATASIZE PUSH1 0x0 DUP1 RETURNDATACOPY RETURNDATASIZE PUSH1 0x0 REVERT JUMPDEST POP POP POP POP PUSH1 0x40 MLOAD RETURNDATASIZE PUSH1 0x20 DUP2 LT ISZERO PUSH2 0x411B JUMPI PUSH1 0x0 DUP1 REVERT JUMPDEST POP MLOAD PUSH2 0x3E8 SUB SWAP1 POP PUSH1 0x0 PUSH2 0x4135 DUP8 DUP4 PUSH4 0xFFFFFFFF PUSH2 0x44C4 AND JUMP JUMPDEST SWAP1 POP PUSH1 0x0 PUSH2 0x4149 DUP3 DUP8 PUSH4 0xFFFFFFFF PUSH2 0x44C4 AND JUMP JUMPDEST SWAP1 POP PUSH1 0x0 PUSH2 0x416F DUP4 PUSH2 0x4163 DUP11 PUSH2 0x3E8 PUSH4 0xFFFFFFFF PUSH2 0x44C4 AND JUMP JUMPDEST SWAP1 PUSH4 0xFFFFFFFF PUSH2 0x4527 AND JUMP JUMPDEST SWAP1 POP DUP1 DUP3 DUP2 PUSH2 0x417A JUMPI INVALID JUMPDEST DIV SWAP11 SWAP10 POP POP POP POP POP POP POP POP POP POP JUMP JUMPDEST PUSH1 0x40 DUP1 MLOAD PUSH4 0xE6A43905 PUSH1 0xE0 SHL DUP2 MSTORE PUSH1 0x1 PUSH1 0x1 PUSH1 0xA0 SHL SUB DUP9 DUP2 AND PUSH1 0x4 DUP4 ADD MSTORE DUP8 DUP2 AND PUSH1 0x24 DUP4 ADD MSTORE SWAP2 MLOAD PUSH1 0x0 SWAP3 DUP4 SWAP3 DUP4 SWAP3 PUSH32 0x0 SWAP1 SWAP3 AND SWAP2 PUSH4 0xE6A43905 SWAP2 PUSH1 0x44 DUP1 DUP3 ADD SWAP3 PUSH1 0x20 SWAP3 SWAP1 SWAP2 SWAP1 DUP3 SWAP1 SUB ADD DUP2 DUP7 DUP1 EXTCODESIZE ISZERO DUP1 ISZERO PUSH2 0x4203 JUMPI PUSH1 0x0 DUP1 REVERT JUMPDEST POP GAS STATICCALL ISZERO DUP1 ISZERO PUSH2 0x4217 JUMPI RETURNDATASIZE PUSH1 0x0 DUP1 RETURNDATACOPY RETURNDATASIZE PUSH1 0x0 REVERT JUMPDEST POP POP POP POP PUSH1 0x40 MLOAD RETURNDATASIZE PUSH1 0x20 DUP2 LT ISZERO PUSH2 0x422D JUMPI PUSH1 0x0 DUP1 REVERT JUMPDEST POP MLOAD PUSH1 0x1 PUSH1 0x1 PUSH1 0xA0 SHL SUB AND EQ ISZERO PUSH2 0x42E0 JUMPI PUSH1 0x40 DUP1 MLOAD PUSH4 0x64E329CB PUSH1 0xE1 SHL DUP2 MSTORE PUSH1 0x1 PUSH1 0x1 PUSH1 0xA0 SHL SUB DUP11 DUP2 AND PUSH1 0x4 DUP4 ADD MSTORE DUP10 DUP2 AND PUSH1 0x24 DUP4 ADD MSTORE SWAP2 MLOAD PUSH32 0x0 SWAP1 SWAP3 AND SWAP2 PUSH4 0xC9C65396 SWAP2 PUSH1 0x44 DUP1 DUP3 ADD SWAP3 PUSH1 0x20 SWAP3 SWAP1 SWAP2 SWAP1 DUP3 SWAP1 SUB ADD DUP2 PUSH1 0x0 DUP8 DUP1 EXTCODESIZE ISZERO DUP1 ISZERO PUSH2 0x42B3 JUMPI PUSH1 0x0 DUP1 REVERT JUMPDEST POP GAS CALL ISZERO DUP1 ISZERO PUSH2 0x42C7 JUMPI RETURNDATASIZE PUSH1 0x0 DUP1 RETURNDATACOPY RETURNDATASIZE PUSH1 0x0 REVERT JUMPDEST POP POP POP POP PUSH1 0x40 MLOAD RETURNDATASIZE PUSH1 0x20 DUP2 LT ISZERO PUSH2 0x42DD JUMPI PUSH1 0x0 DUP1 REVERT JUMPDEST POP POP JUMPDEST PUSH1 0x0 DUP1 PUSH2 0x430E PUSH32 0x0 DUP12 DUP12 PUSH2 0x43FD JUMP JUMPDEST SWAP2 POP SWAP2 POP DUP2 PUSH1 0x0 EQ DUP1 ISZERO PUSH2 0x4320 JUMPI POP DUP1 ISZERO JUMPDEST ISZERO PUSH2 0x4330 JUMPI DUP8 SWAP4 POP DUP7 SWAP3 POP PUSH2 0x43F0 JUMP JUMPDEST PUSH1 0x0 PUSH2 0x433D DUP10 DUP5 DUP5 PUSH2 0x3E84 JUMP JUMPDEST SWAP1 POP DUP8 DUP2 GT PUSH2 0x4390 JUMPI DUP6 DUP2 LT ISZERO PUSH2 0x4385 JUMPI PUSH1 0x40 MLOAD PUSH3 0x461BCD PUSH1 0xE5 SHL DUP2 MSTORE PUSH1 0x4 ADD DUP1 DUP1 PUSH1 0x20 ADD DUP3 DUP2 SUB DUP3 MSTORE PUSH1 0x26 DUP2 MSTORE PUSH1 0x20 ADD DUP1 PUSH2 0x462D PUSH1 0x26 SWAP2 CODECOPY PUSH1 0x40 ADD SWAP2 POP POP PUSH1 0x40 MLOAD DUP1 SWAP2 SUB SWAP1 REVERT JUMPDEST DUP9 SWAP5 POP SWAP3 POP DUP3 PUSH2 0x43EE JUMP JUMPDEST PUSH1 0x0 PUSH2 0x439D DUP10 DUP5 DUP7 PUSH2 0x3E84 JUMP JUMPDEST SWAP1 POP DUP10 DUP2 GT ISZERO PUSH2 0x43A9 JUMPI INVALID JUMPDEST DUP8 DUP2 LT ISZERO PUSH2 0x43E8 JUMPI PUSH1 0x40 MLOAD PUSH3 0x461BCD PUSH1 0xE5 SHL DUP2 MSTORE PUSH1 0x4 ADD DUP1 DUP1 PUSH1 0x20 ADD DUP3 DUP2 SUB DUP3 MSTORE PUSH1 0x26 DUP2 MSTORE PUSH1 0x20 ADD DUP1 PUSH2 0x46E7 PUSH1 0x26 SWAP2 CODECOPY PUSH1 0x40 ADD SWAP2 POP POP PUSH1 0x40 MLOAD DUP1 SWAP2 SUB SWAP1 REVERT JUMPDEST SWAP5 POP DUP8 SWAP4 POP JUMPDEST POP JUMPDEST POP POP SWAP7 POP SWAP7 SWAP5 POP POP POP POP POP JUMP JUMPDEST PUSH1 0x0 DUP1 PUSH1 0x0 PUSH2 0x440C DUP6 DUP6 PUSH2 0x3F30 JUMP JUMPDEST POP SWAP1 POP PUSH1 0x0 DUP1 PUSH2 0x441D DUP9 DUP9 DUP9 PUSH2 0x33DC JUMP JUMPDEST PUSH1 0x1 PUSH1 0x1 PUSH1 0xA0 SHL SUB AND PUSH4 0x902F1AC PUSH1 0x40 MLOAD DUP2 PUSH4 0xFFFFFFFF AND PUSH1 0xE0 SHL DUP2 MSTORE PUSH1 0x4 ADD PUSH1 0x60 PUSH1 0x40 MLOAD DUP1 DUP4 SUB DUP2 DUP7 DUP1 EXTCODESIZE ISZERO DUP1 ISZERO PUSH2 0x4455 JUMPI PUSH1 0x0 DUP1 REVERT JUMPDEST POP GAS STATICCALL ISZERO DUP1 ISZERO PUSH2 0x4469 JUMPI RETURNDATASIZE PUSH1 0x0 DUP1 RETURNDATACOPY RETURNDATASIZE PUSH1 0x0 REVERT JUMPDEST POP POP POP POP PUSH1 0x40 MLOAD RETURNDATASIZE PUSH1 0x60 DUP2 LT ISZERO PUSH2 0x447F JUMPI PUSH1 0x0 DUP1 REVERT JUMPDEST POP DUP1 MLOAD PUSH1 0x20 SWAP1 SWAP2 ADD MLOAD PUSH1 0x1 PUSH1 0x1 PUSH1 0x70 SHL SUB SWAP2 DUP3 AND SWAP4 POP AND SWAP1 POP PUSH1 0x1 PUSH1 0x1 PUSH1 0xA0 SHL SUB DUP8 DUP2 AND SWAP1 DUP5 AND EQ PUSH2 0x44B2 JUMPI DUP1 DUP3 PUSH2 0x44B5 JUMP JUMPDEST DUP2 DUP2 JUMPDEST SWAP1 SWAP10 SWAP1 SWAP9 POP SWAP7 POP POP POP POP POP POP POP JUMP JUMPDEST PUSH1 0x0 DUP2 ISZERO DUP1 PUSH2 0x44DF JUMPI POP POP DUP1 DUP3 MUL DUP3 DUP3 DUP3 DUP2 PUSH2 0x44DC JUMPI INVALID JUMPDEST DIV EQ JUMPDEST PUSH2 0x112C JUMPI PUSH1 0x40 DUP1 MLOAD PUSH3 0x461BCD PUSH1 0xE5 SHL DUP2 MSTORE PUSH1 0x20 PUSH1 0x4 DUP3 ADD MSTORE PUSH1 0x14 PUSH1 0x24 DUP3 ADD MSTORE PUSH20 0x64732D6D6174682D6D756C2D6F766572666C6F77 PUSH1 0x60 SHL PUSH1 0x44 DUP3 ADD MSTORE SWAP1 MLOAD SWAP1 DUP2 SWAP1 SUB PUSH1 0x64 ADD SWAP1 REVERT JUMPDEST DUP1 DUP3 ADD DUP3 DUP2 LT ISZERO PUSH2 0x112C JUMPI PUSH1 0x40 DUP1 MLOAD PUSH3 0x461BCD PUSH1 0xE5 SHL DUP2 MSTORE PUSH1 0x20 PUSH1 0x4 DUP3 ADD MSTORE PUSH1 0x14 PUSH1 0x24 DUP3 ADD MSTORE PUSH20 0x64732D6D6174682D6164642D6F766572666C6F77 PUSH1 0x60 SHL PUSH1 0x44 DUP3 ADD MSTORE SWAP1 MLOAD SWAP1 DUP2 SWAP1 SUB PUSH1 0x64 ADD SWAP1 REVERT INVALID SSTORE PUSH15 0x697377617056324C6962726172793A KECCAK256 0x49 0x4E MSTORE8 SSTORE CHAINID CHAINID 0x49 NUMBER 0x49 GASLIMIT 0x4E SLOAD 0x5F 0x4F SSTORE SLOAD POP SSTORE SLOAD 0x5F COINBASE 0x4D 0x4F SSTORE 0x4E SLOAD SLOAD PUSH19 0x616E7366657248656C7065723A3A7472616E73 PUSH7 0x657246726F6D3A KECCAK256 PUSH21 0x72616E7366657246726F6D206661696C6564547261 PUSH15 0x7366657248656C7065723A3A736166 PUSH6 0x5472616E7366 PUSH6 0x724554483A20 GASLIMIT SLOAD 0x48 KECCAK256 PUSH21 0x72616E73666572206661696C6564556E6973776170 JUMP ORIGIN 0x4C PUSH10 0x62726172793A20494445 0x4E SLOAD 0x49 NUMBER COINBASE 0x4C 0x5F COINBASE DIFFICULTY DIFFICULTY MSTORE GASLIMIT MSTORE8 MSTORE8 GASLIMIT MSTORE8 SSTORE PUSH15 0x69737761705632526F757465723A20 0x49 0x4E MSTORE8 SSTORE CHAINID CHAINID 0x49 NUMBER 0x49 GASLIMIT 0x4E SLOAD 0x5F TIMESTAMP 0x5F COINBASE 0x4D 0x4F SSTORE 0x4E SLOAD SSTORE PUSH15 0x697377617056324C6962726172793A KECCAK256 0x49 0x4E MSTORE8 SSTORE CHAINID CHAINID 0x49 NUMBER 0x49 GASLIMIT 0x4E SLOAD 0x5F 0x4C 0x49 MLOAD SSTORE 0x49 DIFFICULTY 0x49 SLOAD MSIZE SSTORE PUSH15 0x697377617056324C6962726172793A KECCAK256 0x49 0x4E MSTORE8 SSTORE CHAINID CHAINID 0x49 NUMBER 0x49 GASLIMIT 0x4E SLOAD 0x5F COINBASE 0x4D 0x4F SSTORE 0x4E SLOAD SSTORE PUSH15 0x69737761705632526F757465723A20 GASLIMIT PC NUMBER GASLIMIT MSTORE8 MSTORE8 0x49 JUMP GASLIMIT 0x5F 0x49 0x4E POP SSTORE SLOAD 0x5F COINBASE 0x4D 0x4F SSTORE 0x4E SLOAD SSTORE PUSH15 0x69737761705632526F757465723A20 0x49 0x4E JUMP COINBASE 0x4C 0x49 DIFFICULTY 0x5F POP COINBASE SLOAD 0x48 STOP STOP STOP SSTORE PUSH15 0x69737761705632526F757465723A20 0x49 0x4E MSTORE8 SSTORE CHAINID CHAINID 0x49 NUMBER 0x49 GASLIMIT 0x4E SLOAD 0x5F COINBASE 0x5F COINBASE 0x4D 0x4F SSTORE 0x4E SLOAD SSTORE PUSH15 0x69737761705632526F757465723A20 0x49 0x4E MSTORE8 SSTORE CHAINID CHAINID 0x49 NUMBER 0x49 GASLIMIT 0x4E SLOAD 0x5F 0x4F SSTORE SLOAD POP SSTORE SLOAD 0x5F COINBASE 0x4D 0x4F SSTORE 0x4E SLOAD SLOAD PUSH19 0x616E7366657248656C7065723A3A7361666554 PUSH19 0x616E736665723A207472616E73666572206661 PUSH10 0x6C6564556E6973776170 JUMP ORIGIN 0x4C PUSH10 0x62726172793A20494E53 SSTORE CHAINID CHAINID 0x49 NUMBER 0x49 GASLIMIT 0x4E SLOAD 0x5F 0x49 0x4E POP SSTORE SLOAD 0x5F COINBASE 0x4D 0x4F SSTORE 0x4E SLOAD SSTORE PUSH15 0x69737761705632526F757465723A20 GASLIMIT PC POP 0x49 MSTORE GASLIMIT DIFFICULTY STOP STOP STOP STOP STOP STOP STOP STOP LOG2 PUSH5 0x6970667358 0x22 SLT KECCAK256 EXP 0xBE 0xEE COINBASE 0xD8 SWAP5 STATICCALL SWAP2 0x29 0xAF 0xC3 RETURNDATASIZE 0xAD 0xDC PUSH30 0xCED1A7A3484980F692A66FCA36D84A6C0664736F6C634300060600330000 "},"methodIdentifiers":{"WETH()":"ad5c4648","addLiquidity(address,address,uint256,uint256,uint256,uint256,address,uint256)":"e8e33700","addLiquidityETH(address,uint256,uint256,uint256,address,uint256)":"f305d719","factory()":"c45a0155","getAmountIn(uint256,uint256,uint256,address)":"9470dbea","getAmountOut(uint256,uint256,uint256,address)":"caced41b","getAmountsIn(uint256,address[])":"1f00ca74","getAmountsOut(uint256,address[])":"d06ca61f","quote(uint256,uint256,uint256)":"ad615dec","removeLiquidity(address,address,uint256,uint256,uint256,address,uint256)":"baa2abde","removeLiquidityETH(address,uint256,uint256,uint256,address,uint256)":"02751cec","removeLiquidityETHSupportingFeeOnTransferTokens(address,uint256,uint256,uint256,address,uint256)":"af2979eb","removeLiquidityETHWithPermit(address,uint256,uint256,uint256,address,uint256,bool,uint8,bytes32,bytes32)":"ded9382a","removeLiquidityETHWithPermitSupportingFeeOnTransferTokens(address,uint256,uint256,uint256,address,uint256,bool,uint8,bytes32,bytes32)":"5b0d5984","removeLiquidityWithPermit(address,address,uint256,uint256,uint256,address,uint256,bool,uint8,bytes32,bytes32)":"2195995c","swapETHForExactTokens(uint256,address[],address,uint256)":"fb3bdb41","swapExactETHForTokens(uint256,address[],address,uint256)":"7ff36ab5","swapExactETHForTokensSupportingFeeOnTransferTokens(uint256,address[],address,uint256)":"b6f9de95","swapExactTokensForETH(uint256,uint256,address[],address,uint256)":"18cbafe5","swapExactTokensForETHSupportingFeeOnTransferTokens(uint256,uint256,address[],address,uint256)":"791ac947","swapExactTokensForTokens(uint256,uint256,address[],address,uint256)":"38ed1739","swapExactTokensForTokensSupportingFeeOnTransferTokens(uint256,uint256,address[],address,uint256)":"5c11d795","swapTokensForExactETH(uint256,uint256,address[],address,uint256)":"4a25d94a","swapTokensForExactTokens(uint256,uint256,address[],address,uint256)":"8803dbee"}}}}}